{"abi":[{"inputs":[],"stateMutability":"nonpayable","type":"constructor"},{"inputs":[{"internalType":"address","name":"doctorAddress","type":"address"},{"internalType":"string","name":"doctorName","type":"string"},{"internalType":"string","name":"phoneNumber","type":"string"}],"name":"addDoctor","outputs":[],"stateMutability":"nonpayable","type":"function"},{"inputs":[{"internalType":"address","name":"patientAddress","type":"address"},{"internalType":"string","name":"patientName","type":"string"},{"internalType":"string","name":"phoneNumber","type":"string"}],"name":"addPatient","outputs":[],"stateMutability":"nonpayable","type":"function"},{"inputs":[],"name":"admin","outputs":[{"internalType":"address","name":"","type":"address"}],"stateMutability":"view","type":"function"},{"inputs":[{"internalType":"address","name":"doctorAddress","type":"address"},{"internalType":"address","name":"patientAddress","type":"address"}],"name":"assign","outputs":[],"stateMutability":"nonpayable","type":"function"},{"inputs":[{"internalType":"address","name":"patientAddress","type":"address"},{"internalType":"string","name":"diagnosis","type":"string"},{"internalType":"string","name":"treatmentPrescribed","type":"string"},{"internalType":"uint256","name":"recordNumber","type":"uint256"}],"name":"createAppointment","outputs":[],"stateMutability":"nonpayable","type":"function"},{"inputs":[{"internalType":"address","name":"patientAddress","type":"address"},{"internalType":"string","name":"patientHistoryDescription","type":"string"}],"name":"createRecord","outputs":[],"stateMutability":"nonpayable","type":"function"},{"inputs":[{"internalType":"uint256","name":"","type":"uint256"}],"name":"doctorList","outputs":[{"internalType":"address","name":"","type":"address"}],"stateMutability":"view","type":"function"},{"inputs":[],"name":"getAdmin","outputs":[{"internalType":"address","name":"","type":"address"}],"stateMutability":"view","type":"function"},{"inputs":[{"internalType":"address","name":"doctorAddress","type":"address"}],"name":"getDoctor","outputs":[{"internalType":"string","name":"","type":"string"},{"internalType":"string","name":"","type":"string"}],"stateMutability":"view","type":"function"},{"inputs":[],"name":"getDoctorList","outputs":[{"internalType":"address[]","name":"","type":"address[]"}],"stateMutability":"view","type":"function"},{"inputs":[{"internalType":"uint256","name":"recordNumber","type":"uint256"}],"name":"getMedicalRecord","outputs":[{"components":[{"internalType":"uint256","name":"recordNumber","type":"uint256"},{"internalType":"address","name":"doctorAddress","type":"address"},{"internalType":"address","name":"patientAddress","type":"address"},{"internalType":"string","name":"patientHistoryDescription","type":"string"},{"internalType":"uint256[]","name":"appointmentNumberList","type":"uint256[]"}],"internalType":"struct Contract.Record","name":"","type":"tuple"}],"stateMutability":"view","type":"function"},{"inputs":[],"name":"getRecordNumbers","outputs":[{"internalType":"uint256[]","name":"","type":"uint256[]"}],"stateMutability":"view","type":"function"},{"inputs":[{"internalType":"address","name":"givenAddress","type":"address"}],"name":"isDoctor","outputs":[{"internalType":"bool","name":"","type":"bool"}],"stateMutability":"view","type":"function"},{"inputs":[{"internalType":"address","name":"givenAddress","type":"address"}],"name":"isPatient","outputs":[{"internalType":"bool","name":"","type":"bool"}],"stateMutability":"view","type":"function"},{"inputs":[{"internalType":"uint256","name":"","type":"uint256"}],"name":"patientList","outputs":[{"internalType":"address","name":"","type":"address"}],"stateMutability":"view","type":"function"},{"inputs":[{"internalType":"uint256","name":"","type":"uint256"}],"name":"recordList","outputs":[{"internalType":"uint256","name":"recordNumber","type":"uint256"},{"internalType":"address","name":"doctorAddress","type":"address"},{"internalType":"address","name":"patientAddress","type":"address"},{"internalType":"string","name":"patientHistoryDescription","type":"string"}],"stateMutability":"view","type":"function"}],"devdoc":{"kind":"dev","methods":{},"version":1},"evm":{"assembly":"    /* \"Contract.sol\":1039:7438  contract Contract... */\n  mstore(0x40, 0x80)\n    /* \"Contract.sol\":2144:2228  constructor() ... */\n  callvalue\n  dup1\n  iszero\n  tag_1\n  jumpi\n  0x00\n  dup1\n  revert\ntag_1:\n  pop\n    /* \"Contract.sol\":2181:2191  msg.sender */\n  caller\n    /* \"Contract.sol\":2173:2178  admin */\n  0x0a\n  0x00\n    /* \"Contract.sol\":2173:2191  admin = msg.sender */\n  0x0100\n  exp\n  dup2\n  sload\n  dup2\n  0xffffffffffffffffffffffffffffffffffffffff\n  mul\n  not\n  and\n  swap1\n  dup4\n  0xffffffffffffffffffffffffffffffffffffffff\n  and\n  mul\n  or\n  swap1\n  sstore\n  pop\n    /* \"Contract.sol\":2201:2221  adminRole.add(admin) */\n  tag_4\n    /* \"Contract.sol\":2215:2220  admin */\n  0x0a\n  0x00\n  swap1\n  sload\n  swap1\n  0x0100\n  exp\n  swap1\n  div\n  0xffffffffffffffffffffffffffffffffffffffff\n  and\n    /* \"Contract.sol\":2201:2210  adminRole */\n  0x00\n    /* \"Contract.sol\":2201:2214  adminRole.add */\n  or(tag_0_90, shl(0x20, tag_5))\n  swap1\n    /* \"Contract.sol\":2201:2221  adminRole.add(admin) */\n  swap2\n  swap1\n  0x20\n  shr\n  jump\t// in\ntag_4:\n    /* \"Contract.sol\":1039:7438  contract Contract... */\n  jump(tag_6)\n    /* \"Contract.sol\":301:481  function add(Role storage role, address account) internal ... */\ntag_5:\n    /* \"Contract.sol\":383:401  has(role, account) */\n  tag_8\n    /* \"Contract.sol\":387:391  role */\n  dup3\n    /* \"Contract.sol\":393:400  account */\n  dup3\n    /* \"Contract.sol\":383:386  has */\n  shl(0x20, tag_9)\n    /* \"Contract.sol\":383:401  has(role, account) */\n  0x20\n  shr\n  jump\t// in\ntag_8:\n    /* \"Contract.sol\":382:401  !has(role, account) */\n  iszero\n    /* \"Contract.sol\":374:437  require(!has(role, account), \"Roles: account already has role\") */\n  tag_10\n  jumpi\n  mload(0x40)\n  0x08c379a000000000000000000000000000000000000000000000000000000000\n  dup2\n  mstore\n  0x04\n  add\n  tag_11\n  swap1\n  tag_12\n  jump\t// in\ntag_11:\n  mload(0x40)\n  dup1\n  swap2\n  sub\n  swap1\n  revert\ntag_10:\n    /* \"Contract.sol\":470:474  true */\n  0x01\n    /* \"Contract.sol\":447:451  role */\n  dup3\n    /* \"Contract.sol\":447:458  role.bearer */\n  0x00\n  add\n    /* \"Contract.sol\":447:467  role.bearer[account] */\n  0x00\n    /* \"Contract.sol\":459:466  account */\n  dup4\n    /* \"Contract.sol\":447:467  role.bearer[account] */\n  0xffffffffffffffffffffffffffffffffffffffff\n  and\n  0xffffffffffffffffffffffffffffffffffffffff\n  and\n  dup2\n  mstore\n  0x20\n  add\n  swap1\n  dup2\n  mstore\n  0x20\n  add\n  0x00\n  keccak256\n  0x00\n    /* \"Contract.sol\":447:474  role.bearer[account] = true */\n  0x0100\n  exp\n  dup2\n  sload\n  dup2\n  0xff\n  mul\n  not\n  and\n  swap1\n  dup4\n  iszero\n  iszero\n  mul\n  or\n  swap1\n  sstore\n  pop\n    /* \"Contract.sol\":301:481  function add(Role storage role, address account) internal ... */\n  pop\n  pop\n  jump\t// out\n    /* \"Contract.sol\":830:1035  function has(Role storage role, address account) internal view returns (bool) ... */\ntag_9:\n    /* \"Contract.sol\":902:906  bool */\n  0x00\n    /* \"Contract.sol\":950:951  0 */\n  dup1\n    /* \"Contract.sol\":931:952  account != address(0) */\n  0xffffffffffffffffffffffffffffffffffffffff\n  and\n    /* \"Contract.sol\":931:938  account */\n  dup3\n    /* \"Contract.sol\":931:952  account != address(0) */\n  0xffffffffffffffffffffffffffffffffffffffff\n  and\n  sub\n    /* \"Contract.sol\":923:991  require(account != address(0), \"Roles: account is the zero address\") */\n  tag_14\n  jumpi\n  mload(0x40)\n  0x08c379a000000000000000000000000000000000000000000000000000000000\n  dup2\n  mstore\n  0x04\n  add\n  tag_15\n  swap1\n  tag_16\n  jump\t// in\ntag_15:\n  mload(0x40)\n  dup1\n  swap2\n  sub\n  swap1\n  revert\ntag_14:\n    /* \"Contract.sol\":1008:1012  role */\n  dup3\n    /* \"Contract.sol\":1008:1019  role.bearer */\n  0x00\n  add\n    /* \"Contract.sol\":1008:1028  role.bearer[account] */\n  0x00\n    /* \"Contract.sol\":1020:1027  account */\n  dup4\n    /* \"Contract.sol\":1008:1028  role.bearer[account] */\n  0xffffffffffffffffffffffffffffffffffffffff\n  and\n  0xffffffffffffffffffffffffffffffffffffffff\n  and\n  dup2\n  mstore\n  0x20\n  add\n  swap1\n  dup2\n  mstore\n  0x20\n  add\n  0x00\n  keccak256\n  0x00\n  swap1\n  sload\n  swap1\n  0x0100\n  exp\n  swap1\n  div\n  0xff\n  and\n    /* \"Contract.sol\":1001:1028  return role.bearer[account] */\n  swap1\n  pop\n    /* \"Contract.sol\":830:1035  function has(Role storage role, address account) internal view returns (bool) ... */\n  swap3\n  swap2\n  pop\n  pop\n  jump\t// out\n    /* \"#utility.yul\":7:176   */\ntag_17:\n    /* \"#utility.yul\":91:102   */\n  0x00\n    /* \"#utility.yul\":125:131   */\n  dup3\n    /* \"#utility.yul\":120:123   */\n  dup3\n    /* \"#utility.yul\":113:132   */\n  mstore\n    /* \"#utility.yul\":165:169   */\n  0x20\n    /* \"#utility.yul\":160:163   */\n  dup3\n    /* \"#utility.yul\":156:170   */\n  add\n    /* \"#utility.yul\":141:170   */\n  swap1\n  pop\n    /* \"#utility.yul\":7:176   */\n  swap3\n  swap2\n  pop\n  pop\n  jump\t// out\n    /* \"#utility.yul\":182:363   */\ntag_18:\n    /* \"#utility.yul\":322:355   */\n  0x526f6c65733a206163636f756e7420616c72656164792068617320726f6c6500\n    /* \"#utility.yul\":318:319   */\n  0x00\n    /* \"#utility.yul\":310:316   */\n  dup3\n    /* \"#utility.yul\":306:320   */\n  add\n    /* \"#utility.yul\":299:356   */\n  mstore\n    /* \"#utility.yul\":182:363   */\n  pop\n  jump\t// out\n    /* \"#utility.yul\":369:735   */\ntag_19:\n    /* \"#utility.yul\":511:514   */\n  0x00\n    /* \"#utility.yul\":532:599   */\n  tag_26\n    /* \"#utility.yul\":596:598   */\n  0x1f\n    /* \"#utility.yul\":591:594   */\n  dup4\n    /* \"#utility.yul\":532:599   */\n  tag_17\n  jump\t// in\ntag_26:\n    /* \"#utility.yul\":525:599   */\n  swap2\n  pop\n    /* \"#utility.yul\":608:701   */\n  tag_27\n    /* \"#utility.yul\":697:700   */\n  dup3\n    /* \"#utility.yul\":608:701   */\n  tag_18\n  jump\t// in\ntag_27:\n    /* \"#utility.yul\":726:728   */\n  0x20\n    /* \"#utility.yul\":721:724   */\n  dup3\n    /* \"#utility.yul\":717:729   */\n  add\n    /* \"#utility.yul\":710:729   */\n  swap1\n  pop\n    /* \"#utility.yul\":369:735   */\n  swap2\n  swap1\n  pop\n  jump\t// out\n    /* \"#utility.yul\":741:1160   */\ntag_12:\n    /* \"#utility.yul\":907:911   */\n  0x00\n    /* \"#utility.yul\":945:947   */\n  0x20\n    /* \"#utility.yul\":934:943   */\n  dup3\n    /* \"#utility.yul\":930:948   */\n  add\n    /* \"#utility.yul\":922:948   */\n  swap1\n  pop\n    /* \"#utility.yul\":994:1003   */\n  dup2\n    /* \"#utility.yul\":988:992   */\n  dup2\n    /* \"#utility.yul\":984:1004   */\n  sub\n    /* \"#utility.yul\":980:981   */\n  0x00\n    /* \"#utility.yul\":969:978   */\n  dup4\n    /* \"#utility.yul\":965:982   */\n  add\n    /* \"#utility.yul\":958:1005   */\n  mstore\n    /* \"#utility.yul\":1022:1153   */\n  tag_29\n    /* \"#utility.yul\":1148:1152   */\n  dup2\n    /* \"#utility.yul\":1022:1153   */\n  tag_19\n  jump\t// in\ntag_29:\n    /* \"#utility.yul\":1014:1153   */\n  swap1\n  pop\n    /* \"#utility.yul\":741:1160   */\n  swap2\n  swap1\n  pop\n  jump\t// out\n    /* \"#utility.yul\":1166:1387   */\ntag_20:\n    /* \"#utility.yul\":1306:1340   */\n  0x526f6c65733a206163636f756e7420697320746865207a65726f206164647265\n    /* \"#utility.yul\":1302:1303   */\n  0x00\n    /* \"#utility.yul\":1294:1300   */\n  dup3\n    /* \"#utility.yul\":1290:1304   */\n  add\n    /* \"#utility.yul\":1283:1341   */\n  mstore\n    /* \"#utility.yul\":1375:1379   */\n  0x7373000000000000000000000000000000000000000000000000000000000000\n    /* \"#utility.yul\":1370:1372   */\n  0x20\n    /* \"#utility.yul\":1362:1368   */\n  dup3\n    /* \"#utility.yul\":1358:1373   */\n  add\n    /* \"#utility.yul\":1351:1380   */\n  mstore\n    /* \"#utility.yul\":1166:1387   */\n  pop\n  jump\t// out\n    /* \"#utility.yul\":1393:1759   */\ntag_21:\n    /* \"#utility.yul\":1535:1538   */\n  0x00\n    /* \"#utility.yul\":1556:1623   */\n  tag_32\n    /* \"#utility.yul\":1620:1622   */\n  0x22\n    /* \"#utility.yul\":1615:1618   */\n  dup4\n    /* \"#utility.yul\":1556:1623   */\n  tag_17\n  jump\t// in\ntag_32:\n    /* \"#utility.yul\":1549:1623   */\n  swap2\n  pop\n    /* \"#utility.yul\":1632:1725   */\n  tag_33\n    /* \"#utility.yul\":1721:1724   */\n  dup3\n    /* \"#utility.yul\":1632:1725   */\n  tag_20\n  jump\t// in\ntag_33:\n    /* \"#utility.yul\":1750:1752   */\n  0x40\n    /* \"#utility.yul\":1745:1748   */\n  dup3\n    /* \"#utility.yul\":1741:1753   */\n  add\n    /* \"#utility.yul\":1734:1753   */\n  swap1\n  pop\n    /* \"#utility.yul\":1393:1759   */\n  swap2\n  swap1\n  pop\n  jump\t// out\n    /* \"#utility.yul\":1765:2184   */\ntag_16:\n    /* \"#utility.yul\":1931:1935   */\n  0x00\n    /* \"#utility.yul\":1969:1971   */\n  0x20\n    /* \"#utility.yul\":1958:1967   */\n  dup3\n    /* \"#utility.yul\":1954:1972   */\n  add\n    /* \"#utility.yul\":1946:1972   */\n  swap1\n  pop\n    /* \"#utility.yul\":2018:2027   */\n  dup2\n    /* \"#utility.yul\":2012:2016   */\n  dup2\n    /* \"#utility.yul\":2008:2028   */\n  sub\n    /* \"#utility.yul\":2004:2005   */\n  0x00\n    /* \"#utility.yul\":1993:2002   */\n  dup4\n    /* \"#utility.yul\":1989:2006   */\n  add\n    /* \"#utility.yul\":1982:2029   */\n  mstore\n    /* \"#utility.yul\":2046:2177   */\n  tag_35\n    /* \"#utility.yul\":2172:2176   */\n  dup2\n    /* \"#utility.yul\":2046:2177   */\n  tag_21\n  jump\t// in\ntag_35:\n    /* \"#utility.yul\":2038:2177   */\n  swap1\n  pop\n    /* \"#utility.yul\":1765:2184   */\n  swap2\n  swap1\n  pop\n  jump\t// out\n    /* \"Contract.sol\":1039:7438  contract Contract... */\ntag_6:\n  dataSize(sub_0)\n  dup1\n  dataOffset(sub_0)\n  0x00\n  codecopy\n  0x00\n  return\nstop\n\nsub_0: assembly {\n        /* \"Contract.sol\":1039:7438  contract Contract... */\n      mstore(0x40, 0x80)\n      callvalue\n      dup1\n      iszero\n      tag_1\n      jumpi\n      0x00\n      dup1\n      revert\n    tag_1:\n      pop\n      jumpi(tag_2, lt(calldatasize, 0x04))\n      shr(0xe0, calldataload(0x00))\n      dup1\n      0x37b16b50\n      gt\n      tag_19\n      jumpi\n      dup1\n      0x996440c6\n      gt\n      tag_20\n      jumpi\n      dup1\n      0x996440c6\n      eq\n      tag_15\n      jumpi\n      dup1\n      0xa71aefc9\n      eq\n      tag_16\n      jumpi\n      dup1\n      0xbabb1d41\n      eq\n      tag_17\n      jumpi\n      dup1\n      0xf851a440\n      eq\n      tag_18\n      jumpi\n      jump(tag_2)\n    tag_20:\n      dup1\n      0x37b16b50\n      eq\n      tag_11\n      jumpi\n      dup1\n      0x6e9960c3\n      eq\n      tag_12\n      jumpi\n      dup1\n      0x8f9c79ed\n      eq\n      tag_13\n      jumpi\n      dup1\n      0x9429e171\n      eq\n      tag_14\n      jumpi\n      jump(tag_2)\n    tag_19:\n      dup1\n      0x1f21a79d\n      gt\n      tag_21\n      jumpi\n      dup1\n      0x1f21a79d\n      eq\n      tag_7\n      jumpi\n      dup1\n      0x2f04e064\n      eq\n      tag_8\n      jumpi\n      dup1\n      0x34b3e4f1\n      eq\n      tag_9\n      jumpi\n      dup1\n      0x34b78998\n      eq\n      tag_10\n      jumpi\n      jump(tag_2)\n    tag_21:\n      dup1\n      0x0c388722\n      eq\n      tag_3\n      jumpi\n      dup1\n      0x127ca4b4\n      eq\n      tag_4\n      jumpi\n      dup1\n      0x19da83a8\n      eq\n      tag_5\n      jumpi\n      dup1\n      0x1e175c40\n      eq\n      tag_6\n      jumpi\n    tag_2:\n      0x00\n      dup1\n      revert\n        /* \"Contract.sol\":5375:5654  function getMedicalRecord(uint recordNumber) public view notForAdmin returns(Record memory)... */\n    tag_3:\n      tag_22\n      0x04\n      dup1\n      calldatasize\n      sub\n      dup2\n      add\n      swap1\n      tag_23\n      swap2\n      swap1\n      tag_24\n      jump\t// in\n    tag_23:\n      tag_25\n      jump\t// in\n    tag_22:\n      mload(0x40)\n      tag_26\n      swap2\n      swap1\n      tag_27\n      jump\t// in\n    tag_26:\n      mload(0x40)\n      dup1\n      swap2\n      sub\n      swap1\n      return\n        /* \"Contract.sol\":2049:2076  address[] public doctorList */\n    tag_4:\n      tag_28\n      0x04\n      dup1\n      calldatasize\n      sub\n      dup2\n      add\n      swap1\n      tag_29\n      swap2\n      swap1\n      tag_24\n      jump\t// in\n    tag_29:\n      tag_30\n      jump\t// in\n    tag_28:\n      mload(0x40)\n      tag_31\n      swap2\n      swap1\n      tag_32\n      jump\t// in\n    tag_31:\n      mload(0x40)\n      dup1\n      swap2\n      sub\n      swap1\n      return\n        /* \"Contract.sol\":2016:2042  Record[] public recordList */\n    tag_5:\n      tag_33\n      0x04\n      dup1\n      calldatasize\n      sub\n      dup2\n      add\n      swap1\n      tag_34\n      swap2\n      swap1\n      tag_24\n      jump\t// in\n    tag_34:\n      tag_35\n      jump\t// in\n    tag_33:\n      mload(0x40)\n      tag_36\n      swap5\n      swap4\n      swap3\n      swap2\n      swap1\n      tag_37\n      jump\t// in\n    tag_36:\n      mload(0x40)\n      dup1\n      swap2\n      sub\n      swap1\n      return\n        /* \"Contract.sol\":4985:5336  function getRecordNumbers() public view assignablesOnly(msg.sender) notForAdmin returns(uint[] memory)... */\n    tag_6:\n      tag_38\n      tag_39\n      jump\t// in\n    tag_38:\n      mload(0x40)\n      tag_40\n      swap2\n      swap1\n      tag_41\n      jump\t// in\n    tag_40:\n      mload(0x40)\n      dup1\n      swap2\n      sub\n      swap1\n      return\n        /* \"Contract.sol\":4250:4952  function createRecord(address patientAddress, string memory patientHistoryDescription) public doctorOnly assignedDoctorOnly(patientAddress) notForAdmin... */\n    tag_7:\n      tag_42\n      0x04\n      dup1\n      calldatasize\n      sub\n      dup2\n      add\n      swap1\n      tag_43\n      swap2\n      swap1\n      tag_44\n      jump\t// in\n    tag_43:\n      tag_45\n      jump\t// in\n    tag_42:\n      stop\n        /* \"Contract.sol\":2932:3190  function getDoctor(address doctorAddress) public view returns(string memory, string memory)... */\n    tag_8:\n      tag_46\n      0x04\n      dup1\n      calldatasize\n      sub\n      dup2\n      add\n      swap1\n      tag_47\n      swap2\n      swap1\n      tag_48\n      jump\t// in\n    tag_47:\n      tag_49\n      jump\t// in\n    tag_46:\n      mload(0x40)\n      tag_50\n      swap3\n      swap2\n      swap1\n      tag_51\n      jump\t// in\n    tag_50:\n      mload(0x40)\n      dup1\n      swap2\n      sub\n      swap1\n      return\n        /* \"Contract.sol\":5687:6323  function createAppointment... */\n    tag_9:\n      tag_52\n      0x04\n      dup1\n      calldatasize\n      sub\n      dup2\n      add\n      swap1\n      tag_53\n      swap2\n      swap1\n      tag_54\n      jump\t// in\n    tag_53:\n      tag_55\n      jump\t// in\n    tag_52:\n      stop\n        /* \"Contract.sol\":2358:2819  function addDoctor(address doctorAddress, string memory doctorName, string memory phoneNumber) public adminOnly... */\n    tag_10:\n      tag_56\n      0x04\n      dup1\n      calldatasize\n      sub\n      dup2\n      add\n      swap1\n      tag_57\n      swap2\n      swap1\n      tag_58\n      jump\t// in\n    tag_57:\n      tag_59\n      jump\t// in\n    tag_56:\n      stop\n        /* \"Contract.sol\":3216:3693  function addPatient(address patientAddress, string memory patientName, string memory phoneNumber) public adminOnly... */\n    tag_11:\n      tag_60\n      0x04\n      dup1\n      calldatasize\n      sub\n      dup2\n      add\n      swap1\n      tag_61\n      swap2\n      swap1\n      tag_58\n      jump\t// in\n    tag_61:\n      tag_62\n      jump\t// in\n    tag_60:\n      stop\n        /* \"Contract.sol\":2251:2333  function getAdmin() public view returns(address)... */\n    tag_12:\n      tag_63\n      tag_64\n      jump\t// in\n    tag_63:\n      mload(0x40)\n      tag_65\n      swap2\n      swap1\n      tag_32\n      jump\t// in\n    tag_65:\n      mload(0x40)\n      dup1\n      swap2\n      sub\n      swap1\n      return\n        /* \"Contract.sol\":4090:4214  function isPatient(address givenAddress) public view returns(bool)... */\n    tag_13:\n      tag_66\n      0x04\n      dup1\n      calldatasize\n      sub\n      dup2\n      add\n      swap1\n      tag_67\n      swap2\n      swap1\n      tag_48\n      jump\t// in\n    tag_67:\n      tag_68\n      jump\t// in\n    tag_66:\n      mload(0x40)\n      tag_69\n      swap2\n      swap1\n      tag_70\n      jump\t// in\n    tag_69:\n      mload(0x40)\n      dup1\n      swap2\n      sub\n      swap1\n      return\n        /* \"Contract.sol\":3747:3902  function assign(address doctorAddress, address patientAddress) public adminOnly... */\n    tag_14:\n      tag_71\n      0x04\n      dup1\n      calldatasize\n      sub\n      dup2\n      add\n      swap1\n      tag_72\n      swap2\n      swap1\n      tag_73\n      jump\t// in\n    tag_72:\n      tag_74\n      jump\t// in\n    tag_71:\n      stop\n        /* \"Contract.sol\":3934:4056  function isDoctor(address givenAddress) public view returns(bool)... */\n    tag_15:\n      tag_75\n      0x04\n      dup1\n      calldatasize\n      sub\n      dup2\n      add\n      swap1\n      tag_76\n      swap2\n      swap1\n      tag_48\n      jump\t// in\n    tag_76:\n      tag_77\n      jump\t// in\n    tag_75:\n      mload(0x40)\n      tag_78\n      swap2\n      swap1\n      tag_70\n      jump\t// in\n    tag_78:\n      mload(0x40)\n      dup1\n      swap2\n      sub\n      swap1\n      return\n        /* \"Contract.sol\":2825:2926  function getDoctorList() public view returns(address[] memory)... */\n    tag_16:\n      tag_79\n      tag_80\n      jump\t// in\n    tag_79:\n      mload(0x40)\n      tag_81\n      swap2\n      swap1\n      tag_82\n      jump\t// in\n    tag_81:\n      mload(0x40)\n      dup1\n      swap2\n      sub\n      swap1\n      return\n        /* \"Contract.sol\":2082:2110  address[] public patientList */\n    tag_17:\n      tag_83\n      0x04\n      dup1\n      calldatasize\n      sub\n      dup2\n      add\n      swap1\n      tag_84\n      swap2\n      swap1\n      tag_24\n      jump\t// in\n    tag_84:\n      tag_85\n      jump\t// in\n    tag_83:\n      mload(0x40)\n      tag_86\n      swap2\n      swap1\n      tag_32\n      jump\t// in\n    tag_86:\n      mload(0x40)\n      dup1\n      swap2\n      sub\n      swap1\n      return\n        /* \"Contract.sol\":2117:2137  address public admin */\n    tag_18:\n      tag_87\n      tag_88\n      jump\t// in\n    tag_87:\n      mload(0x40)\n      tag_89\n      swap2\n      swap1\n      tag_32\n      jump\t// in\n    tag_89:\n      mload(0x40)\n      dup1\n      swap2\n      sub\n      swap1\n      return\n        /* \"Contract.sol\":5375:5654  function getMedicalRecord(uint recordNumber) public view notForAdmin returns(Record memory)... */\n    tag_25:\n        /* \"Contract.sol\":5452:5465  Record memory */\n      tag_91\n      tag_92\n      jump\t// in\n    tag_91:\n        /* \"Contract.sol\":7375:7400  adminRole.has(msg.sender) */\n      tag_94\n        /* \"Contract.sol\":7389:7399  msg.sender */\n      caller\n        /* \"Contract.sol\":7375:7384  adminRole */\n      0x00\n        /* \"Contract.sol\":7375:7388  adminRole.has */\n      tag_95\n      swap1\n        /* \"Contract.sol\":7375:7400  adminRole.has(msg.sender) */\n      swap2\n      swap1\n      0xffffffff\n      and\n      jump\t// in\n    tag_94:\n        /* \"Contract.sol\":7374:7400  !adminRole.has(msg.sender) */\n      iszero\n        /* \"Contract.sol\":7366:7418  require(!adminRole.has(msg.sender), 'Not for admin') */\n      tag_96\n      jumpi\n      mload(0x40)\n      0x08c379a000000000000000000000000000000000000000000000000000000000\n      dup2\n      mstore\n      0x04\n      add\n      tag_97\n      swap1\n      tag_98\n      jump\t// in\n    tag_97:\n      mload(0x40)\n      dup1\n      swap2\n      sub\n      swap1\n      revert\n    tag_96:\n        /* \"Contract.sol\":5481:5501  Record memory record */\n      0x00\n        /* \"Contract.sol\":5504:5514  recordList */\n      0x07\n        /* \"Contract.sol\":5515:5527  recordNumber */\n      dup4\n        /* \"Contract.sol\":5504:5528  recordList[recordNumber] */\n      dup2\n      sload\n      dup2\n      lt\n      tag_100\n      jumpi\n      tag_101\n      tag_102\n      jump\t// in\n    tag_101:\n    tag_100:\n      swap1\n      0x00\n      mstore\n      keccak256(0x00, 0x20)\n      swap1\n      0x05\n      mul\n      add\n        /* \"Contract.sol\":5481:5528  Record memory record = recordList[recordNumber] */\n      mload(0x40)\n      dup1\n      0xa0\n      add\n      0x40\n      mstore\n      swap1\n      dup2\n      0x00\n      dup3\n      add\n      sload\n      dup2\n      mstore\n      0x20\n      add\n      0x01\n      dup3\n      add\n      0x00\n      swap1\n      sload\n      swap1\n      0x0100\n      exp\n      swap1\n      div\n      0xffffffffffffffffffffffffffffffffffffffff\n      and\n      0xffffffffffffffffffffffffffffffffffffffff\n      and\n      0xffffffffffffffffffffffffffffffffffffffff\n      and\n      dup2\n      mstore\n      0x20\n      add\n      0x02\n      dup3\n      add\n      0x00\n      swap1\n      sload\n      swap1\n      0x0100\n      exp\n      swap1\n      div\n      0xffffffffffffffffffffffffffffffffffffffff\n      and\n      0xffffffffffffffffffffffffffffffffffffffff\n      and\n      0xffffffffffffffffffffffffffffffffffffffff\n      and\n      dup2\n      mstore\n      0x20\n      add\n      0x03\n      dup3\n      add\n      dup1\n      sload\n      tag_104\n      swap1\n      tag_105\n      jump\t// in\n    tag_104:\n      dup1\n      0x1f\n      add\n      0x20\n      dup1\n      swap2\n      div\n      mul\n      0x20\n      add\n      mload(0x40)\n      swap1\n      dup2\n      add\n      0x40\n      mstore\n      dup1\n      swap3\n      swap2\n      swap1\n      dup2\n      dup2\n      mstore\n      0x20\n      add\n      dup3\n      dup1\n      sload\n      tag_106\n      swap1\n      tag_105\n      jump\t// in\n    tag_106:\n      dup1\n      iszero\n      tag_107\n      jumpi\n      dup1\n      0x1f\n      lt\n      tag_108\n      jumpi\n      0x0100\n      dup1\n      dup4\n      sload\n      div\n      mul\n      dup4\n      mstore\n      swap2\n      0x20\n      add\n      swap2\n      jump(tag_107)\n    tag_108:\n      dup3\n      add\n      swap2\n      swap1\n      0x00\n      mstore\n      keccak256(0x00, 0x20)\n      swap1\n    tag_109:\n      dup2\n      sload\n      dup2\n      mstore\n      swap1\n      0x01\n      add\n      swap1\n      0x20\n      add\n      dup1\n      dup4\n      gt\n      tag_109\n      jumpi\n      dup3\n      swap1\n      sub\n      0x1f\n      and\n      dup3\n      add\n      swap2\n    tag_107:\n      pop\n      pop\n      pop\n      pop\n      pop\n      dup2\n      mstore\n      0x20\n      add\n      0x04\n      dup3\n      add\n      dup1\n      sload\n      dup1\n      0x20\n      mul\n      0x20\n      add\n      mload(0x40)\n      swap1\n      dup2\n      add\n      0x40\n      mstore\n      dup1\n      swap3\n      swap2\n      swap1\n      dup2\n      dup2\n      mstore\n      0x20\n      add\n      dup3\n      dup1\n      sload\n      dup1\n      iszero\n      tag_110\n      jumpi\n      0x20\n      mul\n      dup3\n      add\n      swap2\n      swap1\n      0x00\n      mstore\n      keccak256(0x00, 0x20)\n      swap1\n    tag_111:\n      dup2\n      sload\n      dup2\n      mstore\n      0x20\n      add\n      swap1\n      0x01\n      add\n      swap1\n      dup1\n      dup4\n      gt\n      tag_111\n      jumpi\n    tag_110:\n      pop\n      pop\n      pop\n      pop\n      pop\n      dup2\n      mstore\n      pop\n      pop\n      swap1\n      pop\n        /* \"Contract.sol\":5573:5583  msg.sender */\n      caller\n        /* \"Contract.sol\":5548:5583  record.patientAddress == msg.sender */\n      0xffffffffffffffffffffffffffffffffffffffff\n      and\n        /* \"Contract.sol\":5548:5554  record */\n      dup2\n        /* \"Contract.sol\":5548:5569  record.patientAddress */\n      0x40\n      add\n      mload\n        /* \"Contract.sol\":5548:5583  record.patientAddress == msg.sender */\n      0xffffffffffffffffffffffffffffffffffffffff\n      and\n      eq\n        /* \"Contract.sol\":5548:5621  record.patientAddress == msg.sender || record.doctorAddress == msg.sender */\n      dup1\n      tag_112\n      jumpi\n      pop\n        /* \"Contract.sol\":5611:5621  msg.sender */\n      caller\n        /* \"Contract.sol\":5587:5621  record.doctorAddress == msg.sender */\n      0xffffffffffffffffffffffffffffffffffffffff\n      and\n        /* \"Contract.sol\":5587:5593  record */\n      dup2\n        /* \"Contract.sol\":5587:5607  record.doctorAddress */\n      0x20\n      add\n      mload\n        /* \"Contract.sol\":5587:5621  record.doctorAddress == msg.sender */\n      0xffffffffffffffffffffffffffffffffffffffff\n      and\n      eq\n        /* \"Contract.sol\":5548:5621  record.patientAddress == msg.sender || record.doctorAddress == msg.sender */\n    tag_112:\n        /* \"Contract.sol\":5539:5623  require((record.patientAddress == msg.sender || record.doctorAddress == msg.sender)) */\n      tag_113\n      jumpi\n      0x00\n      dup1\n      revert\n    tag_113:\n        /* \"Contract.sol\":5641:5647  record */\n      dup1\n        /* \"Contract.sol\":5634:5647  return record */\n      swap2\n      pop\n      pop\n        /* \"Contract.sol\":5375:5654  function getMedicalRecord(uint recordNumber) public view notForAdmin returns(Record memory)... */\n      swap2\n      swap1\n      pop\n      jump\t// out\n        /* \"Contract.sol\":2049:2076  address[] public doctorList */\n    tag_30:\n      0x08\n      dup2\n      dup2\n      sload\n      dup2\n      lt\n      tag_114\n      jumpi\n      0x00\n      dup1\n      revert\n    tag_114:\n      swap1\n      0x00\n      mstore\n      keccak256(0x00, 0x20)\n      add\n      0x00\n      swap2\n      pop\n      sload\n      swap1\n      0x0100\n      exp\n      swap1\n      div\n      0xffffffffffffffffffffffffffffffffffffffff\n      and\n      dup2\n      jump\t// out\n        /* \"Contract.sol\":2016:2042  Record[] public recordList */\n    tag_35:\n      0x07\n      dup2\n      dup2\n      sload\n      dup2\n      lt\n      tag_116\n      jumpi\n      0x00\n      dup1\n      revert\n    tag_116:\n      swap1\n      0x00\n      mstore\n      keccak256(0x00, 0x20)\n      swap1\n      0x05\n      mul\n      add\n      0x00\n      swap2\n      pop\n      swap1\n      pop\n      dup1\n      0x00\n      add\n      sload\n      swap1\n      dup1\n      0x01\n      add\n      0x00\n      swap1\n      sload\n      swap1\n      0x0100\n      exp\n      swap1\n      div\n      0xffffffffffffffffffffffffffffffffffffffff\n      and\n      swap1\n      dup1\n      0x02\n      add\n      0x00\n      swap1\n      sload\n      swap1\n      0x0100\n      exp\n      swap1\n      div\n      0xffffffffffffffffffffffffffffffffffffffff\n      and\n      swap1\n      dup1\n      0x03\n      add\n      dup1\n      sload\n      tag_118\n      swap1\n      tag_105\n      jump\t// in\n    tag_118:\n      dup1\n      0x1f\n      add\n      0x20\n      dup1\n      swap2\n      div\n      mul\n      0x20\n      add\n      mload(0x40)\n      swap1\n      dup2\n      add\n      0x40\n      mstore\n      dup1\n      swap3\n      swap2\n      swap1\n      dup2\n      dup2\n      mstore\n      0x20\n      add\n      dup3\n      dup1\n      sload\n      tag_119\n      swap1\n      tag_105\n      jump\t// in\n    tag_119:\n      dup1\n      iszero\n      tag_120\n      jumpi\n      dup1\n      0x1f\n      lt\n      tag_121\n      jumpi\n      0x0100\n      dup1\n      dup4\n      sload\n      div\n      mul\n      dup4\n      mstore\n      swap2\n      0x20\n      add\n      swap2\n      jump(tag_120)\n    tag_121:\n      dup3\n      add\n      swap2\n      swap1\n      0x00\n      mstore\n      keccak256(0x00, 0x20)\n      swap1\n    tag_122:\n      dup2\n      sload\n      dup2\n      mstore\n      swap1\n      0x01\n      add\n      swap1\n      0x20\n      add\n      dup1\n      dup4\n      gt\n      tag_122\n      jumpi\n      dup3\n      swap1\n      sub\n      0x1f\n      and\n      dup3\n      add\n      swap2\n    tag_120:\n      pop\n      pop\n      pop\n      pop\n      pop\n      swap1\n      pop\n      dup5\n      jump\t// out\n        /* \"Contract.sol\":4985:5336  function getRecordNumbers() public view assignablesOnly(msg.sender) notForAdmin returns(uint[] memory)... */\n    tag_39:\n        /* \"Contract.sol\":5073:5086  uint[] memory */\n      0x60\n        /* \"Contract.sol\":5041:5051  msg.sender */\n      caller\n        /* \"Contract.sol\":7243:7271  doctorRole.has(givenAddress) */\n      tag_124\n        /* \"Contract.sol\":7258:7270  givenAddress */\n      dup2\n        /* \"Contract.sol\":7243:7253  doctorRole */\n      0x01\n        /* \"Contract.sol\":7243:7257  doctorRole.has */\n      tag_95\n      swap1\n        /* \"Contract.sol\":7243:7271  doctorRole.has(givenAddress) */\n      swap2\n      swap1\n      0xffffffff\n      and\n      jump\t// in\n    tag_124:\n        /* \"Contract.sol\":7243:7304  doctorRole.has(givenAddress) || patientRole.has(givenAddress) */\n      dup1\n      tag_125\n      jumpi\n      pop\n        /* \"Contract.sol\":7275:7304  patientRole.has(givenAddress) */\n      tag_126\n        /* \"Contract.sol\":7291:7303  givenAddress */\n      dup2\n        /* \"Contract.sol\":7275:7286  patientRole */\n      0x02\n        /* \"Contract.sol\":7275:7290  patientRole.has */\n      tag_95\n      swap1\n        /* \"Contract.sol\":7275:7304  patientRole.has(givenAddress) */\n      swap2\n      swap1\n      0xffffffff\n      and\n      jump\t// in\n    tag_126:\n        /* \"Contract.sol\":7243:7304  doctorRole.has(givenAddress) || patientRole.has(givenAddress) */\n    tag_125:\n        /* \"Contract.sol\":7235:7305  require(doctorRole.has(givenAddress) || patientRole.has(givenAddress)) */\n      tag_127\n      jumpi\n      0x00\n      dup1\n      revert\n    tag_127:\n        /* \"Contract.sol\":7375:7400  adminRole.has(msg.sender) */\n      tag_129\n        /* \"Contract.sol\":7389:7399  msg.sender */\n      caller\n        /* \"Contract.sol\":7375:7384  adminRole */\n      0x00\n        /* \"Contract.sol\":7375:7388  adminRole.has */\n      tag_95\n      swap1\n        /* \"Contract.sol\":7375:7400  adminRole.has(msg.sender) */\n      swap2\n      swap1\n      0xffffffff\n      and\n      jump\t// in\n    tag_129:\n        /* \"Contract.sol\":7374:7400  !adminRole.has(msg.sender) */\n      iszero\n        /* \"Contract.sol\":7366:7418  require(!adminRole.has(msg.sender), 'Not for admin') */\n      tag_130\n      jumpi\n      mload(0x40)\n      0x08c379a000000000000000000000000000000000000000000000000000000000\n      dup2\n      mstore\n      0x04\n      add\n      tag_131\n      swap1\n      tag_98\n      jump\t// in\n    tag_131:\n      mload(0x40)\n      dup1\n      swap2\n      sub\n      swap1\n      revert\n    tag_130:\n        /* \"Contract.sol\":5105:5131  doctorRole.has(msg.sender) */\n      tag_133\n        /* \"Contract.sol\":5120:5130  msg.sender */\n      caller\n        /* \"Contract.sol\":5105:5115  doctorRole */\n      0x01\n        /* \"Contract.sol\":5105:5119  doctorRole.has */\n      tag_95\n      swap1\n        /* \"Contract.sol\":5105:5131  doctorRole.has(msg.sender) */\n      swap2\n      swap1\n      0xffffffff\n      and\n      jump\t// in\n    tag_133:\n        /* \"Contract.sol\":5102:5330  if(doctorRole.has(msg.sender))... */\n      iszero\n      tag_134\n      jumpi\n        /* \"Contract.sol\":5162:5184  addressToDoctorMapping */\n      0x03\n        /* \"Contract.sol\":5162:5196  addressToDoctorMapping[msg.sender] */\n      0x00\n        /* \"Contract.sol\":5185:5195  msg.sender */\n      caller\n        /* \"Contract.sol\":5162:5196  addressToDoctorMapping[msg.sender] */\n      0xffffffffffffffffffffffffffffffffffffffff\n      and\n      0xffffffffffffffffffffffffffffffffffffffff\n      and\n      dup2\n      mstore\n      0x20\n      add\n      swap1\n      dup2\n      mstore\n      0x20\n      add\n      0x00\n      keccak256\n        /* \"Contract.sol\":5162:5213  addressToDoctorMapping[msg.sender].recordNumberList */\n      0x02\n      add\n        /* \"Contract.sol\":5155:5213  return addressToDoctorMapping[msg.sender].recordNumberList */\n      dup1\n      sload\n      dup1\n      0x20\n      mul\n      0x20\n      add\n      mload(0x40)\n      swap1\n      dup2\n      add\n      0x40\n      mstore\n      dup1\n      swap3\n      swap2\n      swap1\n      dup2\n      dup2\n      mstore\n      0x20\n      add\n      dup3\n      dup1\n      sload\n      dup1\n      iszero\n      tag_135\n      jumpi\n      0x20\n      mul\n      dup3\n      add\n      swap2\n      swap1\n      0x00\n      mstore\n      keccak256(0x00, 0x20)\n      swap1\n    tag_136:\n      dup2\n      sload\n      dup2\n      mstore\n      0x20\n      add\n      swap1\n      0x01\n      add\n      swap1\n      dup1\n      dup4\n      gt\n      tag_136\n      jumpi\n    tag_135:\n      pop\n      pop\n      pop\n      pop\n      pop\n      swap2\n      pop\n      jump(tag_132)\n        /* \"Contract.sol\":5102:5330  if(doctorRole.has(msg.sender))... */\n    tag_134:\n        /* \"Contract.sol\":5267:5290  addressToPatientMapping */\n      0x04\n        /* \"Contract.sol\":5267:5302  addressToPatientMapping[msg.sender] */\n      0x00\n        /* \"Contract.sol\":5291:5301  msg.sender */\n      caller\n        /* \"Contract.sol\":5267:5302  addressToPatientMapping[msg.sender] */\n      0xffffffffffffffffffffffffffffffffffffffff\n      and\n      0xffffffffffffffffffffffffffffffffffffffff\n      and\n      dup2\n      mstore\n      0x20\n      add\n      swap1\n      dup2\n      mstore\n      0x20\n      add\n      0x00\n      keccak256\n        /* \"Contract.sol\":5267:5319  addressToPatientMapping[msg.sender].recordNumberList */\n      0x02\n      add\n        /* \"Contract.sol\":5260:5319  return addressToPatientMapping[msg.sender].recordNumberList */\n      dup1\n      sload\n      dup1\n      0x20\n      mul\n      0x20\n      add\n      mload(0x40)\n      swap1\n      dup2\n      add\n      0x40\n      mstore\n      dup1\n      swap3\n      swap2\n      swap1\n      dup2\n      dup2\n      mstore\n      0x20\n      add\n      dup3\n      dup1\n      sload\n      dup1\n      iszero\n      tag_138\n      jumpi\n      0x20\n      mul\n      dup3\n      add\n      swap2\n      swap1\n      0x00\n      mstore\n      keccak256(0x00, 0x20)\n      swap1\n    tag_139:\n      dup2\n      sload\n      dup2\n      mstore\n      0x20\n      add\n      swap1\n      0x01\n      add\n      swap1\n      dup1\n      dup4\n      gt\n      tag_139\n      jumpi\n    tag_138:\n      pop\n      pop\n      pop\n      pop\n      pop\n      swap2\n      pop\n        /* \"Contract.sol\":7428:7429  _ */\n    tag_132:\n        /* \"Contract.sol\":4985:5336  function getRecordNumbers() public view assignablesOnly(msg.sender) notForAdmin returns(uint[] memory)... */\n      pop\n      swap1\n      jump\t// out\n        /* \"Contract.sol\":4250:4952  function createRecord(address patientAddress, string memory patientHistoryDescription) public doctorOnly assignedDoctorOnly(patientAddress) notForAdmin... */\n    tag_45:\n        /* \"Contract.sol\":6816:6820  true */\n      0x01\n        /* \"Contract.sol\":6786:6820  doctorRole.has(msg.sender) == true */\n      iszero\n      iszero\n        /* \"Contract.sol\":6786:6812  doctorRole.has(msg.sender) */\n      tag_141\n        /* \"Contract.sol\":6801:6811  msg.sender */\n      caller\n        /* \"Contract.sol\":6786:6796  doctorRole */\n      0x01\n        /* \"Contract.sol\":6786:6800  doctorRole.has */\n      tag_95\n      swap1\n        /* \"Contract.sol\":6786:6812  doctorRole.has(msg.sender) */\n      swap2\n      swap1\n      0xffffffff\n      and\n      jump\t// in\n    tag_141:\n        /* \"Contract.sol\":6786:6820  doctorRole.has(msg.sender) == true */\n      iszero\n      iszero\n      eq\n        /* \"Contract.sol\":6778:6836  require(doctorRole.has(msg.sender) == true, 'Doctor only') */\n      tag_142\n      jumpi\n      mload(0x40)\n      0x08c379a000000000000000000000000000000000000000000000000000000000\n      dup2\n      mstore\n      0x04\n      add\n      tag_143\n      swap1\n      tag_144\n      jump\t// in\n    tag_143:\n      mload(0x40)\n      dup1\n      swap2\n      sub\n      swap1\n      revert\n    tag_142:\n        /* \"Contract.sol\":4374:4388  patientAddress */\n      dup2\n        /* \"Contract.sol\":7093:7107  patientAddress */\n      dup1\n        /* \"Contract.sol\":7055:7107  doctorToPatientMapping[msg.sender] == patientAddress */\n      0xffffffffffffffffffffffffffffffffffffffff\n      and\n        /* \"Contract.sol\":7055:7077  doctorToPatientMapping */\n      0x05\n        /* \"Contract.sol\":7055:7089  doctorToPatientMapping[msg.sender] */\n      0x00\n        /* \"Contract.sol\":7078:7088  msg.sender */\n      caller\n        /* \"Contract.sol\":7055:7089  doctorToPatientMapping[msg.sender] */\n      0xffffffffffffffffffffffffffffffffffffffff\n      and\n      0xffffffffffffffffffffffffffffffffffffffff\n      and\n      dup2\n      mstore\n      0x20\n      add\n      swap1\n      dup2\n      mstore\n      0x20\n      add\n      0x00\n      keccak256\n      0x00\n      swap1\n      sload\n      swap1\n      0x0100\n      exp\n      swap1\n      div\n      0xffffffffffffffffffffffffffffffffffffffff\n      and\n        /* \"Contract.sol\":7055:7107  doctorToPatientMapping[msg.sender] == patientAddress */\n      0xffffffffffffffffffffffffffffffffffffffff\n      and\n      eq\n        /* \"Contract.sol\":7047:7150  require(doctorToPatientMapping[msg.sender] == patientAddress, \"You haven't been assigned this patient\") */\n      tag_146\n      jumpi\n      mload(0x40)\n      0x08c379a000000000000000000000000000000000000000000000000000000000\n      dup2\n      mstore\n      0x04\n      add\n      tag_147\n      swap1\n      tag_148\n      jump\t// in\n    tag_147:\n      mload(0x40)\n      dup1\n      swap2\n      sub\n      swap1\n      revert\n    tag_146:\n        /* \"Contract.sol\":7375:7400  adminRole.has(msg.sender) */\n      tag_150\n        /* \"Contract.sol\":7389:7399  msg.sender */\n      caller\n        /* \"Contract.sol\":7375:7384  adminRole */\n      0x00\n        /* \"Contract.sol\":7375:7388  adminRole.has */\n      tag_95\n      swap1\n        /* \"Contract.sol\":7375:7400  adminRole.has(msg.sender) */\n      swap2\n      swap1\n      0xffffffff\n      and\n      jump\t// in\n    tag_150:\n        /* \"Contract.sol\":7374:7400  !adminRole.has(msg.sender) */\n      iszero\n        /* \"Contract.sol\":7366:7418  require(!adminRole.has(msg.sender), 'Not for admin') */\n      tag_151\n      jumpi\n      mload(0x40)\n      0x08c379a000000000000000000000000000000000000000000000000000000000\n      dup2\n      mstore\n      0x04\n      add\n      tag_152\n      swap1\n      tag_98\n      jump\t// in\n    tag_152:\n      mload(0x40)\n      dup1\n      swap2\n      sub\n      swap1\n      revert\n    tag_151:\n        /* \"Contract.sol\":4416:4436  Record memory record */\n      tag_154\n      tag_92\n      jump\t// in\n    tag_154:\n        /* \"Contract.sol\":4469:4479  recordList */\n      0x07\n        /* \"Contract.sol\":4469:4486  recordList.length */\n      dup1\n      sload\n      swap1\n      pop\n        /* \"Contract.sol\":4447:4453  record */\n      dup2\n        /* \"Contract.sol\":4447:4466  record.recordNumber */\n      0x00\n      add\n        /* \"Contract.sol\":4447:4486  record.recordNumber = recordList.length */\n      dup2\n      dup2\n      mstore\n      pop\n      pop\n        /* \"Contract.sol\":4519:4529  msg.sender */\n      caller\n        /* \"Contract.sol\":4496:4502  record */\n      dup2\n        /* \"Contract.sol\":4496:4516  record.doctorAddress */\n      0x20\n      add\n        /* \"Contract.sol\":4496:4529  record.doctorAddress = msg.sender */\n      swap1\n      0xffffffffffffffffffffffffffffffffffffffff\n      and\n      swap1\n      dup2\n      0xffffffffffffffffffffffffffffffffffffffff\n      and\n      dup2\n      mstore\n      pop\n      pop\n        /* \"Contract.sol\":4563:4577  patientAddress */\n      dup4\n        /* \"Contract.sol\":4539:4545  record */\n      dup2\n        /* \"Contract.sol\":4539:4560  record.patientAddress */\n      0x40\n      add\n        /* \"Contract.sol\":4539:4577  record.patientAddress = patientAddress */\n      swap1\n      0xffffffffffffffffffffffffffffffffffffffff\n      and\n      swap1\n      dup2\n      0xffffffffffffffffffffffffffffffffffffffff\n      and\n      dup2\n      mstore\n      pop\n      pop\n        /* \"Contract.sol\":4622:4647  patientHistoryDescription */\n      dup3\n        /* \"Contract.sol\":4587:4593  record */\n      dup2\n        /* \"Contract.sol\":4587:4619  record.patientHistoryDescription */\n      0x60\n      add\n        /* \"Contract.sol\":4587:4647  record.patientHistoryDescription = patientHistoryDescription */\n      dup2\n      swap1\n      mstore\n      pop\n        /* \"Contract.sol\":4658:4679  Doctor storage doctor */\n      0x00\n        /* \"Contract.sol\":4682:4704  addressToDoctorMapping */\n      0x03\n        /* \"Contract.sol\":4682:4716  addressToDoctorMapping[msg.sender] */\n      0x00\n        /* \"Contract.sol\":4705:4715  msg.sender */\n      caller\n        /* \"Contract.sol\":4682:4716  addressToDoctorMapping[msg.sender] */\n      0xffffffffffffffffffffffffffffffffffffffff\n      and\n      0xffffffffffffffffffffffffffffffffffffffff\n      and\n      dup2\n      mstore\n      0x20\n      add\n      swap1\n      dup2\n      mstore\n      0x20\n      add\n      0x00\n      keccak256\n        /* \"Contract.sol\":4658:4716  Doctor storage doctor = addressToDoctorMapping[msg.sender] */\n      swap1\n      pop\n        /* \"Contract.sol\":4726:4749  Patient storage patient */\n      0x00\n        /* \"Contract.sol\":4752:4775  addressToPatientMapping */\n      0x04\n        /* \"Contract.sol\":4752:4791  addressToPatientMapping[patientAddress] */\n      0x00\n        /* \"Contract.sol\":4776:4790  patientAddress */\n      dup8\n        /* \"Contract.sol\":4752:4791  addressToPatientMapping[patientAddress] */\n      0xffffffffffffffffffffffffffffffffffffffff\n      and\n      0xffffffffffffffffffffffffffffffffffffffff\n      and\n      dup2\n      mstore\n      0x20\n      add\n      swap1\n      dup2\n      mstore\n      0x20\n      add\n      0x00\n      keccak256\n        /* \"Contract.sol\":4726:4791  Patient storage patient = addressToPatientMapping[patientAddress] */\n      swap1\n      pop\n        /* \"Contract.sol\":4802:4808  doctor */\n      dup2\n        /* \"Contract.sol\":4802:4825  doctor.recordNumberList */\n      0x02\n      add\n        /* \"Contract.sol\":4831:4837  record */\n      dup4\n        /* \"Contract.sol\":4831:4850  record.recordNumber */\n      0x00\n      add\n      mload\n        /* \"Contract.sol\":4802:4851  doctor.recordNumberList.push(record.recordNumber) */\n      swap1\n      dup1\n      0x01\n      dup2\n      sload\n      add\n      dup1\n      dup3\n      sstore\n      dup1\n      swap2\n      pop\n      pop\n      0x01\n      swap1\n      sub\n      swap1\n      0x00\n      mstore\n      keccak256(0x00, 0x20)\n      add\n      0x00\n      swap1\n      swap2\n      swap1\n      swap2\n      swap1\n      swap2\n      pop\n      sstore\n        /* \"Contract.sol\":4861:4868  patient */\n      dup1\n        /* \"Contract.sol\":4861:4885  patient.recordNumberList */\n      0x02\n      add\n        /* \"Contract.sol\":4891:4897  record */\n      dup4\n        /* \"Contract.sol\":4891:4910  record.recordNumber */\n      0x00\n      add\n      mload\n        /* \"Contract.sol\":4861:4911  patient.recordNumberList.push(record.recordNumber) */\n      swap1\n      dup1\n      0x01\n      dup2\n      sload\n      add\n      dup1\n      dup3\n      sstore\n      dup1\n      swap2\n      pop\n      pop\n      0x01\n      swap1\n      sub\n      swap1\n      0x00\n      mstore\n      keccak256(0x00, 0x20)\n      add\n      0x00\n      swap1\n      swap2\n      swap1\n      swap2\n      swap1\n      swap2\n      pop\n      sstore\n        /* \"Contract.sol\":4922:4932  recordList */\n      0x07\n        /* \"Contract.sol\":4938:4944  record */\n      dup4\n        /* \"Contract.sol\":4922:4945  recordList.push(record) */\n      swap1\n      dup1\n      0x01\n      dup2\n      sload\n      add\n      dup1\n      dup3\n      sstore\n      dup1\n      swap2\n      pop\n      pop\n      0x01\n      swap1\n      sub\n      swap1\n      0x00\n      mstore\n      keccak256(0x00, 0x20)\n      swap1\n      0x05\n      mul\n      add\n      0x00\n      swap1\n      swap2\n      swap1\n      swap2\n      swap1\n      swap2\n      pop\n      0x00\n      dup3\n      add\n      mload\n      dup2\n      0x00\n      add\n      sstore\n      0x20\n      dup3\n      add\n      mload\n      dup2\n      0x01\n      add\n      exp(0x0100, 0x00)\n      dup2\n      sload\n      dup2\n      0xffffffffffffffffffffffffffffffffffffffff\n      mul\n      not\n      and\n      swap1\n      dup4\n      0xffffffffffffffffffffffffffffffffffffffff\n      and\n      mul\n      or\n      swap1\n      sstore\n      pop\n      0x40\n      dup3\n      add\n      mload\n      dup2\n      0x02\n      add\n      exp(0x0100, 0x00)\n      dup2\n      sload\n      dup2\n      0xffffffffffffffffffffffffffffffffffffffff\n      mul\n      not\n      and\n      swap1\n      dup4\n      0xffffffffffffffffffffffffffffffffffffffff\n      and\n      mul\n      or\n      swap1\n      sstore\n      pop\n      0x60\n      dup3\n      add\n      mload\n      dup2\n      0x03\n      add\n      swap1\n      dup2\n      tag_158\n      swap2\n      swap1\n      tag_159\n      jump\t// in\n    tag_158:\n      pop\n      0x80\n      dup3\n      add\n      mload\n      dup2\n      0x04\n      add\n      swap1\n      dup1\n      mload\n      swap1\n      0x20\n      add\n      swap1\n      tag_160\n      swap3\n      swap2\n      swap1\n      tag_161\n      jump\t// in\n    tag_160:\n      pop\n      pop\n      pop\n        /* \"Contract.sol\":4406:4952  {... */\n      pop\n      pop\n      pop\n        /* \"Contract.sol\":6846:6847  _ */\n      pop\n        /* \"Contract.sol\":4250:4952  function createRecord(address patientAddress, string memory patientHistoryDescription) public doctorOnly assignedDoctorOnly(patientAddress) notForAdmin... */\n      pop\n      pop\n      jump\t// out\n        /* \"Contract.sol\":2932:3190  function getDoctor(address doctorAddress) public view returns(string memory, string memory)... */\n    tag_49:\n        /* \"Contract.sol\":2994:3007  string memory */\n      0x60\n        /* \"Contract.sol\":3009:3022  string memory */\n      dup1\n        /* \"Contract.sol\":3038:3058  Doctor memory doctor */\n      0x00\n        /* \"Contract.sol\":3061:3083  addressToDoctorMapping */\n      0x03\n        /* \"Contract.sol\":3061:3098  addressToDoctorMapping[doctorAddress] */\n      0x00\n        /* \"Contract.sol\":3084:3097  doctorAddress */\n      dup6\n        /* \"Contract.sol\":3061:3098  addressToDoctorMapping[doctorAddress] */\n      0xffffffffffffffffffffffffffffffffffffffff\n      and\n      0xffffffffffffffffffffffffffffffffffffffff\n      and\n      dup2\n      mstore\n      0x20\n      add\n      swap1\n      dup2\n      mstore\n      0x20\n      add\n      0x00\n      keccak256\n        /* \"Contract.sol\":3038:3098  Doctor memory doctor = addressToDoctorMapping[doctorAddress] */\n      mload(0x40)\n      dup1\n      0x60\n      add\n      0x40\n      mstore\n      swap1\n      dup2\n      0x00\n      dup3\n      add\n      dup1\n      sload\n      tag_163\n      swap1\n      tag_105\n      jump\t// in\n    tag_163:\n      dup1\n      0x1f\n      add\n      0x20\n      dup1\n      swap2\n      div\n      mul\n      0x20\n      add\n      mload(0x40)\n      swap1\n      dup2\n      add\n      0x40\n      mstore\n      dup1\n      swap3\n      swap2\n      swap1\n      dup2\n      dup2\n      mstore\n      0x20\n      add\n      dup3\n      dup1\n      sload\n      tag_164\n      swap1\n      tag_105\n      jump\t// in\n    tag_164:\n      dup1\n      iszero\n      tag_165\n      jumpi\n      dup1\n      0x1f\n      lt\n      tag_166\n      jumpi\n      0x0100\n      dup1\n      dup4\n      sload\n      div\n      mul\n      dup4\n      mstore\n      swap2\n      0x20\n      add\n      swap2\n      jump(tag_165)\n    tag_166:\n      dup3\n      add\n      swap2\n      swap1\n      0x00\n      mstore\n      keccak256(0x00, 0x20)\n      swap1\n    tag_167:\n      dup2\n      sload\n      dup2\n      mstore\n      swap1\n      0x01\n      add\n      swap1\n      0x20\n      add\n      dup1\n      dup4\n      gt\n      tag_167\n      jumpi\n      dup3\n      swap1\n      sub\n      0x1f\n      and\n      dup3\n      add\n      swap2\n    tag_165:\n      pop\n      pop\n      pop\n      pop\n      pop\n      dup2\n      mstore\n      0x20\n      add\n      0x01\n      dup3\n      add\n      dup1\n      sload\n      tag_168\n      swap1\n      tag_105\n      jump\t// in\n    tag_168:\n      dup1\n      0x1f\n      add\n      0x20\n      dup1\n      swap2\n      div\n      mul\n      0x20\n      add\n      mload(0x40)\n      swap1\n      dup2\n      add\n      0x40\n      mstore\n      dup1\n      swap3\n      swap2\n      swap1\n      dup2\n      dup2\n      mstore\n      0x20\n      add\n      dup3\n      dup1\n      sload\n      tag_169\n      swap1\n      tag_105\n      jump\t// in\n    tag_169:\n      dup1\n      iszero\n      tag_170\n      jumpi\n      dup1\n      0x1f\n      lt\n      tag_171\n      jumpi\n      0x0100\n      dup1\n      dup4\n      sload\n      div\n      mul\n      dup4\n      mstore\n      swap2\n      0x20\n      add\n      swap2\n      jump(tag_170)\n    tag_171:\n      dup3\n      add\n      swap2\n      swap1\n      0x00\n      mstore\n      keccak256(0x00, 0x20)\n      swap1\n    tag_172:\n      dup2\n      sload\n      dup2\n      mstore\n      swap1\n      0x01\n      add\n      swap1\n      0x20\n      add\n      dup1\n      dup4\n      gt\n      tag_172\n      jumpi\n      dup3\n      swap1\n      sub\n      0x1f\n      and\n      dup3\n      add\n      swap2\n    tag_170:\n      pop\n      pop\n      pop\n      pop\n      pop\n      dup2\n      mstore\n      0x20\n      add\n      0x02\n      dup3\n      add\n      dup1\n      sload\n      dup1\n      0x20\n      mul\n      0x20\n      add\n      mload(0x40)\n      swap1\n      dup2\n      add\n      0x40\n      mstore\n      dup1\n      swap3\n      swap2\n      swap1\n      dup2\n      dup2\n      mstore\n      0x20\n      add\n      dup3\n      dup1\n      sload\n      dup1\n      iszero\n      tag_173\n      jumpi\n      0x20\n      mul\n      dup3\n      add\n      swap2\n      swap1\n      0x00\n      mstore\n      keccak256(0x00, 0x20)\n      swap1\n    tag_174:\n      dup2\n      sload\n      dup2\n      mstore\n      0x20\n      add\n      swap1\n      0x01\n      add\n      swap1\n      dup1\n      dup4\n      gt\n      tag_174\n      jumpi\n    tag_173:\n      pop\n      pop\n      pop\n      pop\n      pop\n      dup2\n      mstore\n      pop\n      pop\n      swap1\n      pop\n        /* \"Contract.sol\":3130:3136  doctor */\n      dup1\n        /* \"Contract.sol\":3130:3141  doctor.name */\n      0x00\n      add\n      mload\n        /* \"Contract.sol\":3155:3161  doctor */\n      dup2\n        /* \"Contract.sol\":3155:3173  doctor.phoneNumber */\n      0x20\n      add\n      mload\n        /* \"Contract.sol\":3109:3183  return (... */\n      swap3\n      pop\n      swap3\n      pop\n      pop\n        /* \"Contract.sol\":2932:3190  function getDoctor(address doctorAddress) public view returns(string memory, string memory)... */\n      swap2\n      pop\n      swap2\n      jump\t// out\n        /* \"Contract.sol\":5687:6323  function createAppointment... */\n    tag_55:\n        /* \"Contract.sol\":6816:6820  true */\n      0x01\n        /* \"Contract.sol\":6786:6820  doctorRole.has(msg.sender) == true */\n      iszero\n      iszero\n        /* \"Contract.sol\":6786:6812  doctorRole.has(msg.sender) */\n      tag_176\n        /* \"Contract.sol\":6801:6811  msg.sender */\n      caller\n        /* \"Contract.sol\":6786:6796  doctorRole */\n      0x01\n        /* \"Contract.sol\":6786:6800  doctorRole.has */\n      tag_95\n      swap1\n        /* \"Contract.sol\":6786:6812  doctorRole.has(msg.sender) */\n      swap2\n      swap1\n      0xffffffff\n      and\n      jump\t// in\n    tag_176:\n        /* \"Contract.sol\":6786:6820  doctorRole.has(msg.sender) == true */\n      iszero\n      iszero\n      eq\n        /* \"Contract.sol\":6778:6836  require(doctorRole.has(msg.sender) == true, 'Doctor only') */\n      tag_177\n      jumpi\n      mload(0x40)\n      0x08c379a000000000000000000000000000000000000000000000000000000000\n      dup2\n      mstore\n      0x04\n      add\n      tag_178\n      swap1\n      tag_144\n      jump\t// in\n    tag_178:\n      mload(0x40)\n      dup1\n      swap2\n      sub\n      swap1\n      revert\n    tag_177:\n        /* \"Contract.sol\":5872:5886  patientAddress */\n      dup4\n        /* \"Contract.sol\":7093:7107  patientAddress */\n      dup1\n        /* \"Contract.sol\":7055:7107  doctorToPatientMapping[msg.sender] == patientAddress */\n      0xffffffffffffffffffffffffffffffffffffffff\n      and\n        /* \"Contract.sol\":7055:7077  doctorToPatientMapping */\n      0x05\n        /* \"Contract.sol\":7055:7089  doctorToPatientMapping[msg.sender] */\n      0x00\n        /* \"Contract.sol\":7078:7088  msg.sender */\n      caller\n        /* \"Contract.sol\":7055:7089  doctorToPatientMapping[msg.sender] */\n      0xffffffffffffffffffffffffffffffffffffffff\n      and\n      0xffffffffffffffffffffffffffffffffffffffff\n      and\n      dup2\n      mstore\n      0x20\n      add\n      swap1\n      dup2\n      mstore\n      0x20\n      add\n      0x00\n      keccak256\n      0x00\n      swap1\n      sload\n      swap1\n      0x0100\n      exp\n      swap1\n      div\n      0xffffffffffffffffffffffffffffffffffffffff\n      and\n        /* \"Contract.sol\":7055:7107  doctorToPatientMapping[msg.sender] == patientAddress */\n      0xffffffffffffffffffffffffffffffffffffffff\n      and\n      eq\n        /* \"Contract.sol\":7047:7150  require(doctorToPatientMapping[msg.sender] == patientAddress, \"You haven't been assigned this patient\") */\n      tag_180\n      jumpi\n      mload(0x40)\n      0x08c379a000000000000000000000000000000000000000000000000000000000\n      dup2\n      mstore\n      0x04\n      add\n      tag_181\n      swap1\n      tag_148\n      jump\t// in\n    tag_181:\n      mload(0x40)\n      dup1\n      swap2\n      sub\n      swap1\n      revert\n    tag_180:\n        /* \"Contract.sol\":7375:7400  adminRole.has(msg.sender) */\n      tag_183\n        /* \"Contract.sol\":7389:7399  msg.sender */\n      caller\n        /* \"Contract.sol\":7375:7384  adminRole */\n      0x00\n        /* \"Contract.sol\":7375:7388  adminRole.has */\n      tag_95\n      swap1\n        /* \"Contract.sol\":7375:7400  adminRole.has(msg.sender) */\n      swap2\n      swap1\n      0xffffffff\n      and\n      jump\t// in\n    tag_183:\n        /* \"Contract.sol\":7374:7400  !adminRole.has(msg.sender) */\n      iszero\n        /* \"Contract.sol\":7366:7418  require(!adminRole.has(msg.sender), 'Not for admin') */\n      tag_184\n      jumpi\n      mload(0x40)\n      0x08c379a000000000000000000000000000000000000000000000000000000000\n      dup2\n      mstore\n      0x04\n      add\n      tag_185\n      swap1\n      tag_98\n      jump\t// in\n    tag_185:\n      mload(0x40)\n      dup1\n      swap2\n      sub\n      swap1\n      revert\n    tag_184:\n        /* \"Contract.sol\":5914:5944  Appointment memory appointment */\n      tag_187\n      tag_188\n      jump\t// in\n    tag_187:\n        /* \"Contract.sol\":5976:5991  appointmentList */\n      0x06\n        /* \"Contract.sol\":5976:5998  appointmentList.length */\n      dup1\n      sload\n      swap1\n      pop\n        /* \"Contract.sol\":5955:5966  appointment */\n      dup2\n        /* \"Contract.sol\":5955:5973  appointment.number */\n      0x00\n      add\n        /* \"Contract.sol\":5955:5998  appointment.number = appointmentList.length */\n      dup2\n      dup2\n      mstore\n      pop\n      pop\n        /* \"Contract.sol\":6037:6051  patientAddress */\n      dup6\n        /* \"Contract.sol\":6008:6019  appointment */\n      dup2\n        /* \"Contract.sol\":6008:6034  appointment.patientAddress */\n      0x20\n      add\n        /* \"Contract.sol\":6008:6051  appointment.patientAddress = patientAddress */\n      swap1\n      0xffffffffffffffffffffffffffffffffffffffff\n      and\n      swap1\n      dup2\n      0xffffffffffffffffffffffffffffffffffffffff\n      and\n      dup2\n      mstore\n      pop\n      pop\n        /* \"Contract.sol\":6089:6099  msg.sender */\n      caller\n        /* \"Contract.sol\":6061:6072  appointment */\n      dup2\n        /* \"Contract.sol\":6061:6086  appointment.doctorAddress */\n      0x40\n      add\n        /* \"Contract.sol\":6061:6099  appointment.doctorAddress = msg.sender */\n      swap1\n      0xffffffffffffffffffffffffffffffffffffffff\n      and\n      swap1\n      dup2\n      0xffffffffffffffffffffffffffffffffffffffff\n      and\n      dup2\n      mstore\n      pop\n      pop\n        /* \"Contract.sol\":6133:6142  diagnosis */\n      dup5\n        /* \"Contract.sol\":6109:6120  appointment */\n      dup2\n        /* \"Contract.sol\":6109:6130  appointment.diagnosis */\n      0x60\n      add\n        /* \"Contract.sol\":6109:6142  appointment.diagnosis = diagnosis */\n      dup2\n      swap1\n      mstore\n      pop\n        /* \"Contract.sol\":6186:6205  treatmentPrescribed */\n      dup4\n        /* \"Contract.sol\":6152:6163  appointment */\n      dup2\n        /* \"Contract.sol\":6152:6183  appointment.treatmentPrescribed */\n      0x80\n      add\n        /* \"Contract.sol\":6152:6205  appointment.treatmentPrescribed = treatmentPrescribed */\n      dup2\n      swap1\n      mstore\n      pop\n        /* \"Contract.sol\":6216:6231  appointmentList */\n      0x06\n        /* \"Contract.sol\":6237:6248  appointment */\n      dup2\n        /* \"Contract.sol\":6216:6249  appointmentList.push(appointment) */\n      swap1\n      dup1\n      0x01\n      dup2\n      sload\n      add\n      dup1\n      dup3\n      sstore\n      dup1\n      swap2\n      pop\n      pop\n      0x01\n      swap1\n      sub\n      swap1\n      0x00\n      mstore\n      keccak256(0x00, 0x20)\n      swap1\n      0x05\n      mul\n      add\n      0x00\n      swap1\n      swap2\n      swap1\n      swap2\n      swap1\n      swap2\n      pop\n      0x00\n      dup3\n      add\n      mload\n      dup2\n      0x00\n      add\n      sstore\n      0x20\n      dup3\n      add\n      mload\n      dup2\n      0x01\n      add\n      exp(0x0100, 0x00)\n      dup2\n      sload\n      dup2\n      0xffffffffffffffffffffffffffffffffffffffff\n      mul\n      not\n      and\n      swap1\n      dup4\n      0xffffffffffffffffffffffffffffffffffffffff\n      and\n      mul\n      or\n      swap1\n      sstore\n      pop\n      0x40\n      dup3\n      add\n      mload\n      dup2\n      0x02\n      add\n      exp(0x0100, 0x00)\n      dup2\n      sload\n      dup2\n      0xffffffffffffffffffffffffffffffffffffffff\n      mul\n      not\n      and\n      swap1\n      dup4\n      0xffffffffffffffffffffffffffffffffffffffff\n      and\n      mul\n      or\n      swap1\n      sstore\n      pop\n      0x60\n      dup3\n      add\n      mload\n      dup2\n      0x03\n      add\n      swap1\n      dup2\n      tag_190\n      swap2\n      swap1\n      tag_159\n      jump\t// in\n    tag_190:\n      pop\n      0x80\n      dup3\n      add\n      mload\n      dup2\n      0x04\n      add\n      swap1\n      dup2\n      tag_191\n      swap2\n      swap1\n      tag_159\n      jump\t// in\n    tag_191:\n      pop\n      pop\n      pop\n        /* \"Contract.sol\":6260:6316  addAppointmentToRecord(recordNumber, appointment.number) */\n      tag_192\n        /* \"Contract.sol\":6283:6295  recordNumber */\n      dup4\n        /* \"Contract.sol\":6297:6308  appointment */\n      dup3\n        /* \"Contract.sol\":6297:6315  appointment.number */\n      0x00\n      add\n      mload\n        /* \"Contract.sol\":6260:6282  addAppointmentToRecord */\n      tag_193\n        /* \"Contract.sol\":6260:6316  addAppointmentToRecord(recordNumber, appointment.number) */\n      jump\t// in\n    tag_192:\n        /* \"Contract.sol\":5904:6323  {... */\n      pop\n        /* \"Contract.sol\":6846:6847  _ */\n      pop\n        /* \"Contract.sol\":5687:6323  function createAppointment... */\n      pop\n      pop\n      pop\n      pop\n      jump\t// out\n        /* \"Contract.sol\":2358:2819  function addDoctor(address doctorAddress, string memory doctorName, string memory phoneNumber) public adminOnly... */\n    tag_59:\n        /* \"Contract.sol\":6699:6703  true */\n      0x01\n        /* \"Contract.sol\":6670:6703  adminRole.has(msg.sender) == true */\n      iszero\n      iszero\n        /* \"Contract.sol\":6670:6695  adminRole.has(msg.sender) */\n      tag_195\n        /* \"Contract.sol\":6684:6694  msg.sender */\n      caller\n        /* \"Contract.sol\":6670:6679  adminRole */\n      0x00\n        /* \"Contract.sol\":6670:6683  adminRole.has */\n      tag_95\n      swap1\n        /* \"Contract.sol\":6670:6695  adminRole.has(msg.sender) */\n      swap2\n      swap1\n      0xffffffff\n      and\n      jump\t// in\n    tag_195:\n        /* \"Contract.sol\":6670:6703  adminRole.has(msg.sender) == true */\n      iszero\n      iszero\n      eq\n        /* \"Contract.sol\":6662:6718  require(adminRole.has(msg.sender) == true, 'Admin only') */\n      tag_196\n      jumpi\n      mload(0x40)\n      0x08c379a000000000000000000000000000000000000000000000000000000000\n      dup2\n      mstore\n      0x04\n      add\n      tag_197\n      swap1\n      tag_198\n      jump\t// in\n    tag_197:\n      mload(0x40)\n      dup1\n      swap2\n      sub\n      swap1\n      revert\n    tag_196:\n        /* \"Contract.sol\":2509:2519  msg.sender */\n      caller\n        /* \"Contract.sol\":2492:2519  doctorAddress != msg.sender */\n      0xffffffffffffffffffffffffffffffffffffffff\n      and\n        /* \"Contract.sol\":2492:2505  doctorAddress */\n      dup4\n        /* \"Contract.sol\":2492:2519  doctorAddress != msg.sender */\n      0xffffffffffffffffffffffffffffffffffffffff\n      and\n      sub\n        /* \"Contract.sol\":2484:2558  require(doctorAddress != msg.sender, \"You are not eligible for this role\") */\n      tag_200\n      jumpi\n      mload(0x40)\n      0x08c379a000000000000000000000000000000000000000000000000000000000\n      dup2\n      mstore\n      0x04\n      add\n      tag_201\n      swap1\n      tag_202\n      jump\t// in\n    tag_201:\n      mload(0x40)\n      dup1\n      swap2\n      sub\n      swap1\n      revert\n    tag_200:\n        /* \"Contract.sol\":2569:2598  doctorRole.add(doctorAddress) */\n      tag_203\n        /* \"Contract.sol\":2584:2597  doctorAddress */\n      dup4\n        /* \"Contract.sol\":2569:2579  doctorRole */\n      0x01\n        /* \"Contract.sol\":2569:2583  doctorRole.add */\n      tag_90\n      swap1\n        /* \"Contract.sol\":2569:2598  doctorRole.add(doctorAddress) */\n      swap2\n      swap1\n      0xffffffff\n      and\n      jump\t// in\n    tag_203:\n        /* \"Contract.sol\":2609:2629  Doctor memory doctor */\n      tag_204\n      tag_205\n      jump\t// in\n    tag_204:\n        /* \"Contract.sol\":2662:2672  doctorName */\n      dup3\n        /* \"Contract.sol\":2648:2654  doctor */\n      dup2\n        /* \"Contract.sol\":2648:2659  doctor.name */\n      0x00\n      add\n        /* \"Contract.sol\":2648:2672  doctor.name = doctorName */\n      dup2\n      swap1\n      mstore\n      pop\n        /* \"Contract.sol\":2703:2714  phoneNumber */\n      dup2\n        /* \"Contract.sol\":2682:2688  doctor */\n      dup2\n        /* \"Contract.sol\":2682:2700  doctor.phoneNumber */\n      0x20\n      add\n        /* \"Contract.sol\":2682:2714  doctor.phoneNumber = phoneNumber */\n      dup2\n      swap1\n      mstore\n      pop\n        /* \"Contract.sol\":2725:2735  doctorList */\n      0x08\n        /* \"Contract.sol\":2741:2754  doctorAddress */\n      dup5\n        /* \"Contract.sol\":2725:2755  doctorList.push(doctorAddress) */\n      swap1\n      dup1\n      0x01\n      dup2\n      sload\n      add\n      dup1\n      dup3\n      sstore\n      dup1\n      swap2\n      pop\n      pop\n      0x01\n      swap1\n      sub\n      swap1\n      0x00\n      mstore\n      keccak256(0x00, 0x20)\n      add\n      0x00\n      swap1\n      swap2\n      swap1\n      swap2\n      swap1\n      swap2\n      0x0100\n      exp\n      dup2\n      sload\n      dup2\n      0xffffffffffffffffffffffffffffffffffffffff\n      mul\n      not\n      and\n      swap1\n      dup4\n      0xffffffffffffffffffffffffffffffffffffffff\n      and\n      mul\n      or\n      swap1\n      sstore\n      pop\n        /* \"Contract.sol\":2806:2812  doctor */\n      dup1\n        /* \"Contract.sol\":2766:2788  addressToDoctorMapping */\n      0x03\n        /* \"Contract.sol\":2766:2803  addressToDoctorMapping[doctorAddress] */\n      0x00\n        /* \"Contract.sol\":2789:2802  doctorAddress */\n      dup7\n        /* \"Contract.sol\":2766:2803  addressToDoctorMapping[doctorAddress] */\n      0xffffffffffffffffffffffffffffffffffffffff\n      and\n      0xffffffffffffffffffffffffffffffffffffffff\n      and\n      dup2\n      mstore\n      0x20\n      add\n      swap1\n      dup2\n      mstore\n      0x20\n      add\n      0x00\n      keccak256\n        /* \"Contract.sol\":2766:2812  addressToDoctorMapping[doctorAddress] = doctor */\n      0x00\n      dup3\n      add\n      mload\n      dup2\n      0x00\n      add\n      swap1\n      dup2\n      tag_207\n      swap2\n      swap1\n      tag_159\n      jump\t// in\n    tag_207:\n      pop\n      0x20\n      dup3\n      add\n      mload\n      dup2\n      0x01\n      add\n      swap1\n      dup2\n      tag_208\n      swap2\n      swap1\n      tag_159\n      jump\t// in\n    tag_208:\n      pop\n      0x40\n      dup3\n      add\n      mload\n      dup2\n      0x02\n      add\n      swap1\n      dup1\n      mload\n      swap1\n      0x20\n      add\n      swap1\n      tag_209\n      swap3\n      swap2\n      swap1\n      tag_161\n      jump\t// in\n    tag_209:\n      pop\n      swap1\n      pop\n      pop\n        /* \"Contract.sol\":2474:2819  {... */\n      pop\n        /* \"Contract.sol\":2358:2819  function addDoctor(address doctorAddress, string memory doctorName, string memory phoneNumber) public adminOnly... */\n      pop\n      pop\n      pop\n      jump\t// out\n        /* \"Contract.sol\":3216:3693  function addPatient(address patientAddress, string memory patientName, string memory phoneNumber) public adminOnly... */\n    tag_62:\n        /* \"Contract.sol\":6699:6703  true */\n      0x01\n        /* \"Contract.sol\":6670:6703  adminRole.has(msg.sender) == true */\n      iszero\n      iszero\n        /* \"Contract.sol\":6670:6695  adminRole.has(msg.sender) */\n      tag_211\n        /* \"Contract.sol\":6684:6694  msg.sender */\n      caller\n        /* \"Contract.sol\":6670:6679  adminRole */\n      0x00\n        /* \"Contract.sol\":6670:6683  adminRole.has */\n      tag_95\n      swap1\n        /* \"Contract.sol\":6670:6695  adminRole.has(msg.sender) */\n      swap2\n      swap1\n      0xffffffff\n      and\n      jump\t// in\n    tag_211:\n        /* \"Contract.sol\":6670:6703  adminRole.has(msg.sender) == true */\n      iszero\n      iszero\n      eq\n        /* \"Contract.sol\":6662:6718  require(adminRole.has(msg.sender) == true, 'Admin only') */\n      tag_212\n      jumpi\n      mload(0x40)\n      0x08c379a000000000000000000000000000000000000000000000000000000000\n      dup2\n      mstore\n      0x04\n      add\n      tag_213\n      swap1\n      tag_198\n      jump\t// in\n    tag_213:\n      mload(0x40)\n      dup1\n      swap2\n      sub\n      swap1\n      revert\n    tag_212:\n        /* \"Contract.sol\":3371:3381  msg.sender */\n      caller\n        /* \"Contract.sol\":3353:3381  patientAddress != msg.sender */\n      0xffffffffffffffffffffffffffffffffffffffff\n      and\n        /* \"Contract.sol\":3353:3367  patientAddress */\n      dup4\n        /* \"Contract.sol\":3353:3381  patientAddress != msg.sender */\n      0xffffffffffffffffffffffffffffffffffffffff\n      and\n      sub\n        /* \"Contract.sol\":3345:3420  require(patientAddress != msg.sender, \"You are not eligible for this role\") */\n      tag_215\n      jumpi\n      mload(0x40)\n      0x08c379a000000000000000000000000000000000000000000000000000000000\n      dup2\n      mstore\n      0x04\n      add\n      tag_216\n      swap1\n      tag_202\n      jump\t// in\n    tag_216:\n      mload(0x40)\n      dup1\n      swap2\n      sub\n      swap1\n      revert\n    tag_215:\n        /* \"Contract.sol\":3431:3462  patientRole.add(patientAddress) */\n      tag_217\n        /* \"Contract.sol\":3447:3461  patientAddress */\n      dup4\n        /* \"Contract.sol\":3431:3442  patientRole */\n      0x02\n        /* \"Contract.sol\":3431:3446  patientRole.add */\n      tag_90\n      swap1\n        /* \"Contract.sol\":3431:3462  patientRole.add(patientAddress) */\n      swap2\n      swap1\n      0xffffffff\n      and\n      jump\t// in\n    tag_217:\n        /* \"Contract.sol\":3473:3495  Patient memory patient */\n      tag_218\n      tag_219\n      jump\t// in\n    tag_218:\n        /* \"Contract.sol\":3529:3540  patientName */\n      dup3\n        /* \"Contract.sol\":3514:3521  patient */\n      dup2\n        /* \"Contract.sol\":3514:3526  patient.name */\n      0x00\n      add\n        /* \"Contract.sol\":3514:3540  patient.name = patientName */\n      dup2\n      swap1\n      mstore\n      pop\n        /* \"Contract.sol\":3572:3583  phoneNumber */\n      dup2\n        /* \"Contract.sol\":3550:3557  patient */\n      dup2\n        /* \"Contract.sol\":3550:3569  patient.phoneNumber */\n      0x20\n      add\n        /* \"Contract.sol\":3550:3583  patient.phoneNumber = phoneNumber */\n      dup2\n      swap1\n      mstore\n      pop\n        /* \"Contract.sol\":3636:3643  patient */\n      dup1\n        /* \"Contract.sol\":3594:3617  addressToPatientMapping */\n      0x04\n        /* \"Contract.sol\":3594:3633  addressToPatientMapping[patientAddress] */\n      0x00\n        /* \"Contract.sol\":3618:3632  patientAddress */\n      dup7\n        /* \"Contract.sol\":3594:3633  addressToPatientMapping[patientAddress] */\n      0xffffffffffffffffffffffffffffffffffffffff\n      and\n      0xffffffffffffffffffffffffffffffffffffffff\n      and\n      dup2\n      mstore\n      0x20\n      add\n      swap1\n      dup2\n      mstore\n      0x20\n      add\n      0x00\n      keccak256\n        /* \"Contract.sol\":3594:3643  addressToPatientMapping[patientAddress] = patient */\n      0x00\n      dup3\n      add\n      mload\n      dup2\n      0x00\n      add\n      swap1\n      dup2\n      tag_220\n      swap2\n      swap1\n      tag_159\n      jump\t// in\n    tag_220:\n      pop\n      0x20\n      dup3\n      add\n      mload\n      dup2\n      0x01\n      add\n      swap1\n      dup2\n      tag_221\n      swap2\n      swap1\n      tag_159\n      jump\t// in\n    tag_221:\n      pop\n      0x40\n      dup3\n      add\n      mload\n      dup2\n      0x02\n      add\n      swap1\n      dup1\n      mload\n      swap1\n      0x20\n      add\n      swap1\n      tag_222\n      swap3\n      swap2\n      swap1\n      tag_161\n      jump\t// in\n    tag_222:\n      pop\n      swap1\n      pop\n      pop\n        /* \"Contract.sol\":3654:3665  patientList */\n      0x09\n        /* \"Contract.sol\":3671:3685  patientAddress */\n      dup5\n        /* \"Contract.sol\":3654:3686  patientList.push(patientAddress) */\n      swap1\n      dup1\n      0x01\n      dup2\n      sload\n      add\n      dup1\n      dup3\n      sstore\n      dup1\n      swap2\n      pop\n      pop\n      0x01\n      swap1\n      sub\n      swap1\n      0x00\n      mstore\n      keccak256(0x00, 0x20)\n      add\n      0x00\n      swap1\n      swap2\n      swap1\n      swap2\n      swap1\n      swap2\n      0x0100\n      exp\n      dup2\n      sload\n      dup2\n      0xffffffffffffffffffffffffffffffffffffffff\n      mul\n      not\n      and\n      swap1\n      dup4\n      0xffffffffffffffffffffffffffffffffffffffff\n      and\n      mul\n      or\n      swap1\n      sstore\n      pop\n        /* \"Contract.sol\":3335:3693  {... */\n      pop\n        /* \"Contract.sol\":3216:3693  function addPatient(address patientAddress, string memory patientName, string memory phoneNumber) public adminOnly... */\n      pop\n      pop\n      pop\n      jump\t// out\n        /* \"Contract.sol\":2251:2333  function getAdmin() public view returns(address)... */\n    tag_64:\n        /* \"Contract.sol\":2291:2298  address */\n      0x00\n        /* \"Contract.sol\":2321:2326  admin */\n      0x0a\n      0x00\n      swap1\n      sload\n      swap1\n      0x0100\n      exp\n      swap1\n      div\n      0xffffffffffffffffffffffffffffffffffffffff\n      and\n        /* \"Contract.sol\":2314:2326  return admin */\n      swap1\n      pop\n        /* \"Contract.sol\":2251:2333  function getAdmin() public view returns(address)... */\n      swap1\n      jump\t// out\n        /* \"Contract.sol\":4090:4214  function isPatient(address givenAddress) public view returns(bool)... */\n    tag_68:\n        /* \"Contract.sol\":4151:4155  bool */\n      0x00\n        /* \"Contract.sol\":4178:4207  patientRole.has(givenAddress) */\n      tag_226\n        /* \"Contract.sol\":4194:4206  givenAddress */\n      dup3\n        /* \"Contract.sol\":4178:4189  patientRole */\n      0x02\n        /* \"Contract.sol\":4178:4193  patientRole.has */\n      tag_95\n      swap1\n        /* \"Contract.sol\":4178:4207  patientRole.has(givenAddress) */\n      swap2\n      swap1\n      0xffffffff\n      and\n      jump\t// in\n    tag_226:\n        /* \"Contract.sol\":4171:4207  return patientRole.has(givenAddress) */\n      swap1\n      pop\n        /* \"Contract.sol\":4090:4214  function isPatient(address givenAddress) public view returns(bool)... */\n      swap2\n      swap1\n      pop\n      jump\t// out\n        /* \"Contract.sol\":3747:3902  function assign(address doctorAddress, address patientAddress) public adminOnly... */\n    tag_74:\n        /* \"Contract.sol\":6699:6703  true */\n      0x01\n        /* \"Contract.sol\":6670:6703  adminRole.has(msg.sender) == true */\n      iszero\n      iszero\n        /* \"Contract.sol\":6670:6695  adminRole.has(msg.sender) */\n      tag_228\n        /* \"Contract.sol\":6684:6694  msg.sender */\n      caller\n        /* \"Contract.sol\":6670:6679  adminRole */\n      0x00\n        /* \"Contract.sol\":6670:6683  adminRole.has */\n      tag_95\n      swap1\n        /* \"Contract.sol\":6670:6695  adminRole.has(msg.sender) */\n      swap2\n      swap1\n      0xffffffff\n      and\n      jump\t// in\n    tag_228:\n        /* \"Contract.sol\":6670:6703  adminRole.has(msg.sender) == true */\n      iszero\n      iszero\n      eq\n        /* \"Contract.sol\":6662:6718  require(adminRole.has(msg.sender) == true, 'Admin only') */\n      tag_229\n      jumpi\n      mload(0x40)\n      0x08c379a000000000000000000000000000000000000000000000000000000000\n      dup2\n      mstore\n      0x04\n      add\n      tag_230\n      swap1\n      tag_198\n      jump\t// in\n    tag_230:\n      mload(0x40)\n      dup1\n      swap2\n      sub\n      swap1\n      revert\n    tag_229:\n        /* \"Contract.sol\":3881:3895  patientAddress */\n      dup1\n        /* \"Contract.sol\":3841:3863  doctorToPatientMapping */\n      0x05\n        /* \"Contract.sol\":3841:3878  doctorToPatientMapping[doctorAddress] */\n      0x00\n        /* \"Contract.sol\":3864:3877  doctorAddress */\n      dup5\n        /* \"Contract.sol\":3841:3878  doctorToPatientMapping[doctorAddress] */\n      0xffffffffffffffffffffffffffffffffffffffff\n      and\n      0xffffffffffffffffffffffffffffffffffffffff\n      and\n      dup2\n      mstore\n      0x20\n      add\n      swap1\n      dup2\n      mstore\n      0x20\n      add\n      0x00\n      keccak256\n      0x00\n        /* \"Contract.sol\":3841:3895  doctorToPatientMapping[doctorAddress] = patientAddress */\n      0x0100\n      exp\n      dup2\n      sload\n      dup2\n      0xffffffffffffffffffffffffffffffffffffffff\n      mul\n      not\n      and\n      swap1\n      dup4\n      0xffffffffffffffffffffffffffffffffffffffff\n      and\n      mul\n      or\n      swap1\n      sstore\n      pop\n        /* \"Contract.sol\":3747:3902  function assign(address doctorAddress, address patientAddress) public adminOnly... */\n      pop\n      pop\n      jump\t// out\n        /* \"Contract.sol\":3934:4056  function isDoctor(address givenAddress) public view returns(bool)... */\n    tag_77:\n        /* \"Contract.sol\":3994:3998  bool */\n      0x00\n        /* \"Contract.sol\":4021:4049  doctorRole.has(givenAddress) */\n      tag_233\n        /* \"Contract.sol\":4036:4048  givenAddress */\n      dup3\n        /* \"Contract.sol\":4021:4031  doctorRole */\n      0x01\n        /* \"Contract.sol\":4021:4035  doctorRole.has */\n      tag_95\n      swap1\n        /* \"Contract.sol\":4021:4049  doctorRole.has(givenAddress) */\n      swap2\n      swap1\n      0xffffffff\n      and\n      jump\t// in\n    tag_233:\n        /* \"Contract.sol\":4014:4049  return doctorRole.has(givenAddress) */\n      swap1\n      pop\n        /* \"Contract.sol\":3934:4056  function isDoctor(address givenAddress) public view returns(bool)... */\n      swap2\n      swap1\n      pop\n      jump\t// out\n        /* \"Contract.sol\":2825:2926  function getDoctorList() public view returns(address[] memory)... */\n    tag_80:\n        /* \"Contract.sol\":2870:2886  address[] memory */\n      0x60\n        /* \"Contract.sol\":2909:2919  doctorList */\n      0x08\n        /* \"Contract.sol\":2902:2919  return doctorList */\n      dup1\n      sload\n      dup1\n      0x20\n      mul\n      0x20\n      add\n      mload(0x40)\n      swap1\n      dup2\n      add\n      0x40\n      mstore\n      dup1\n      swap3\n      swap2\n      swap1\n      dup2\n      dup2\n      mstore\n      0x20\n      add\n      dup3\n      dup1\n      sload\n      dup1\n      iszero\n      tag_235\n      jumpi\n      0x20\n      mul\n      dup3\n      add\n      swap2\n      swap1\n      0x00\n      mstore\n      keccak256(0x00, 0x20)\n      swap1\n    tag_236:\n      dup2\n      0x00\n      swap1\n      sload\n      swap1\n      0x0100\n      exp\n      swap1\n      div\n      0xffffffffffffffffffffffffffffffffffffffff\n      and\n      0xffffffffffffffffffffffffffffffffffffffff\n      and\n      dup2\n      mstore\n      0x20\n      add\n      swap1\n      0x01\n      add\n      swap1\n      dup1\n      dup4\n      gt\n      tag_236\n      jumpi\n    tag_235:\n      pop\n      pop\n      pop\n      pop\n      pop\n      swap1\n      pop\n        /* \"Contract.sol\":2825:2926  function getDoctorList() public view returns(address[] memory)... */\n      swap1\n      jump\t// out\n        /* \"Contract.sol\":2082:2110  address[] public patientList */\n    tag_85:\n      0x09\n      dup2\n      dup2\n      sload\n      dup2\n      lt\n      tag_237\n      jumpi\n      0x00\n      dup1\n      revert\n    tag_237:\n      swap1\n      0x00\n      mstore\n      keccak256(0x00, 0x20)\n      add\n      0x00\n      swap2\n      pop\n      sload\n      swap1\n      0x0100\n      exp\n      swap1\n      div\n      0xffffffffffffffffffffffffffffffffffffffff\n      and\n      dup2\n      jump\t// out\n        /* \"Contract.sol\":2117:2137  address public admin */\n    tag_88:\n      0x0a\n      0x00\n      swap1\n      sload\n      swap1\n      0x0100\n      exp\n      swap1\n      div\n      0xffffffffffffffffffffffffffffffffffffffff\n      and\n      dup2\n      jump\t// out\n        /* \"Contract.sol\":301:481  function add(Role storage role, address account) internal ... */\n    tag_90:\n        /* \"Contract.sol\":383:401  has(role, account) */\n      tag_240\n        /* \"Contract.sol\":387:391  role */\n      dup3\n        /* \"Contract.sol\":393:400  account */\n      dup3\n        /* \"Contract.sol\":383:386  has */\n      tag_95\n        /* \"Contract.sol\":383:401  has(role, account) */\n      jump\t// in\n    tag_240:\n        /* \"Contract.sol\":382:401  !has(role, account) */\n      iszero\n        /* \"Contract.sol\":374:437  require(!has(role, account), \"Roles: account already has role\") */\n      tag_241\n      jumpi\n      mload(0x40)\n      0x08c379a000000000000000000000000000000000000000000000000000000000\n      dup2\n      mstore\n      0x04\n      add\n      tag_242\n      swap1\n      tag_243\n      jump\t// in\n    tag_242:\n      mload(0x40)\n      dup1\n      swap2\n      sub\n      swap1\n      revert\n    tag_241:\n        /* \"Contract.sol\":470:474  true */\n      0x01\n        /* \"Contract.sol\":447:451  role */\n      dup3\n        /* \"Contract.sol\":447:458  role.bearer */\n      0x00\n      add\n        /* \"Contract.sol\":447:467  role.bearer[account] */\n      0x00\n        /* \"Contract.sol\":459:466  account */\n      dup4\n        /* \"Contract.sol\":447:467  role.bearer[account] */\n      0xffffffffffffffffffffffffffffffffffffffff\n      and\n      0xffffffffffffffffffffffffffffffffffffffff\n      and\n      dup2\n      mstore\n      0x20\n      add\n      swap1\n      dup2\n      mstore\n      0x20\n      add\n      0x00\n      keccak256\n      0x00\n        /* \"Contract.sol\":447:474  role.bearer[account] = true */\n      0x0100\n      exp\n      dup2\n      sload\n      dup2\n      0xff\n      mul\n      not\n      and\n      swap1\n      dup4\n      iszero\n      iszero\n      mul\n      or\n      swap1\n      sstore\n      pop\n        /* \"Contract.sol\":301:481  function add(Role storage role, address account) internal ... */\n      pop\n      pop\n      jump\t// out\n        /* \"Contract.sol\":830:1035  function has(Role storage role, address account) internal view returns (bool) ... */\n    tag_95:\n        /* \"Contract.sol\":902:906  bool */\n      0x00\n        /* \"Contract.sol\":950:951  0 */\n      dup1\n        /* \"Contract.sol\":931:952  account != address(0) */\n      0xffffffffffffffffffffffffffffffffffffffff\n      and\n        /* \"Contract.sol\":931:938  account */\n      dup3\n        /* \"Contract.sol\":931:952  account != address(0) */\n      0xffffffffffffffffffffffffffffffffffffffff\n      and\n      sub\n        /* \"Contract.sol\":923:991  require(account != address(0), \"Roles: account is the zero address\") */\n      tag_245\n      jumpi\n      mload(0x40)\n      0x08c379a000000000000000000000000000000000000000000000000000000000\n      dup2\n      mstore\n      0x04\n      add\n      tag_246\n      swap1\n      tag_247\n      jump\t// in\n    tag_246:\n      mload(0x40)\n      dup1\n      swap2\n      sub\n      swap1\n      revert\n    tag_245:\n        /* \"Contract.sol\":1008:1012  role */\n      dup3\n        /* \"Contract.sol\":1008:1019  role.bearer */\n      0x00\n      add\n        /* \"Contract.sol\":1008:1028  role.bearer[account] */\n      0x00\n        /* \"Contract.sol\":1020:1027  account */\n      dup4\n        /* \"Contract.sol\":1008:1028  role.bearer[account] */\n      0xffffffffffffffffffffffffffffffffffffffff\n      and\n      0xffffffffffffffffffffffffffffffffffffffff\n      and\n      dup2\n      mstore\n      0x20\n      add\n      swap1\n      dup2\n      mstore\n      0x20\n      add\n      0x00\n      keccak256\n      0x00\n      swap1\n      sload\n      swap1\n      0x0100\n      exp\n      swap1\n      div\n      0xff\n      and\n        /* \"Contract.sol\":1001:1028  return role.bearer[account] */\n      swap1\n      pop\n        /* \"Contract.sol\":830:1035  function has(Role storage role, address account) internal view returns (bool) ... */\n      swap3\n      swap2\n      pop\n      pop\n      jump\t// out\n        /* \"Contract.sol\":6371:6587  function addAppointmentToRecord(uint recordNumber, uint appointmentNumber) internal... */\n    tag_193:\n        /* \"Contract.sol\":6469:6490  Record storage record */\n      0x00\n        /* \"Contract.sol\":6493:6503  recordList */\n      0x07\n        /* \"Contract.sol\":6504:6516  recordNumber */\n      dup4\n        /* \"Contract.sol\":6493:6517  recordList[recordNumber] */\n      dup2\n      sload\n      dup2\n      lt\n      tag_249\n      jumpi\n      tag_250\n      tag_102\n      jump\t// in\n    tag_250:\n    tag_249:\n      swap1\n      0x00\n      mstore\n      keccak256(0x00, 0x20)\n      swap1\n      0x05\n      mul\n      add\n        /* \"Contract.sol\":6469:6517  Record storage record = recordList[recordNumber] */\n      swap1\n      pop\n        /* \"Contract.sol\":6528:6534  record */\n      dup1\n        /* \"Contract.sol\":6528:6556  record.appointmentNumberList */\n      0x04\n      add\n        /* \"Contract.sol\":6562:6579  appointmentNumber */\n      dup3\n        /* \"Contract.sol\":6528:6580  record.appointmentNumberList.push(appointmentNumber) */\n      swap1\n      dup1\n      0x01\n      dup2\n      sload\n      add\n      dup1\n      dup3\n      sstore\n      dup1\n      swap2\n      pop\n      pop\n      0x01\n      swap1\n      sub\n      swap1\n      0x00\n      mstore\n      keccak256(0x00, 0x20)\n      add\n      0x00\n      swap1\n      swap2\n      swap1\n      swap2\n      swap1\n      swap2\n      pop\n      sstore\n        /* \"Contract.sol\":6459:6587  {... */\n      pop\n        /* \"Contract.sol\":6371:6587  function addAppointmentToRecord(uint recordNumber, uint appointmentNumber) internal... */\n      pop\n      pop\n      jump\t// out\n    tag_92:\n      mload(0x40)\n      dup1\n      0xa0\n      add\n      0x40\n      mstore\n      dup1\n      0x00\n      dup2\n      mstore\n      0x20\n      add\n      and(0xffffffffffffffffffffffffffffffffffffffff, 0x00)\n      dup2\n      mstore\n      0x20\n      add\n      and(0xffffffffffffffffffffffffffffffffffffffff, 0x00)\n      dup2\n      mstore\n      0x20\n      add\n      0x60\n      dup2\n      mstore\n      0x20\n      add\n      0x60\n      dup2\n      mstore\n      pop\n      swap1\n      jump\t// out\n    tag_161:\n      dup3\n      dup1\n      sload\n      dup3\n      dup3\n      sstore\n      swap1\n      0x00\n      mstore\n      keccak256(0x00, 0x20)\n      swap1\n      dup2\n      add\n      swap3\n      dup3\n      iszero\n      tag_253\n      jumpi\n      swap2\n      0x20\n      mul\n      dup3\n      add\n    tag_254:\n      dup3\n      dup2\n      gt\n      iszero\n      tag_255\n      jumpi\n      dup3\n      mload\n      dup3\n      sstore\n      swap2\n      0x20\n      add\n      swap2\n      swap1\n      0x01\n      add\n      swap1\n      jump(tag_254)\n    tag_255:\n    tag_253:\n      pop\n      swap1\n      pop\n      tag_256\n      swap2\n      swap1\n      tag_257\n      jump\t// in\n    tag_256:\n      pop\n      swap1\n      jump\t// out\n    tag_188:\n      mload(0x40)\n      dup1\n      0xa0\n      add\n      0x40\n      mstore\n      dup1\n      0x00\n      dup2\n      mstore\n      0x20\n      add\n      and(0xffffffffffffffffffffffffffffffffffffffff, 0x00)\n      dup2\n      mstore\n      0x20\n      add\n      and(0xffffffffffffffffffffffffffffffffffffffff, 0x00)\n      dup2\n      mstore\n      0x20\n      add\n      0x60\n      dup2\n      mstore\n      0x20\n      add\n      0x60\n      dup2\n      mstore\n      pop\n      swap1\n      jump\t// out\n    tag_205:\n      mload(0x40)\n      dup1\n      0x60\n      add\n      0x40\n      mstore\n      dup1\n      0x60\n      dup2\n      mstore\n      0x20\n      add\n      0x60\n      dup2\n      mstore\n      0x20\n      add\n      0x60\n      dup2\n      mstore\n      pop\n      swap1\n      jump\t// out\n    tag_219:\n      mload(0x40)\n      dup1\n      0x60\n      add\n      0x40\n      mstore\n      dup1\n      0x60\n      dup2\n      mstore\n      0x20\n      add\n      0x60\n      dup2\n      mstore\n      0x20\n      add\n      0x60\n      dup2\n      mstore\n      pop\n      swap1\n      jump\t// out\n    tag_257:\n    tag_258:\n      dup1\n      dup3\n      gt\n      iszero\n      tag_259\n      jumpi\n      0x00\n      dup2\n      0x00\n      swap1\n      sstore\n      pop\n      0x01\n      add\n      jump(tag_258)\n    tag_259:\n      pop\n      swap1\n      jump\t// out\n        /* \"#utility.yul\":7:82   */\n    tag_260:\n        /* \"#utility.yul\":40:46   */\n      0x00\n        /* \"#utility.yul\":73:75   */\n      0x40\n        /* \"#utility.yul\":67:76   */\n      mload\n        /* \"#utility.yul\":57:76   */\n      swap1\n      pop\n        /* \"#utility.yul\":7:82   */\n      swap1\n      jump\t// out\n        /* \"#utility.yul\":88:205   */\n    tag_261:\n        /* \"#utility.yul\":197:198   */\n      0x00\n        /* \"#utility.yul\":194:195   */\n      dup1\n        /* \"#utility.yul\":187:199   */\n      revert\n        /* \"#utility.yul\":211:328   */\n    tag_262:\n        /* \"#utility.yul\":320:321   */\n      0x00\n        /* \"#utility.yul\":317:318   */\n      dup1\n        /* \"#utility.yul\":310:322   */\n      revert\n        /* \"#utility.yul\":334:411   */\n    tag_263:\n        /* \"#utility.yul\":371:378   */\n      0x00\n        /* \"#utility.yul\":400:405   */\n      dup2\n        /* \"#utility.yul\":389:405   */\n      swap1\n      pop\n        /* \"#utility.yul\":334:411   */\n      swap2\n      swap1\n      pop\n      jump\t// out\n        /* \"#utility.yul\":417:539   */\n    tag_264:\n        /* \"#utility.yul\":490:514   */\n      tag_343\n        /* \"#utility.yul\":508:513   */\n      dup2\n        /* \"#utility.yul\":490:514   */\n      tag_263\n      jump\t// in\n    tag_343:\n        /* \"#utility.yul\":483:488   */\n      dup2\n        /* \"#utility.yul\":480:515   */\n      eq\n        /* \"#utility.yul\":470:533   */\n      tag_344\n      jumpi\n        /* \"#utility.yul\":529:530   */\n      0x00\n        /* \"#utility.yul\":526:527   */\n      dup1\n        /* \"#utility.yul\":519:531   */\n      revert\n        /* \"#utility.yul\":470:533   */\n    tag_344:\n        /* \"#utility.yul\":417:539   */\n      pop\n      jump\t// out\n        /* \"#utility.yul\":545:684   */\n    tag_265:\n        /* \"#utility.yul\":591:596   */\n      0x00\n        /* \"#utility.yul\":629:635   */\n      dup2\n        /* \"#utility.yul\":616:636   */\n      calldataload\n        /* \"#utility.yul\":607:636   */\n      swap1\n      pop\n        /* \"#utility.yul\":645:678   */\n      tag_346\n        /* \"#utility.yul\":672:677   */\n      dup2\n        /* \"#utility.yul\":645:678   */\n      tag_264\n      jump\t// in\n    tag_346:\n        /* \"#utility.yul\":545:684   */\n      swap3\n      swap2\n      pop\n      pop\n      jump\t// out\n        /* \"#utility.yul\":690:1019   */\n    tag_24:\n        /* \"#utility.yul\":749:755   */\n      0x00\n        /* \"#utility.yul\":798:800   */\n      0x20\n        /* \"#utility.yul\":786:795   */\n      dup3\n        /* \"#utility.yul\":777:784   */\n      dup5\n        /* \"#utility.yul\":773:796   */\n      sub\n        /* \"#utility.yul\":769:801   */\n      slt\n        /* \"#utility.yul\":766:885   */\n      iszero\n      tag_348\n      jumpi\n        /* \"#utility.yul\":804:883   */\n      tag_349\n      tag_261\n      jump\t// in\n    tag_349:\n        /* \"#utility.yul\":766:885   */\n    tag_348:\n        /* \"#utility.yul\":924:925   */\n      0x00\n        /* \"#utility.yul\":949:1002   */\n      tag_350\n        /* \"#utility.yul\":994:1001   */\n      dup5\n        /* \"#utility.yul\":985:991   */\n      dup3\n        /* \"#utility.yul\":974:983   */\n      dup6\n        /* \"#utility.yul\":970:992   */\n      add\n        /* \"#utility.yul\":949:1002   */\n      tag_265\n      jump\t// in\n    tag_350:\n        /* \"#utility.yul\":939:1002   */\n      swap2\n      pop\n        /* \"#utility.yul\":895:1012   */\n      pop\n        /* \"#utility.yul\":690:1019   */\n      swap3\n      swap2\n      pop\n      pop\n      jump\t// out\n        /* \"#utility.yul\":1025:1133   */\n    tag_266:\n        /* \"#utility.yul\":1102:1126   */\n      tag_352\n        /* \"#utility.yul\":1120:1125   */\n      dup2\n        /* \"#utility.yul\":1102:1126   */\n      tag_263\n      jump\t// in\n    tag_352:\n        /* \"#utility.yul\":1097:1100   */\n      dup3\n        /* \"#utility.yul\":1090:1127   */\n      mstore\n        /* \"#utility.yul\":1025:1133   */\n      pop\n      pop\n      jump\t// out\n        /* \"#utility.yul\":1139:1265   */\n    tag_267:\n        /* \"#utility.yul\":1176:1183   */\n      0x00\n        /* \"#utility.yul\":1216:1258   */\n      0xffffffffffffffffffffffffffffffffffffffff\n        /* \"#utility.yul\":1209:1214   */\n      dup3\n        /* \"#utility.yul\":1205:1259   */\n      and\n        /* \"#utility.yul\":1194:1259   */\n      swap1\n      pop\n        /* \"#utility.yul\":1139:1265   */\n      swap2\n      swap1\n      pop\n      jump\t// out\n        /* \"#utility.yul\":1271:1367   */\n    tag_268:\n        /* \"#utility.yul\":1308:1315   */\n      0x00\n        /* \"#utility.yul\":1337:1361   */\n      tag_355\n        /* \"#utility.yul\":1355:1360   */\n      dup3\n        /* \"#utility.yul\":1337:1361   */\n      tag_267\n      jump\t// in\n    tag_355:\n        /* \"#utility.yul\":1326:1361   */\n      swap1\n      pop\n        /* \"#utility.yul\":1271:1367   */\n      swap2\n      swap1\n      pop\n      jump\t// out\n        /* \"#utility.yul\":1373:1481   */\n    tag_269:\n        /* \"#utility.yul\":1450:1474   */\n      tag_357\n        /* \"#utility.yul\":1468:1473   */\n      dup2\n        /* \"#utility.yul\":1450:1474   */\n      tag_268\n      jump\t// in\n    tag_357:\n        /* \"#utility.yul\":1445:1448   */\n      dup3\n        /* \"#utility.yul\":1438:1475   */\n      mstore\n        /* \"#utility.yul\":1373:1481   */\n      pop\n      pop\n      jump\t// out\n        /* \"#utility.yul\":1487:1586   */\n    tag_270:\n        /* \"#utility.yul\":1539:1545   */\n      0x00\n        /* \"#utility.yul\":1573:1578   */\n      dup2\n        /* \"#utility.yul\":1567:1579   */\n      mload\n        /* \"#utility.yul\":1557:1579   */\n      swap1\n      pop\n        /* \"#utility.yul\":1487:1586   */\n      swap2\n      swap1\n      pop\n      jump\t// out\n        /* \"#utility.yul\":1592:1751   */\n    tag_271:\n        /* \"#utility.yul\":1666:1677   */\n      0x00\n        /* \"#utility.yul\":1700:1706   */\n      dup3\n        /* \"#utility.yul\":1695:1698   */\n      dup3\n        /* \"#utility.yul\":1688:1707   */\n      mstore\n        /* \"#utility.yul\":1740:1744   */\n      0x20\n        /* \"#utility.yul\":1735:1738   */\n      dup3\n        /* \"#utility.yul\":1731:1745   */\n      add\n        /* \"#utility.yul\":1716:1745   */\n      swap1\n      pop\n        /* \"#utility.yul\":1592:1751   */\n      swap3\n      swap2\n      pop\n      pop\n      jump\t// out\n        /* \"#utility.yul\":1757:2064   */\n    tag_272:\n        /* \"#utility.yul\":1825:1826   */\n      0x00\n        /* \"#utility.yul\":1835:1948   */\n    tag_361:\n        /* \"#utility.yul\":1849:1855   */\n      dup4\n        /* \"#utility.yul\":1846:1847   */\n      dup2\n        /* \"#utility.yul\":1843:1856   */\n      lt\n        /* \"#utility.yul\":1835:1948   */\n      iszero\n      tag_363\n      jumpi\n        /* \"#utility.yul\":1934:1935   */\n      dup1\n        /* \"#utility.yul\":1929:1932   */\n      dup3\n        /* \"#utility.yul\":1925:1936   */\n      add\n        /* \"#utility.yul\":1919:1937   */\n      mload\n        /* \"#utility.yul\":1915:1916   */\n      dup2\n        /* \"#utility.yul\":1910:1913   */\n      dup5\n        /* \"#utility.yul\":1906:1917   */\n      add\n        /* \"#utility.yul\":1899:1938   */\n      mstore\n        /* \"#utility.yul\":1871:1873   */\n      0x20\n        /* \"#utility.yul\":1868:1869   */\n      dup2\n        /* \"#utility.yul\":1864:1874   */\n      add\n        /* \"#utility.yul\":1859:1874   */\n      swap1\n      pop\n        /* \"#utility.yul\":1835:1948   */\n      jump(tag_361)\n    tag_363:\n        /* \"#utility.yul\":1966:1972   */\n      dup4\n        /* \"#utility.yul\":1963:1964   */\n      dup2\n        /* \"#utility.yul\":1960:1973   */\n      gt\n        /* \"#utility.yul\":1957:2058   */\n      iszero\n      tag_364\n      jumpi\n        /* \"#utility.yul\":2046:2047   */\n      0x00\n        /* \"#utility.yul\":2037:2043   */\n      dup5\n        /* \"#utility.yul\":2032:2035   */\n      dup5\n        /* \"#utility.yul\":2028:2044   */\n      add\n        /* \"#utility.yul\":2021:2048   */\n      mstore\n        /* \"#utility.yul\":1957:2058   */\n    tag_364:\n        /* \"#utility.yul\":1806:2064   */\n      pop\n        /* \"#utility.yul\":1757:2064   */\n      pop\n      pop\n      pop\n      jump\t// out\n        /* \"#utility.yul\":2070:2172   */\n    tag_273:\n        /* \"#utility.yul\":2111:2117   */\n      0x00\n        /* \"#utility.yul\":2162:2164   */\n      0x1f\n        /* \"#utility.yul\":2158:2165   */\n      not\n        /* \"#utility.yul\":2153:2155   */\n      0x1f\n        /* \"#utility.yul\":2146:2151   */\n      dup4\n        /* \"#utility.yul\":2142:2156   */\n      add\n        /* \"#utility.yul\":2138:2166   */\n      and\n        /* \"#utility.yul\":2128:2166   */\n      swap1\n      pop\n        /* \"#utility.yul\":2070:2172   */\n      swap2\n      swap1\n      pop\n      jump\t// out\n        /* \"#utility.yul\":2178:2522   */\n    tag_274:\n        /* \"#utility.yul\":2256:2259   */\n      0x00\n        /* \"#utility.yul\":2284:2323   */\n      tag_367\n        /* \"#utility.yul\":2317:2322   */\n      dup3\n        /* \"#utility.yul\":2284:2323   */\n      tag_270\n      jump\t// in\n    tag_367:\n        /* \"#utility.yul\":2339:2400   */\n      tag_368\n        /* \"#utility.yul\":2393:2399   */\n      dup2\n        /* \"#utility.yul\":2388:2391   */\n      dup6\n        /* \"#utility.yul\":2339:2400   */\n      tag_271\n      jump\t// in\n    tag_368:\n        /* \"#utility.yul\":2332:2400   */\n      swap4\n      pop\n        /* \"#utility.yul\":2409:2461   */\n      tag_369\n        /* \"#utility.yul\":2454:2460   */\n      dup2\n        /* \"#utility.yul\":2449:2452   */\n      dup6\n        /* \"#utility.yul\":2442:2446   */\n      0x20\n        /* \"#utility.yul\":2435:2440   */\n      dup7\n        /* \"#utility.yul\":2431:2447   */\n      add\n        /* \"#utility.yul\":2409:2461   */\n      tag_272\n      jump\t// in\n    tag_369:\n        /* \"#utility.yul\":2486:2515   */\n      tag_370\n        /* \"#utility.yul\":2508:2514   */\n      dup2\n        /* \"#utility.yul\":2486:2515   */\n      tag_273\n      jump\t// in\n    tag_370:\n        /* \"#utility.yul\":2481:2484   */\n      dup5\n        /* \"#utility.yul\":2477:2516   */\n      add\n        /* \"#utility.yul\":2470:2516   */\n      swap2\n      pop\n        /* \"#utility.yul\":2260:2522   */\n      pop\n        /* \"#utility.yul\":2178:2522   */\n      swap3\n      swap2\n      pop\n      pop\n      jump\t// out\n        /* \"#utility.yul\":2528:2642   */\n    tag_275:\n        /* \"#utility.yul\":2595:2601   */\n      0x00\n        /* \"#utility.yul\":2629:2634   */\n      dup2\n        /* \"#utility.yul\":2623:2635   */\n      mload\n        /* \"#utility.yul\":2613:2635   */\n      swap1\n      pop\n        /* \"#utility.yul\":2528:2642   */\n      swap2\n      swap1\n      pop\n      jump\t// out\n        /* \"#utility.yul\":2648:2822   */\n    tag_276:\n        /* \"#utility.yul\":2737:2748   */\n      0x00\n        /* \"#utility.yul\":2771:2777   */\n      dup3\n        /* \"#utility.yul\":2766:2769   */\n      dup3\n        /* \"#utility.yul\":2759:2778   */\n      mstore\n        /* \"#utility.yul\":2811:2815   */\n      0x20\n        /* \"#utility.yul\":2806:2809   */\n      dup3\n        /* \"#utility.yul\":2802:2816   */\n      add\n        /* \"#utility.yul\":2787:2816   */\n      swap1\n      pop\n        /* \"#utility.yul\":2648:2822   */\n      swap3\n      swap2\n      pop\n      pop\n      jump\t// out\n        /* \"#utility.yul\":2828:2960   */\n    tag_277:\n        /* \"#utility.yul\":2895:2899   */\n      0x00\n        /* \"#utility.yul\":2918:2921   */\n      dup2\n        /* \"#utility.yul\":2910:2921   */\n      swap1\n      pop\n        /* \"#utility.yul\":2948:2952   */\n      0x20\n        /* \"#utility.yul\":2943:2946   */\n      dup3\n        /* \"#utility.yul\":2939:2953   */\n      add\n        /* \"#utility.yul\":2931:2953   */\n      swap1\n      pop\n        /* \"#utility.yul\":2828:2960   */\n      swap2\n      swap1\n      pop\n      jump\t// out\n        /* \"#utility.yul\":2966:3145   */\n    tag_278:\n        /* \"#utility.yul\":3035:3045   */\n      0x00\n        /* \"#utility.yul\":3056:3102   */\n      tag_375\n        /* \"#utility.yul\":3098:3101   */\n      dup4\n        /* \"#utility.yul\":3090:3096   */\n      dup4\n        /* \"#utility.yul\":3056:3102   */\n      tag_266\n      jump\t// in\n    tag_375:\n        /* \"#utility.yul\":3134:3138   */\n      0x20\n        /* \"#utility.yul\":3129:3132   */\n      dup4\n        /* \"#utility.yul\":3125:3139   */\n      add\n        /* \"#utility.yul\":3111:3139   */\n      swap1\n      pop\n        /* \"#utility.yul\":2966:3145   */\n      swap3\n      swap2\n      pop\n      pop\n      jump\t// out\n        /* \"#utility.yul\":3151:3264   */\n    tag_279:\n        /* \"#utility.yul\":3221:3225   */\n      0x00\n        /* \"#utility.yul\":3253:3257   */\n      0x20\n        /* \"#utility.yul\":3248:3251   */\n      dup3\n        /* \"#utility.yul\":3244:3258   */\n      add\n        /* \"#utility.yul\":3236:3258   */\n      swap1\n      pop\n        /* \"#utility.yul\":3151:3264   */\n      swap2\n      swap1\n      pop\n      jump\t// out\n        /* \"#utility.yul\":3300:4012   */\n    tag_280:\n        /* \"#utility.yul\":3409:3412   */\n      0x00\n        /* \"#utility.yul\":3438:3492   */\n      tag_378\n        /* \"#utility.yul\":3486:3491   */\n      dup3\n        /* \"#utility.yul\":3438:3492   */\n      tag_275\n      jump\t// in\n    tag_378:\n        /* \"#utility.yul\":3508:3584   */\n      tag_379\n        /* \"#utility.yul\":3577:3583   */\n      dup2\n        /* \"#utility.yul\":3572:3575   */\n      dup6\n        /* \"#utility.yul\":3508:3584   */\n      tag_276\n      jump\t// in\n    tag_379:\n        /* \"#utility.yul\":3501:3584   */\n      swap4\n      pop\n        /* \"#utility.yul\":3608:3664   */\n      tag_380\n        /* \"#utility.yul\":3658:3663   */\n      dup4\n        /* \"#utility.yul\":3608:3664   */\n      tag_277\n      jump\t// in\n    tag_380:\n        /* \"#utility.yul\":3687:3694   */\n      dup1\n        /* \"#utility.yul\":3718:3719   */\n      0x00\n        /* \"#utility.yul\":3703:3987   */\n    tag_381:\n        /* \"#utility.yul\":3728:3734   */\n      dup4\n        /* \"#utility.yul\":3725:3726   */\n      dup2\n        /* \"#utility.yul\":3722:3735   */\n      lt\n        /* \"#utility.yul\":3703:3987   */\n      iszero\n      tag_383\n      jumpi\n        /* \"#utility.yul\":3804:3810   */\n      dup2\n        /* \"#utility.yul\":3798:3811   */\n      mload\n        /* \"#utility.yul\":3831:3894   */\n      tag_384\n        /* \"#utility.yul\":3890:3893   */\n      dup9\n        /* \"#utility.yul\":3875:3888   */\n      dup3\n        /* \"#utility.yul\":3831:3894   */\n      tag_278\n      jump\t// in\n    tag_384:\n        /* \"#utility.yul\":3824:3894   */\n      swap8\n      pop\n        /* \"#utility.yul\":3917:3977   */\n      tag_385\n        /* \"#utility.yul\":3970:3976   */\n      dup4\n        /* \"#utility.yul\":3917:3977   */\n      tag_279\n      jump\t// in\n    tag_385:\n        /* \"#utility.yul\":3907:3977   */\n      swap3\n      pop\n        /* \"#utility.yul\":3763:3987   */\n      pop\n        /* \"#utility.yul\":3750:3751   */\n      0x01\n        /* \"#utility.yul\":3747:3748   */\n      dup2\n        /* \"#utility.yul\":3743:3752   */\n      add\n        /* \"#utility.yul\":3738:3752   */\n      swap1\n      pop\n        /* \"#utility.yul\":3703:3987   */\n      jump(tag_381)\n    tag_383:\n        /* \"#utility.yul\":3707:3721   */\n      pop\n        /* \"#utility.yul\":4003:4006   */\n      dup6\n        /* \"#utility.yul\":3996:4006   */\n      swap4\n      pop\n        /* \"#utility.yul\":3414:4012   */\n      pop\n      pop\n      pop\n        /* \"#utility.yul\":3300:4012   */\n      swap3\n      swap2\n      pop\n      pop\n      jump\t// out\n        /* \"#utility.yul\":4074:5364   */\n    tag_281:\n        /* \"#utility.yul\":4189:4192   */\n      0x00\n        /* \"#utility.yul\":4225:4229   */\n      0xa0\n        /* \"#utility.yul\":4220:4223   */\n      dup4\n        /* \"#utility.yul\":4216:4230   */\n      add\n        /* \"#utility.yul\":4320:4324   */\n      0x00\n        /* \"#utility.yul\":4313:4318   */\n      dup4\n        /* \"#utility.yul\":4309:4325   */\n      add\n        /* \"#utility.yul\":4303:4326   */\n      mload\n        /* \"#utility.yul\":4339:4402   */\n      tag_387\n        /* \"#utility.yul\":4396:4400   */\n      0x00\n        /* \"#utility.yul\":4391:4394   */\n      dup7\n        /* \"#utility.yul\":4387:4401   */\n      add\n        /* \"#utility.yul\":4373:4385   */\n      dup3\n        /* \"#utility.yul\":4339:4402   */\n      tag_266\n      jump\t// in\n    tag_387:\n        /* \"#utility.yul\":4240:4412   */\n      pop\n        /* \"#utility.yul\":4503:4507   */\n      0x20\n        /* \"#utility.yul\":4496:4501   */\n      dup4\n        /* \"#utility.yul\":4492:4508   */\n      add\n        /* \"#utility.yul\":4486:4509   */\n      mload\n        /* \"#utility.yul\":4522:4585   */\n      tag_388\n        /* \"#utility.yul\":4579:4583   */\n      0x20\n        /* \"#utility.yul\":4574:4577   */\n      dup7\n        /* \"#utility.yul\":4570:4584   */\n      add\n        /* \"#utility.yul\":4556:4568   */\n      dup3\n        /* \"#utility.yul\":4522:4585   */\n      tag_269\n      jump\t// in\n    tag_388:\n        /* \"#utility.yul\":4422:4595   */\n      pop\n        /* \"#utility.yul\":4687:4691   */\n      0x40\n        /* \"#utility.yul\":4680:4685   */\n      dup4\n        /* \"#utility.yul\":4676:4692   */\n      add\n        /* \"#utility.yul\":4670:4693   */\n      mload\n        /* \"#utility.yul\":4706:4769   */\n      tag_389\n        /* \"#utility.yul\":4763:4767   */\n      0x40\n        /* \"#utility.yul\":4758:4761   */\n      dup7\n        /* \"#utility.yul\":4754:4768   */\n      add\n        /* \"#utility.yul\":4740:4752   */\n      dup3\n        /* \"#utility.yul\":4706:4769   */\n      tag_269\n      jump\t// in\n    tag_389:\n        /* \"#utility.yul\":4605:4779   */\n      pop\n        /* \"#utility.yul\":4882:4886   */\n      0x60\n        /* \"#utility.yul\":4875:4880   */\n      dup4\n        /* \"#utility.yul\":4871:4887   */\n      add\n        /* \"#utility.yul\":4865:4888   */\n      mload\n        /* \"#utility.yul\":4935:4938   */\n      dup5\n        /* \"#utility.yul\":4929:4933   */\n      dup3\n        /* \"#utility.yul\":4925:4939   */\n      sub\n        /* \"#utility.yul\":4918:4922   */\n      0x60\n        /* \"#utility.yul\":4913:4916   */\n      dup7\n        /* \"#utility.yul\":4909:4923   */\n      add\n        /* \"#utility.yul\":4902:4940   */\n      mstore\n        /* \"#utility.yul\":4961:5034   */\n      tag_390\n        /* \"#utility.yul\":5029:5033   */\n      dup3\n        /* \"#utility.yul\":5015:5027   */\n      dup3\n        /* \"#utility.yul\":4961:5034   */\n      tag_274\n      jump\t// in\n    tag_390:\n        /* \"#utility.yul\":4953:5034   */\n      swap2\n      pop\n        /* \"#utility.yul\":4789:5045   */\n      pop\n        /* \"#utility.yul\":5144:5148   */\n      0x80\n        /* \"#utility.yul\":5137:5142   */\n      dup4\n        /* \"#utility.yul\":5133:5149   */\n      add\n        /* \"#utility.yul\":5127:5150   */\n      mload\n        /* \"#utility.yul\":5197:5200   */\n      dup5\n        /* \"#utility.yul\":5191:5195   */\n      dup3\n        /* \"#utility.yul\":5187:5201   */\n      sub\n        /* \"#utility.yul\":5180:5184   */\n      0x80\n        /* \"#utility.yul\":5175:5178   */\n      dup7\n        /* \"#utility.yul\":5171:5185   */\n      add\n        /* \"#utility.yul\":5164:5202   */\n      mstore\n        /* \"#utility.yul\":5223:5326   */\n      tag_391\n        /* \"#utility.yul\":5321:5325   */\n      dup3\n        /* \"#utility.yul\":5307:5319   */\n      dup3\n        /* \"#utility.yul\":5223:5326   */\n      tag_280\n      jump\t// in\n    tag_391:\n        /* \"#utility.yul\":5215:5326   */\n      swap2\n      pop\n        /* \"#utility.yul\":5055:5337   */\n      pop\n        /* \"#utility.yul\":5354:5358   */\n      dup1\n        /* \"#utility.yul\":5347:5358   */\n      swap2\n      pop\n        /* \"#utility.yul\":4194:5364   */\n      pop\n        /* \"#utility.yul\":4074:5364   */\n      swap3\n      swap2\n      pop\n      pop\n      jump\t// out\n        /* \"#utility.yul\":5370:5735   */\n    tag_27:\n        /* \"#utility.yul\":5509:5513   */\n      0x00\n        /* \"#utility.yul\":5547:5549   */\n      0x20\n        /* \"#utility.yul\":5536:5545   */\n      dup3\n        /* \"#utility.yul\":5532:5550   */\n      add\n        /* \"#utility.yul\":5524:5550   */\n      swap1\n      pop\n        /* \"#utility.yul\":5596:5605   */\n      dup2\n        /* \"#utility.yul\":5590:5594   */\n      dup2\n        /* \"#utility.yul\":5586:5606   */\n      sub\n        /* \"#utility.yul\":5582:5583   */\n      0x00\n        /* \"#utility.yul\":5571:5580   */\n      dup4\n        /* \"#utility.yul\":5567:5584   */\n      add\n        /* \"#utility.yul\":5560:5607   */\n      mstore\n        /* \"#utility.yul\":5624:5728   */\n      tag_393\n        /* \"#utility.yul\":5723:5727   */\n      dup2\n        /* \"#utility.yul\":5714:5720   */\n      dup5\n        /* \"#utility.yul\":5624:5728   */\n      tag_281\n      jump\t// in\n    tag_393:\n        /* \"#utility.yul\":5616:5728   */\n      swap1\n      pop\n        /* \"#utility.yul\":5370:5735   */\n      swap3\n      swap2\n      pop\n      pop\n      jump\t// out\n        /* \"#utility.yul\":5741:5859   */\n    tag_282:\n        /* \"#utility.yul\":5828:5852   */\n      tag_395\n        /* \"#utility.yul\":5846:5851   */\n      dup2\n        /* \"#utility.yul\":5828:5852   */\n      tag_268\n      jump\t// in\n    tag_395:\n        /* \"#utility.yul\":5823:5826   */\n      dup3\n        /* \"#utility.yul\":5816:5853   */\n      mstore\n        /* \"#utility.yul\":5741:5859   */\n      pop\n      pop\n      jump\t// out\n        /* \"#utility.yul\":5865:6087   */\n    tag_32:\n        /* \"#utility.yul\":5958:5962   */\n      0x00\n        /* \"#utility.yul\":5996:5998   */\n      0x20\n        /* \"#utility.yul\":5985:5994   */\n      dup3\n        /* \"#utility.yul\":5981:5999   */\n      add\n        /* \"#utility.yul\":5973:5999   */\n      swap1\n      pop\n        /* \"#utility.yul\":6009:6080   */\n      tag_397\n        /* \"#utility.yul\":6077:6078   */\n      0x00\n        /* \"#utility.yul\":6066:6075   */\n      dup4\n        /* \"#utility.yul\":6062:6079   */\n      add\n        /* \"#utility.yul\":6053:6059   */\n      dup5\n        /* \"#utility.yul\":6009:6080   */\n      tag_282\n      jump\t// in\n    tag_397:\n        /* \"#utility.yul\":5865:6087   */\n      swap3\n      swap2\n      pop\n      pop\n      jump\t// out\n        /* \"#utility.yul\":6093:6211   */\n    tag_283:\n        /* \"#utility.yul\":6180:6204   */\n      tag_399\n        /* \"#utility.yul\":6198:6203   */\n      dup2\n        /* \"#utility.yul\":6180:6204   */\n      tag_263\n      jump\t// in\n    tag_399:\n        /* \"#utility.yul\":6175:6178   */\n      dup3\n        /* \"#utility.yul\":6168:6205   */\n      mstore\n        /* \"#utility.yul\":6093:6211   */\n      pop\n      pop\n      jump\t// out\n        /* \"#utility.yul\":6217:6386   */\n    tag_284:\n        /* \"#utility.yul\":6301:6312   */\n      0x00\n        /* \"#utility.yul\":6335:6341   */\n      dup3\n        /* \"#utility.yul\":6330:6333   */\n      dup3\n        /* \"#utility.yul\":6323:6342   */\n      mstore\n        /* \"#utility.yul\":6375:6379   */\n      0x20\n        /* \"#utility.yul\":6370:6373   */\n      dup3\n        /* \"#utility.yul\":6366:6380   */\n      add\n        /* \"#utility.yul\":6351:6380   */\n      swap1\n      pop\n        /* \"#utility.yul\":6217:6386   */\n      swap3\n      swap2\n      pop\n      pop\n      jump\t// out\n        /* \"#utility.yul\":6392:6756   */\n    tag_285:\n        /* \"#utility.yul\":6480:6483   */\n      0x00\n        /* \"#utility.yul\":6508:6547   */\n      tag_402\n        /* \"#utility.yul\":6541:6546   */\n      dup3\n        /* \"#utility.yul\":6508:6547   */\n      tag_270\n      jump\t// in\n    tag_402:\n        /* \"#utility.yul\":6563:6634   */\n      tag_403\n        /* \"#utility.yul\":6627:6633   */\n      dup2\n        /* \"#utility.yul\":6622:6625   */\n      dup6\n        /* \"#utility.yul\":6563:6634   */\n      tag_284\n      jump\t// in\n    tag_403:\n        /* \"#utility.yul\":6556:6634   */\n      swap4\n      pop\n        /* \"#utility.yul\":6643:6695   */\n      tag_404\n        /* \"#utility.yul\":6688:6694   */\n      dup2\n        /* \"#utility.yul\":6683:6686   */\n      dup6\n        /* \"#utility.yul\":6676:6680   */\n      0x20\n        /* \"#utility.yul\":6669:6674   */\n      dup7\n        /* \"#utility.yul\":6665:6681   */\n      add\n        /* \"#utility.yul\":6643:6695   */\n      tag_272\n      jump\t// in\n    tag_404:\n        /* \"#utility.yul\":6720:6749   */\n      tag_405\n        /* \"#utility.yul\":6742:6748   */\n      dup2\n        /* \"#utility.yul\":6720:6749   */\n      tag_273\n      jump\t// in\n    tag_405:\n        /* \"#utility.yul\":6715:6718   */\n      dup5\n        /* \"#utility.yul\":6711:6750   */\n      add\n        /* \"#utility.yul\":6704:6750   */\n      swap2\n      pop\n        /* \"#utility.yul\":6484:6756   */\n      pop\n        /* \"#utility.yul\":6392:6756   */\n      swap3\n      swap2\n      pop\n      pop\n      jump\t// out\n        /* \"#utility.yul\":6762:7406   */\n    tag_37:\n        /* \"#utility.yul\":6959:6963   */\n      0x00\n        /* \"#utility.yul\":6997:7000   */\n      0x80\n        /* \"#utility.yul\":6986:6995   */\n      dup3\n        /* \"#utility.yul\":6982:7001   */\n      add\n        /* \"#utility.yul\":6974:7001   */\n      swap1\n      pop\n        /* \"#utility.yul\":7011:7082   */\n      tag_407\n        /* \"#utility.yul\":7079:7080   */\n      0x00\n        /* \"#utility.yul\":7068:7077   */\n      dup4\n        /* \"#utility.yul\":7064:7081   */\n      add\n        /* \"#utility.yul\":7055:7061   */\n      dup8\n        /* \"#utility.yul\":7011:7082   */\n      tag_283\n      jump\t// in\n    tag_407:\n        /* \"#utility.yul\":7092:7164   */\n      tag_408\n        /* \"#utility.yul\":7160:7162   */\n      0x20\n        /* \"#utility.yul\":7149:7158   */\n      dup4\n        /* \"#utility.yul\":7145:7163   */\n      add\n        /* \"#utility.yul\":7136:7142   */\n      dup7\n        /* \"#utility.yul\":7092:7164   */\n      tag_282\n      jump\t// in\n    tag_408:\n        /* \"#utility.yul\":7174:7246   */\n      tag_409\n        /* \"#utility.yul\":7242:7244   */\n      0x40\n        /* \"#utility.yul\":7231:7240   */\n      dup4\n        /* \"#utility.yul\":7227:7245   */\n      add\n        /* \"#utility.yul\":7218:7224   */\n      dup6\n        /* \"#utility.yul\":7174:7246   */\n      tag_282\n      jump\t// in\n    tag_409:\n        /* \"#utility.yul\":7293:7302   */\n      dup2\n        /* \"#utility.yul\":7287:7291   */\n      dup2\n        /* \"#utility.yul\":7283:7303   */\n      sub\n        /* \"#utility.yul\":7278:7280   */\n      0x60\n        /* \"#utility.yul\":7267:7276   */\n      dup4\n        /* \"#utility.yul\":7263:7281   */\n      add\n        /* \"#utility.yul\":7256:7304   */\n      mstore\n        /* \"#utility.yul\":7321:7399   */\n      tag_410\n        /* \"#utility.yul\":7394:7398   */\n      dup2\n        /* \"#utility.yul\":7385:7391   */\n      dup5\n        /* \"#utility.yul\":7321:7399   */\n      tag_285\n      jump\t// in\n    tag_410:\n        /* \"#utility.yul\":7313:7399   */\n      swap1\n      pop\n        /* \"#utility.yul\":6762:7406   */\n      swap6\n      swap5\n      pop\n      pop\n      pop\n      pop\n      pop\n      jump\t// out\n        /* \"#utility.yul\":7412:7596   */\n    tag_286:\n        /* \"#utility.yul\":7511:7522   */\n      0x00\n        /* \"#utility.yul\":7545:7551   */\n      dup3\n        /* \"#utility.yul\":7540:7543   */\n      dup3\n        /* \"#utility.yul\":7533:7552   */\n      mstore\n        /* \"#utility.yul\":7585:7589   */\n      0x20\n        /* \"#utility.yul\":7580:7583   */\n      dup3\n        /* \"#utility.yul\":7576:7590   */\n      add\n        /* \"#utility.yul\":7561:7590   */\n      swap1\n      pop\n        /* \"#utility.yul\":7412:7596   */\n      swap3\n      swap2\n      pop\n      pop\n      jump\t// out\n        /* \"#utility.yul\":7632:8364   */\n    tag_287:\n        /* \"#utility.yul\":7751:7754   */\n      0x00\n        /* \"#utility.yul\":7780:7834   */\n      tag_413\n        /* \"#utility.yul\":7828:7833   */\n      dup3\n        /* \"#utility.yul\":7780:7834   */\n      tag_275\n      jump\t// in\n    tag_413:\n        /* \"#utility.yul\":7850:7936   */\n      tag_414\n        /* \"#utility.yul\":7929:7935   */\n      dup2\n        /* \"#utility.yul\":7924:7927   */\n      dup6\n        /* \"#utility.yul\":7850:7936   */\n      tag_286\n      jump\t// in\n    tag_414:\n        /* \"#utility.yul\":7843:7936   */\n      swap4\n      pop\n        /* \"#utility.yul\":7960:8016   */\n      tag_415\n        /* \"#utility.yul\":8010:8015   */\n      dup4\n        /* \"#utility.yul\":7960:8016   */\n      tag_277\n      jump\t// in\n    tag_415:\n        /* \"#utility.yul\":8039:8046   */\n      dup1\n        /* \"#utility.yul\":8070:8071   */\n      0x00\n        /* \"#utility.yul\":8055:8339   */\n    tag_416:\n        /* \"#utility.yul\":8080:8086   */\n      dup4\n        /* \"#utility.yul\":8077:8078   */\n      dup2\n        /* \"#utility.yul\":8074:8087   */\n      lt\n        /* \"#utility.yul\":8055:8339   */\n      iszero\n      tag_418\n      jumpi\n        /* \"#utility.yul\":8156:8162   */\n      dup2\n        /* \"#utility.yul\":8150:8163   */\n      mload\n        /* \"#utility.yul\":8183:8246   */\n      tag_419\n        /* \"#utility.yul\":8242:8245   */\n      dup9\n        /* \"#utility.yul\":8227:8240   */\n      dup3\n        /* \"#utility.yul\":8183:8246   */\n      tag_278\n      jump\t// in\n    tag_419:\n        /* \"#utility.yul\":8176:8246   */\n      swap8\n      pop\n        /* \"#utility.yul\":8269:8329   */\n      tag_420\n        /* \"#utility.yul\":8322:8328   */\n      dup4\n        /* \"#utility.yul\":8269:8329   */\n      tag_279\n      jump\t// in\n    tag_420:\n        /* \"#utility.yul\":8259:8329   */\n      swap3\n      pop\n        /* \"#utility.yul\":8115:8339   */\n      pop\n        /* \"#utility.yul\":8102:8103   */\n      0x01\n        /* \"#utility.yul\":8099:8100   */\n      dup2\n        /* \"#utility.yul\":8095:8104   */\n      add\n        /* \"#utility.yul\":8090:8104   */\n      swap1\n      pop\n        /* \"#utility.yul\":8055:8339   */\n      jump(tag_416)\n    tag_418:\n        /* \"#utility.yul\":8059:8073   */\n      pop\n        /* \"#utility.yul\":8355:8358   */\n      dup6\n        /* \"#utility.yul\":8348:8358   */\n      swap4\n      pop\n        /* \"#utility.yul\":7756:8364   */\n      pop\n      pop\n      pop\n        /* \"#utility.yul\":7632:8364   */\n      swap3\n      swap2\n      pop\n      pop\n      jump\t// out\n        /* \"#utility.yul\":8370:8743   */\n    tag_41:\n        /* \"#utility.yul\":8513:8517   */\n      0x00\n        /* \"#utility.yul\":8551:8553   */\n      0x20\n        /* \"#utility.yul\":8540:8549   */\n      dup3\n        /* \"#utility.yul\":8536:8554   */\n      add\n        /* \"#utility.yul\":8528:8554   */\n      swap1\n      pop\n        /* \"#utility.yul\":8600:8609   */\n      dup2\n        /* \"#utility.yul\":8594:8598   */\n      dup2\n        /* \"#utility.yul\":8590:8610   */\n      sub\n        /* \"#utility.yul\":8586:8587   */\n      0x00\n        /* \"#utility.yul\":8575:8584   */\n      dup4\n        /* \"#utility.yul\":8571:8588   */\n      add\n        /* \"#utility.yul\":8564:8611   */\n      mstore\n        /* \"#utility.yul\":8628:8736   */\n      tag_422\n        /* \"#utility.yul\":8731:8735   */\n      dup2\n        /* \"#utility.yul\":8722:8728   */\n      dup5\n        /* \"#utility.yul\":8628:8736   */\n      tag_287\n      jump\t// in\n    tag_422:\n        /* \"#utility.yul\":8620:8736   */\n      swap1\n      pop\n        /* \"#utility.yul\":8370:8743   */\n      swap3\n      swap2\n      pop\n      pop\n      jump\t// out\n        /* \"#utility.yul\":8749:8871   */\n    tag_288:\n        /* \"#utility.yul\":8822:8846   */\n      tag_424\n        /* \"#utility.yul\":8840:8845   */\n      dup2\n        /* \"#utility.yul\":8822:8846   */\n      tag_268\n      jump\t// in\n    tag_424:\n        /* \"#utility.yul\":8815:8820   */\n      dup2\n        /* \"#utility.yul\":8812:8847   */\n      eq\n        /* \"#utility.yul\":8802:8865   */\n      tag_425\n      jumpi\n        /* \"#utility.yul\":8861:8862   */\n      0x00\n        /* \"#utility.yul\":8858:8859   */\n      dup1\n        /* \"#utility.yul\":8851:8863   */\n      revert\n        /* \"#utility.yul\":8802:8865   */\n    tag_425:\n        /* \"#utility.yul\":8749:8871   */\n      pop\n      jump\t// out\n        /* \"#utility.yul\":8877:9016   */\n    tag_289:\n        /* \"#utility.yul\":8923:8928   */\n      0x00\n        /* \"#utility.yul\":8961:8967   */\n      dup2\n        /* \"#utility.yul\":8948:8968   */\n      calldataload\n        /* \"#utility.yul\":8939:8968   */\n      swap1\n      pop\n        /* \"#utility.yul\":8977:9010   */\n      tag_427\n        /* \"#utility.yul\":9004:9009   */\n      dup2\n        /* \"#utility.yul\":8977:9010   */\n      tag_288\n      jump\t// in\n    tag_427:\n        /* \"#utility.yul\":8877:9016   */\n      swap3\n      swap2\n      pop\n      pop\n      jump\t// out\n        /* \"#utility.yul\":9022:9139   */\n    tag_290:\n        /* \"#utility.yul\":9131:9132   */\n      0x00\n        /* \"#utility.yul\":9128:9129   */\n      dup1\n        /* \"#utility.yul\":9121:9133   */\n      revert\n        /* \"#utility.yul\":9145:9262   */\n    tag_291:\n        /* \"#utility.yul\":9254:9255   */\n      0x00\n        /* \"#utility.yul\":9251:9252   */\n      dup1\n        /* \"#utility.yul\":9244:9256   */\n      revert\n        /* \"#utility.yul\":9268:9448   */\n    tag_292:\n        /* \"#utility.yul\":9316:9393   */\n      0x4e487b7100000000000000000000000000000000000000000000000000000000\n        /* \"#utility.yul\":9313:9314   */\n      0x00\n        /* \"#utility.yul\":9306:9394   */\n      mstore\n        /* \"#utility.yul\":9413:9417   */\n      0x41\n        /* \"#utility.yul\":9410:9411   */\n      0x04\n        /* \"#utility.yul\":9403:9418   */\n      mstore\n        /* \"#utility.yul\":9437:9441   */\n      0x24\n        /* \"#utility.yul\":9434:9435   */\n      0x00\n        /* \"#utility.yul\":9427:9442   */\n      revert\n        /* \"#utility.yul\":9454:9735   */\n    tag_293:\n        /* \"#utility.yul\":9537:9564   */\n      tag_432\n        /* \"#utility.yul\":9559:9563   */\n      dup3\n        /* \"#utility.yul\":9537:9564   */\n      tag_273\n      jump\t// in\n    tag_432:\n        /* \"#utility.yul\":9529:9535   */\n      dup2\n        /* \"#utility.yul\":9525:9565   */\n      add\n        /* \"#utility.yul\":9667:9673   */\n      dup2\n        /* \"#utility.yul\":9655:9665   */\n      dup2\n        /* \"#utility.yul\":9652:9674   */\n      lt\n        /* \"#utility.yul\":9631:9649   */\n      0xffffffffffffffff\n        /* \"#utility.yul\":9619:9629   */\n      dup3\n        /* \"#utility.yul\":9616:9650   */\n      gt\n        /* \"#utility.yul\":9613:9675   */\n      or\n        /* \"#utility.yul\":9610:9698   */\n      iszero\n      tag_433\n      jumpi\n        /* \"#utility.yul\":9678:9696   */\n      tag_434\n      tag_292\n      jump\t// in\n    tag_434:\n        /* \"#utility.yul\":9610:9698   */\n    tag_433:\n        /* \"#utility.yul\":9718:9728   */\n      dup1\n        /* \"#utility.yul\":9714:9716   */\n      0x40\n        /* \"#utility.yul\":9707:9729   */\n      mstore\n        /* \"#utility.yul\":9497:9735   */\n      pop\n        /* \"#utility.yul\":9454:9735   */\n      pop\n      pop\n      jump\t// out\n        /* \"#utility.yul\":9741:9870   */\n    tag_294:\n        /* \"#utility.yul\":9775:9781   */\n      0x00\n        /* \"#utility.yul\":9802:9822   */\n      tag_436\n      tag_260\n      jump\t// in\n    tag_436:\n        /* \"#utility.yul\":9792:9822   */\n      swap1\n      pop\n        /* \"#utility.yul\":9831:9864   */\n      tag_437\n        /* \"#utility.yul\":9859:9863   */\n      dup3\n        /* \"#utility.yul\":9851:9857   */\n      dup3\n        /* \"#utility.yul\":9831:9864   */\n      tag_293\n      jump\t// in\n    tag_437:\n        /* \"#utility.yul\":9741:9870   */\n      swap2\n      swap1\n      pop\n      jump\t// out\n        /* \"#utility.yul\":9876:10184   */\n    tag_295:\n        /* \"#utility.yul\":9938:9942   */\n      0x00\n        /* \"#utility.yul\":10028:10046   */\n      0xffffffffffffffff\n        /* \"#utility.yul\":10020:10026   */\n      dup3\n        /* \"#utility.yul\":10017:10047   */\n      gt\n        /* \"#utility.yul\":10014:10070   */\n      iszero\n      tag_439\n      jumpi\n        /* \"#utility.yul\":10050:10068   */\n      tag_440\n      tag_292\n      jump\t// in\n    tag_440:\n        /* \"#utility.yul\":10014:10070   */\n    tag_439:\n        /* \"#utility.yul\":10088:10117   */\n      tag_441\n        /* \"#utility.yul\":10110:10116   */\n      dup3\n        /* \"#utility.yul\":10088:10117   */\n      tag_273\n      jump\t// in\n    tag_441:\n        /* \"#utility.yul\":10080:10117   */\n      swap1\n      pop\n        /* \"#utility.yul\":10172:10176   */\n      0x20\n        /* \"#utility.yul\":10166:10170   */\n      dup2\n        /* \"#utility.yul\":10162:10177   */\n      add\n        /* \"#utility.yul\":10154:10177   */\n      swap1\n      pop\n        /* \"#utility.yul\":9876:10184   */\n      swap2\n      swap1\n      pop\n      jump\t// out\n        /* \"#utility.yul\":10190:10344   */\n    tag_296:\n        /* \"#utility.yul\":10274:10280   */\n      dup3\n        /* \"#utility.yul\":10269:10272   */\n      dup2\n        /* \"#utility.yul\":10264:10267   */\n      dup4\n        /* \"#utility.yul\":10251:10281   */\n      calldatacopy\n        /* \"#utility.yul\":10336:10337   */\n      0x00\n        /* \"#utility.yul\":10327:10333   */\n      dup4\n        /* \"#utility.yul\":10322:10325   */\n      dup4\n        /* \"#utility.yul\":10318:10334   */\n      add\n        /* \"#utility.yul\":10311:10338   */\n      mstore\n        /* \"#utility.yul\":10190:10344   */\n      pop\n      pop\n      pop\n      jump\t// out\n        /* \"#utility.yul\":10350:10762   */\n    tag_297:\n        /* \"#utility.yul\":10428:10433   */\n      0x00\n        /* \"#utility.yul\":10453:10519   */\n      tag_444\n        /* \"#utility.yul\":10469:10518   */\n      tag_445\n        /* \"#utility.yul\":10511:10517   */\n      dup5\n        /* \"#utility.yul\":10469:10518   */\n      tag_295\n      jump\t// in\n    tag_445:\n        /* \"#utility.yul\":10453:10519   */\n      tag_294\n      jump\t// in\n    tag_444:\n        /* \"#utility.yul\":10444:10519   */\n      swap1\n      pop\n        /* \"#utility.yul\":10542:10548   */\n      dup3\n        /* \"#utility.yul\":10535:10540   */\n      dup2\n        /* \"#utility.yul\":10528:10549   */\n      mstore\n        /* \"#utility.yul\":10580:10584   */\n      0x20\n        /* \"#utility.yul\":10573:10578   */\n      dup2\n        /* \"#utility.yul\":10569:10585   */\n      add\n        /* \"#utility.yul\":10618:10621   */\n      dup5\n        /* \"#utility.yul\":10609:10615   */\n      dup5\n        /* \"#utility.yul\":10604:10607   */\n      dup5\n        /* \"#utility.yul\":10600:10616   */\n      add\n        /* \"#utility.yul\":10597:10622   */\n      gt\n        /* \"#utility.yul\":10594:10706   */\n      iszero\n      tag_446\n      jumpi\n        /* \"#utility.yul\":10625:10704   */\n      tag_447\n      tag_291\n      jump\t// in\n    tag_447:\n        /* \"#utility.yul\":10594:10706   */\n    tag_446:\n        /* \"#utility.yul\":10715:10756   */\n      tag_448\n        /* \"#utility.yul\":10749:10755   */\n      dup5\n        /* \"#utility.yul\":10744:10747   */\n      dup3\n        /* \"#utility.yul\":10739:10742   */\n      dup6\n        /* \"#utility.yul\":10715:10756   */\n      tag_296\n      jump\t// in\n    tag_448:\n        /* \"#utility.yul\":10434:10762   */\n      pop\n        /* \"#utility.yul\":10350:10762   */\n      swap4\n      swap3\n      pop\n      pop\n      pop\n      jump\t// out\n        /* \"#utility.yul\":10782:11122   */\n    tag_298:\n        /* \"#utility.yul\":10838:10843   */\n      0x00\n        /* \"#utility.yul\":10887:10890   */\n      dup3\n        /* \"#utility.yul\":10880:10884   */\n      0x1f\n        /* \"#utility.yul\":10872:10878   */\n      dup4\n        /* \"#utility.yul\":10868:10885   */\n      add\n        /* \"#utility.yul\":10864:10891   */\n      slt\n        /* \"#utility.yul\":10854:10976   */\n      tag_450\n      jumpi\n        /* \"#utility.yul\":10895:10974   */\n      tag_451\n      tag_290\n      jump\t// in\n    tag_451:\n        /* \"#utility.yul\":10854:10976   */\n    tag_450:\n        /* \"#utility.yul\":11012:11018   */\n      dup2\n        /* \"#utility.yul\":10999:11019   */\n      calldataload\n        /* \"#utility.yul\":11037:11116   */\n      tag_452\n        /* \"#utility.yul\":11112:11115   */\n      dup5\n        /* \"#utility.yul\":11104:11110   */\n      dup3\n        /* \"#utility.yul\":11097:11101   */\n      0x20\n        /* \"#utility.yul\":11089:11095   */\n      dup7\n        /* \"#utility.yul\":11085:11102   */\n      add\n        /* \"#utility.yul\":11037:11116   */\n      tag_297\n      jump\t// in\n    tag_452:\n        /* \"#utility.yul\":11028:11116   */\n      swap2\n      pop\n        /* \"#utility.yul\":10844:11122   */\n      pop\n        /* \"#utility.yul\":10782:11122   */\n      swap3\n      swap2\n      pop\n      pop\n      jump\t// out\n        /* \"#utility.yul\":11128:11782   */\n    tag_44:\n        /* \"#utility.yul\":11206:11212   */\n      0x00\n        /* \"#utility.yul\":11214:11220   */\n      dup1\n        /* \"#utility.yul\":11263:11265   */\n      0x40\n        /* \"#utility.yul\":11251:11260   */\n      dup4\n        /* \"#utility.yul\":11242:11249   */\n      dup6\n        /* \"#utility.yul\":11238:11261   */\n      sub\n        /* \"#utility.yul\":11234:11266   */\n      slt\n        /* \"#utility.yul\":11231:11350   */\n      iszero\n      tag_454\n      jumpi\n        /* \"#utility.yul\":11269:11348   */\n      tag_455\n      tag_261\n      jump\t// in\n    tag_455:\n        /* \"#utility.yul\":11231:11350   */\n    tag_454:\n        /* \"#utility.yul\":11389:11390   */\n      0x00\n        /* \"#utility.yul\":11414:11467   */\n      tag_456\n        /* \"#utility.yul\":11459:11466   */\n      dup6\n        /* \"#utility.yul\":11450:11456   */\n      dup3\n        /* \"#utility.yul\":11439:11448   */\n      dup7\n        /* \"#utility.yul\":11435:11457   */\n      add\n        /* \"#utility.yul\":11414:11467   */\n      tag_289\n      jump\t// in\n    tag_456:\n        /* \"#utility.yul\":11404:11467   */\n      swap3\n      pop\n        /* \"#utility.yul\":11360:11477   */\n      pop\n        /* \"#utility.yul\":11544:11546   */\n      0x20\n        /* \"#utility.yul\":11533:11542   */\n      dup4\n        /* \"#utility.yul\":11529:11547   */\n      add\n        /* \"#utility.yul\":11516:11548   */\n      calldataload\n        /* \"#utility.yul\":11575:11593   */\n      0xffffffffffffffff\n        /* \"#utility.yul\":11567:11573   */\n      dup2\n        /* \"#utility.yul\":11564:11594   */\n      gt\n        /* \"#utility.yul\":11561:11678   */\n      iszero\n      tag_457\n      jumpi\n        /* \"#utility.yul\":11597:11676   */\n      tag_458\n      tag_262\n      jump\t// in\n    tag_458:\n        /* \"#utility.yul\":11561:11678   */\n    tag_457:\n        /* \"#utility.yul\":11702:11765   */\n      tag_459\n        /* \"#utility.yul\":11757:11764   */\n      dup6\n        /* \"#utility.yul\":11748:11754   */\n      dup3\n        /* \"#utility.yul\":11737:11746   */\n      dup7\n        /* \"#utility.yul\":11733:11755   */\n      add\n        /* \"#utility.yul\":11702:11765   */\n      tag_298\n      jump\t// in\n    tag_459:\n        /* \"#utility.yul\":11692:11765   */\n      swap2\n      pop\n        /* \"#utility.yul\":11487:11775   */\n      pop\n        /* \"#utility.yul\":11128:11782   */\n      swap3\n      pop\n      swap3\n      swap1\n      pop\n      jump\t// out\n        /* \"#utility.yul\":11788:12117   */\n    tag_48:\n        /* \"#utility.yul\":11847:11853   */\n      0x00\n        /* \"#utility.yul\":11896:11898   */\n      0x20\n        /* \"#utility.yul\":11884:11893   */\n      dup3\n        /* \"#utility.yul\":11875:11882   */\n      dup5\n        /* \"#utility.yul\":11871:11894   */\n      sub\n        /* \"#utility.yul\":11867:11899   */\n      slt\n        /* \"#utility.yul\":11864:11983   */\n      iszero\n      tag_461\n      jumpi\n        /* \"#utility.yul\":11902:11981   */\n      tag_462\n      tag_261\n      jump\t// in\n    tag_462:\n        /* \"#utility.yul\":11864:11983   */\n    tag_461:\n        /* \"#utility.yul\":12022:12023   */\n      0x00\n        /* \"#utility.yul\":12047:12100   */\n      tag_463\n        /* \"#utility.yul\":12092:12099   */\n      dup5\n        /* \"#utility.yul\":12083:12089   */\n      dup3\n        /* \"#utility.yul\":12072:12081   */\n      dup6\n        /* \"#utility.yul\":12068:12090   */\n      add\n        /* \"#utility.yul\":12047:12100   */\n      tag_289\n      jump\t// in\n    tag_463:\n        /* \"#utility.yul\":12037:12100   */\n      swap2\n      pop\n        /* \"#utility.yul\":11993:12110   */\n      pop\n        /* \"#utility.yul\":11788:12117   */\n      swap3\n      swap2\n      pop\n      pop\n      jump\t// out\n        /* \"#utility.yul\":12123:12637   */\n    tag_51:\n        /* \"#utility.yul\":12284:12288   */\n      0x00\n        /* \"#utility.yul\":12322:12324   */\n      0x40\n        /* \"#utility.yul\":12311:12320   */\n      dup3\n        /* \"#utility.yul\":12307:12325   */\n      add\n        /* \"#utility.yul\":12299:12325   */\n      swap1\n      pop\n        /* \"#utility.yul\":12371:12380   */\n      dup2\n        /* \"#utility.yul\":12365:12369   */\n      dup2\n        /* \"#utility.yul\":12361:12381   */\n      sub\n        /* \"#utility.yul\":12357:12358   */\n      0x00\n        /* \"#utility.yul\":12346:12355   */\n      dup4\n        /* \"#utility.yul\":12342:12359   */\n      add\n        /* \"#utility.yul\":12335:12382   */\n      mstore\n        /* \"#utility.yul\":12399:12477   */\n      tag_465\n        /* \"#utility.yul\":12472:12476   */\n      dup2\n        /* \"#utility.yul\":12463:12469   */\n      dup6\n        /* \"#utility.yul\":12399:12477   */\n      tag_285\n      jump\t// in\n    tag_465:\n        /* \"#utility.yul\":12391:12477   */\n      swap1\n      pop\n        /* \"#utility.yul\":12524:12533   */\n      dup2\n        /* \"#utility.yul\":12518:12522   */\n      dup2\n        /* \"#utility.yul\":12514:12534   */\n      sub\n        /* \"#utility.yul\":12509:12511   */\n      0x20\n        /* \"#utility.yul\":12498:12507   */\n      dup4\n        /* \"#utility.yul\":12494:12512   */\n      add\n        /* \"#utility.yul\":12487:12535   */\n      mstore\n        /* \"#utility.yul\":12552:12630   */\n      tag_466\n        /* \"#utility.yul\":12625:12629   */\n      dup2\n        /* \"#utility.yul\":12616:12622   */\n      dup5\n        /* \"#utility.yul\":12552:12630   */\n      tag_285\n      jump\t// in\n    tag_466:\n        /* \"#utility.yul\":12544:12630   */\n      swap1\n      pop\n        /* \"#utility.yul\":12123:12637   */\n      swap4\n      swap3\n      pop\n      pop\n      pop\n      jump\t// out\n        /* \"#utility.yul\":12643:13768   */\n    tag_54:\n        /* \"#utility.yul\":12749:12755   */\n      0x00\n        /* \"#utility.yul\":12757:12763   */\n      dup1\n        /* \"#utility.yul\":12765:12771   */\n      0x00\n        /* \"#utility.yul\":12773:12779   */\n      dup1\n        /* \"#utility.yul\":12822:12825   */\n      0x80\n        /* \"#utility.yul\":12810:12819   */\n      dup6\n        /* \"#utility.yul\":12801:12808   */\n      dup8\n        /* \"#utility.yul\":12797:12820   */\n      sub\n        /* \"#utility.yul\":12793:12826   */\n      slt\n        /* \"#utility.yul\":12790:12910   */\n      iszero\n      tag_468\n      jumpi\n        /* \"#utility.yul\":12829:12908   */\n      tag_469\n      tag_261\n      jump\t// in\n    tag_469:\n        /* \"#utility.yul\":12790:12910   */\n    tag_468:\n        /* \"#utility.yul\":12949:12950   */\n      0x00\n        /* \"#utility.yul\":12974:13027   */\n      tag_470\n        /* \"#utility.yul\":13019:13026   */\n      dup8\n        /* \"#utility.yul\":13010:13016   */\n      dup3\n        /* \"#utility.yul\":12999:13008   */\n      dup9\n        /* \"#utility.yul\":12995:13017   */\n      add\n        /* \"#utility.yul\":12974:13027   */\n      tag_289\n      jump\t// in\n    tag_470:\n        /* \"#utility.yul\":12964:13027   */\n      swap5\n      pop\n        /* \"#utility.yul\":12920:13037   */\n      pop\n        /* \"#utility.yul\":13104:13106   */\n      0x20\n        /* \"#utility.yul\":13093:13102   */\n      dup6\n        /* \"#utility.yul\":13089:13107   */\n      add\n        /* \"#utility.yul\":13076:13108   */\n      calldataload\n        /* \"#utility.yul\":13135:13153   */\n      0xffffffffffffffff\n        /* \"#utility.yul\":13127:13133   */\n      dup2\n        /* \"#utility.yul\":13124:13154   */\n      gt\n        /* \"#utility.yul\":13121:13238   */\n      iszero\n      tag_471\n      jumpi\n        /* \"#utility.yul\":13157:13236   */\n      tag_472\n      tag_262\n      jump\t// in\n    tag_472:\n        /* \"#utility.yul\":13121:13238   */\n    tag_471:\n        /* \"#utility.yul\":13262:13325   */\n      tag_473\n        /* \"#utility.yul\":13317:13324   */\n      dup8\n        /* \"#utility.yul\":13308:13314   */\n      dup3\n        /* \"#utility.yul\":13297:13306   */\n      dup9\n        /* \"#utility.yul\":13293:13315   */\n      add\n        /* \"#utility.yul\":13262:13325   */\n      tag_298\n      jump\t// in\n    tag_473:\n        /* \"#utility.yul\":13252:13325   */\n      swap4\n      pop\n        /* \"#utility.yul\":13047:13335   */\n      pop\n        /* \"#utility.yul\":13402:13404   */\n      0x40\n        /* \"#utility.yul\":13391:13400   */\n      dup6\n        /* \"#utility.yul\":13387:13405   */\n      add\n        /* \"#utility.yul\":13374:13406   */\n      calldataload\n        /* \"#utility.yul\":13433:13451   */\n      0xffffffffffffffff\n        /* \"#utility.yul\":13425:13431   */\n      dup2\n        /* \"#utility.yul\":13422:13452   */\n      gt\n        /* \"#utility.yul\":13419:13536   */\n      iszero\n      tag_474\n      jumpi\n        /* \"#utility.yul\":13455:13534   */\n      tag_475\n      tag_262\n      jump\t// in\n    tag_475:\n        /* \"#utility.yul\":13419:13536   */\n    tag_474:\n        /* \"#utility.yul\":13560:13623   */\n      tag_476\n        /* \"#utility.yul\":13615:13622   */\n      dup8\n        /* \"#utility.yul\":13606:13612   */\n      dup3\n        /* \"#utility.yul\":13595:13604   */\n      dup9\n        /* \"#utility.yul\":13591:13613   */\n      add\n        /* \"#utility.yul\":13560:13623   */\n      tag_298\n      jump\t// in\n    tag_476:\n        /* \"#utility.yul\":13550:13623   */\n      swap3\n      pop\n        /* \"#utility.yul\":13345:13633   */\n      pop\n        /* \"#utility.yul\":13672:13674   */\n      0x60\n        /* \"#utility.yul\":13698:13751   */\n      tag_477\n        /* \"#utility.yul\":13743:13750   */\n      dup8\n        /* \"#utility.yul\":13734:13740   */\n      dup3\n        /* \"#utility.yul\":13723:13732   */\n      dup9\n        /* \"#utility.yul\":13719:13741   */\n      add\n        /* \"#utility.yul\":13698:13751   */\n      tag_265\n      jump\t// in\n    tag_477:\n        /* \"#utility.yul\":13688:13751   */\n      swap2\n      pop\n        /* \"#utility.yul\":13643:13761   */\n      pop\n        /* \"#utility.yul\":12643:13768   */\n      swap3\n      swap6\n      swap2\n      swap5\n      pop\n      swap3\n      pop\n      jump\t// out\n        /* \"#utility.yul\":13774:14753   */\n    tag_58:\n        /* \"#utility.yul\":13871:13877   */\n      0x00\n        /* \"#utility.yul\":13879:13885   */\n      dup1\n        /* \"#utility.yul\":13887:13893   */\n      0x00\n        /* \"#utility.yul\":13936:13938   */\n      0x60\n        /* \"#utility.yul\":13924:13933   */\n      dup5\n        /* \"#utility.yul\":13915:13922   */\n      dup7\n        /* \"#utility.yul\":13911:13934   */\n      sub\n        /* \"#utility.yul\":13907:13939   */\n      slt\n        /* \"#utility.yul\":13904:14023   */\n      iszero\n      tag_479\n      jumpi\n        /* \"#utility.yul\":13942:14021   */\n      tag_480\n      tag_261\n      jump\t// in\n    tag_480:\n        /* \"#utility.yul\":13904:14023   */\n    tag_479:\n        /* \"#utility.yul\":14062:14063   */\n      0x00\n        /* \"#utility.yul\":14087:14140   */\n      tag_481\n        /* \"#utility.yul\":14132:14139   */\n      dup7\n        /* \"#utility.yul\":14123:14129   */\n      dup3\n        /* \"#utility.yul\":14112:14121   */\n      dup8\n        /* \"#utility.yul\":14108:14130   */\n      add\n        /* \"#utility.yul\":14087:14140   */\n      tag_289\n      jump\t// in\n    tag_481:\n        /* \"#utility.yul\":14077:14140   */\n      swap4\n      pop\n        /* \"#utility.yul\":14033:14150   */\n      pop\n        /* \"#utility.yul\":14217:14219   */\n      0x20\n        /* \"#utility.yul\":14206:14215   */\n      dup5\n        /* \"#utility.yul\":14202:14220   */\n      add\n        /* \"#utility.yul\":14189:14221   */\n      calldataload\n        /* \"#utility.yul\":14248:14266   */\n      0xffffffffffffffff\n        /* \"#utility.yul\":14240:14246   */\n      dup2\n        /* \"#utility.yul\":14237:14267   */\n      gt\n        /* \"#utility.yul\":14234:14351   */\n      iszero\n      tag_482\n      jumpi\n        /* \"#utility.yul\":14270:14349   */\n      tag_483\n      tag_262\n      jump\t// in\n    tag_483:\n        /* \"#utility.yul\":14234:14351   */\n    tag_482:\n        /* \"#utility.yul\":14375:14438   */\n      tag_484\n        /* \"#utility.yul\":14430:14437   */\n      dup7\n        /* \"#utility.yul\":14421:14427   */\n      dup3\n        /* \"#utility.yul\":14410:14419   */\n      dup8\n        /* \"#utility.yul\":14406:14428   */\n      add\n        /* \"#utility.yul\":14375:14438   */\n      tag_298\n      jump\t// in\n    tag_484:\n        /* \"#utility.yul\":14365:14438   */\n      swap3\n      pop\n        /* \"#utility.yul\":14160:14448   */\n      pop\n        /* \"#utility.yul\":14515:14517   */\n      0x40\n        /* \"#utility.yul\":14504:14513   */\n      dup5\n        /* \"#utility.yul\":14500:14518   */\n      add\n        /* \"#utility.yul\":14487:14519   */\n      calldataload\n        /* \"#utility.yul\":14546:14564   */\n      0xffffffffffffffff\n        /* \"#utility.yul\":14538:14544   */\n      dup2\n        /* \"#utility.yul\":14535:14565   */\n      gt\n        /* \"#utility.yul\":14532:14649   */\n      iszero\n      tag_485\n      jumpi\n        /* \"#utility.yul\":14568:14647   */\n      tag_486\n      tag_262\n      jump\t// in\n    tag_486:\n        /* \"#utility.yul\":14532:14649   */\n    tag_485:\n        /* \"#utility.yul\":14673:14736   */\n      tag_487\n        /* \"#utility.yul\":14728:14735   */\n      dup7\n        /* \"#utility.yul\":14719:14725   */\n      dup3\n        /* \"#utility.yul\":14708:14717   */\n      dup8\n        /* \"#utility.yul\":14704:14726   */\n      add\n        /* \"#utility.yul\":14673:14736   */\n      tag_298\n      jump\t// in\n    tag_487:\n        /* \"#utility.yul\":14663:14736   */\n      swap2\n      pop\n        /* \"#utility.yul\":14458:14746   */\n      pop\n        /* \"#utility.yul\":13774:14753   */\n      swap3\n      pop\n      swap3\n      pop\n      swap3\n      jump\t// out\n        /* \"#utility.yul\":14759:14849   */\n    tag_299:\n        /* \"#utility.yul\":14793:14800   */\n      0x00\n        /* \"#utility.yul\":14836:14841   */\n      dup2\n        /* \"#utility.yul\":14829:14842   */\n      iszero\n        /* \"#utility.yul\":14822:14843   */\n      iszero\n        /* \"#utility.yul\":14811:14843   */\n      swap1\n      pop\n        /* \"#utility.yul\":14759:14849   */\n      swap2\n      swap1\n      pop\n      jump\t// out\n        /* \"#utility.yul\":14855:14964   */\n    tag_300:\n        /* \"#utility.yul\":14936:14957   */\n      tag_490\n        /* \"#utility.yul\":14951:14956   */\n      dup2\n        /* \"#utility.yul\":14936:14957   */\n      tag_299\n      jump\t// in\n    tag_490:\n        /* \"#utility.yul\":14931:14934   */\n      dup3\n        /* \"#utility.yul\":14924:14958   */\n      mstore\n        /* \"#utility.yul\":14855:14964   */\n      pop\n      pop\n      jump\t// out\n        /* \"#utility.yul\":14970:15180   */\n    tag_70:\n        /* \"#utility.yul\":15057:15061   */\n      0x00\n        /* \"#utility.yul\":15095:15097   */\n      0x20\n        /* \"#utility.yul\":15084:15093   */\n      dup3\n        /* \"#utility.yul\":15080:15098   */\n      add\n        /* \"#utility.yul\":15072:15098   */\n      swap1\n      pop\n        /* \"#utility.yul\":15108:15173   */\n      tag_492\n        /* \"#utility.yul\":15170:15171   */\n      0x00\n        /* \"#utility.yul\":15159:15168   */\n      dup4\n        /* \"#utility.yul\":15155:15172   */\n      add\n        /* \"#utility.yul\":15146:15152   */\n      dup5\n        /* \"#utility.yul\":15108:15173   */\n      tag_300\n      jump\t// in\n    tag_492:\n        /* \"#utility.yul\":14970:15180   */\n      swap3\n      swap2\n      pop\n      pop\n      jump\t// out\n        /* \"#utility.yul\":15186:15660   */\n    tag_73:\n        /* \"#utility.yul\":15254:15260   */\n      0x00\n        /* \"#utility.yul\":15262:15268   */\n      dup1\n        /* \"#utility.yul\":15311:15313   */\n      0x40\n        /* \"#utility.yul\":15299:15308   */\n      dup4\n        /* \"#utility.yul\":15290:15297   */\n      dup6\n        /* \"#utility.yul\":15286:15309   */\n      sub\n        /* \"#utility.yul\":15282:15314   */\n      slt\n        /* \"#utility.yul\":15279:15398   */\n      iszero\n      tag_494\n      jumpi\n        /* \"#utility.yul\":15317:15396   */\n      tag_495\n      tag_261\n      jump\t// in\n    tag_495:\n        /* \"#utility.yul\":15279:15398   */\n    tag_494:\n        /* \"#utility.yul\":15437:15438   */\n      0x00\n        /* \"#utility.yul\":15462:15515   */\n      tag_496\n        /* \"#utility.yul\":15507:15514   */\n      dup6\n        /* \"#utility.yul\":15498:15504   */\n      dup3\n        /* \"#utility.yul\":15487:15496   */\n      dup7\n        /* \"#utility.yul\":15483:15505   */\n      add\n        /* \"#utility.yul\":15462:15515   */\n      tag_289\n      jump\t// in\n    tag_496:\n        /* \"#utility.yul\":15452:15515   */\n      swap3\n      pop\n        /* \"#utility.yul\":15408:15525   */\n      pop\n        /* \"#utility.yul\":15564:15566   */\n      0x20\n        /* \"#utility.yul\":15590:15643   */\n      tag_497\n        /* \"#utility.yul\":15635:15642   */\n      dup6\n        /* \"#utility.yul\":15626:15632   */\n      dup3\n        /* \"#utility.yul\":15615:15624   */\n      dup7\n        /* \"#utility.yul\":15611:15633   */\n      add\n        /* \"#utility.yul\":15590:15643   */\n      tag_289\n      jump\t// in\n    tag_497:\n        /* \"#utility.yul\":15580:15643   */\n      swap2\n      pop\n        /* \"#utility.yul\":15535:15653   */\n      pop\n        /* \"#utility.yul\":15186:15660   */\n      swap3\n      pop\n      swap3\n      swap1\n      pop\n      jump\t// out\n        /* \"#utility.yul\":15666:15780   */\n    tag_301:\n        /* \"#utility.yul\":15733:15739   */\n      0x00\n        /* \"#utility.yul\":15767:15772   */\n      dup2\n        /* \"#utility.yul\":15761:15773   */\n      mload\n        /* \"#utility.yul\":15751:15773   */\n      swap1\n      pop\n        /* \"#utility.yul\":15666:15780   */\n      swap2\n      swap1\n      pop\n      jump\t// out\n        /* \"#utility.yul\":15786:15970   */\n    tag_302:\n        /* \"#utility.yul\":15885:15896   */\n      0x00\n        /* \"#utility.yul\":15919:15925   */\n      dup3\n        /* \"#utility.yul\":15914:15917   */\n      dup3\n        /* \"#utility.yul\":15907:15926   */\n      mstore\n        /* \"#utility.yul\":15959:15963   */\n      0x20\n        /* \"#utility.yul\":15954:15957   */\n      dup3\n        /* \"#utility.yul\":15950:15964   */\n      add\n        /* \"#utility.yul\":15935:15964   */\n      swap1\n      pop\n        /* \"#utility.yul\":15786:15970   */\n      swap3\n      swap2\n      pop\n      pop\n      jump\t// out\n        /* \"#utility.yul\":15976:16108   */\n    tag_303:\n        /* \"#utility.yul\":16043:16047   */\n      0x00\n        /* \"#utility.yul\":16066:16069   */\n      dup2\n        /* \"#utility.yul\":16058:16069   */\n      swap1\n      pop\n        /* \"#utility.yul\":16096:16100   */\n      0x20\n        /* \"#utility.yul\":16091:16094   */\n      dup3\n        /* \"#utility.yul\":16087:16101   */\n      add\n        /* \"#utility.yul\":16079:16101   */\n      swap1\n      pop\n        /* \"#utility.yul\":15976:16108   */\n      swap2\n      swap1\n      pop\n      jump\t// out\n        /* \"#utility.yul\":16114:16293   */\n    tag_304:\n        /* \"#utility.yul\":16183:16193   */\n      0x00\n        /* \"#utility.yul\":16204:16250   */\n      tag_502\n        /* \"#utility.yul\":16246:16249   */\n      dup4\n        /* \"#utility.yul\":16238:16244   */\n      dup4\n        /* \"#utility.yul\":16204:16250   */\n      tag_269\n      jump\t// in\n    tag_502:\n        /* \"#utility.yul\":16282:16286   */\n      0x20\n        /* \"#utility.yul\":16277:16280   */\n      dup4\n        /* \"#utility.yul\":16273:16287   */\n      add\n        /* \"#utility.yul\":16259:16287   */\n      swap1\n      pop\n        /* \"#utility.yul\":16114:16293   */\n      swap3\n      swap2\n      pop\n      pop\n      jump\t// out\n        /* \"#utility.yul\":16299:16412   */\n    tag_305:\n        /* \"#utility.yul\":16369:16373   */\n      0x00\n        /* \"#utility.yul\":16401:16405   */\n      0x20\n        /* \"#utility.yul\":16396:16399   */\n      dup3\n        /* \"#utility.yul\":16392:16406   */\n      add\n        /* \"#utility.yul\":16384:16406   */\n      swap1\n      pop\n        /* \"#utility.yul\":16299:16412   */\n      swap2\n      swap1\n      pop\n      jump\t// out\n        /* \"#utility.yul\":16448:17180   */\n    tag_306:\n        /* \"#utility.yul\":16567:16570   */\n      0x00\n        /* \"#utility.yul\":16596:16650   */\n      tag_505\n        /* \"#utility.yul\":16644:16649   */\n      dup3\n        /* \"#utility.yul\":16596:16650   */\n      tag_301\n      jump\t// in\n    tag_505:\n        /* \"#utility.yul\":16666:16752   */\n      tag_506\n        /* \"#utility.yul\":16745:16751   */\n      dup2\n        /* \"#utility.yul\":16740:16743   */\n      dup6\n        /* \"#utility.yul\":16666:16752   */\n      tag_302\n      jump\t// in\n    tag_506:\n        /* \"#utility.yul\":16659:16752   */\n      swap4\n      pop\n        /* \"#utility.yul\":16776:16832   */\n      tag_507\n        /* \"#utility.yul\":16826:16831   */\n      dup4\n        /* \"#utility.yul\":16776:16832   */\n      tag_303\n      jump\t// in\n    tag_507:\n        /* \"#utility.yul\":16855:16862   */\n      dup1\n        /* \"#utility.yul\":16886:16887   */\n      0x00\n        /* \"#utility.yul\":16871:17155   */\n    tag_508:\n        /* \"#utility.yul\":16896:16902   */\n      dup4\n        /* \"#utility.yul\":16893:16894   */\n      dup2\n        /* \"#utility.yul\":16890:16903   */\n      lt\n        /* \"#utility.yul\":16871:17155   */\n      iszero\n      tag_510\n      jumpi\n        /* \"#utility.yul\":16972:16978   */\n      dup2\n        /* \"#utility.yul\":16966:16979   */\n      mload\n        /* \"#utility.yul\":16999:17062   */\n      tag_511\n        /* \"#utility.yul\":17058:17061   */\n      dup9\n        /* \"#utility.yul\":17043:17056   */\n      dup3\n        /* \"#utility.yul\":16999:17062   */\n      tag_304\n      jump\t// in\n    tag_511:\n        /* \"#utility.yul\":16992:17062   */\n      swap8\n      pop\n        /* \"#utility.yul\":17085:17145   */\n      tag_512\n        /* \"#utility.yul\":17138:17144   */\n      dup4\n        /* \"#utility.yul\":17085:17145   */\n      tag_305\n      jump\t// in\n    tag_512:\n        /* \"#utility.yul\":17075:17145   */\n      swap3\n      pop\n        /* \"#utility.yul\":16931:17155   */\n      pop\n        /* \"#utility.yul\":16918:16919   */\n      0x01\n        /* \"#utility.yul\":16915:16916   */\n      dup2\n        /* \"#utility.yul\":16911:16920   */\n      add\n        /* \"#utility.yul\":16906:16920   */\n      swap1\n      pop\n        /* \"#utility.yul\":16871:17155   */\n      jump(tag_508)\n    tag_510:\n        /* \"#utility.yul\":16875:16889   */\n      pop\n        /* \"#utility.yul\":17171:17174   */\n      dup6\n        /* \"#utility.yul\":17164:17174   */\n      swap4\n      pop\n        /* \"#utility.yul\":16572:17180   */\n      pop\n      pop\n      pop\n        /* \"#utility.yul\":16448:17180   */\n      swap3\n      swap2\n      pop\n      pop\n      jump\t// out\n        /* \"#utility.yul\":17186:17559   */\n    tag_82:\n        /* \"#utility.yul\":17329:17333   */\n      0x00\n        /* \"#utility.yul\":17367:17369   */\n      0x20\n        /* \"#utility.yul\":17356:17365   */\n      dup3\n        /* \"#utility.yul\":17352:17370   */\n      add\n        /* \"#utility.yul\":17344:17370   */\n      swap1\n      pop\n        /* \"#utility.yul\":17416:17425   */\n      dup2\n        /* \"#utility.yul\":17410:17414   */\n      dup2\n        /* \"#utility.yul\":17406:17426   */\n      sub\n        /* \"#utility.yul\":17402:17403   */\n      0x00\n        /* \"#utility.yul\":17391:17400   */\n      dup4\n        /* \"#utility.yul\":17387:17404   */\n      add\n        /* \"#utility.yul\":17380:17427   */\n      mstore\n        /* \"#utility.yul\":17444:17552   */\n      tag_514\n        /* \"#utility.yul\":17547:17551   */\n      dup2\n        /* \"#utility.yul\":17538:17544   */\n      dup5\n        /* \"#utility.yul\":17444:17552   */\n      tag_306\n      jump\t// in\n    tag_514:\n        /* \"#utility.yul\":17436:17552   */\n      swap1\n      pop\n        /* \"#utility.yul\":17186:17559   */\n      swap3\n      swap2\n      pop\n      pop\n      jump\t// out\n        /* \"#utility.yul\":17565:17728   */\n    tag_307:\n        /* \"#utility.yul\":17705:17720   */\n      0x4e6f7420666f722061646d696e00000000000000000000000000000000000000\n        /* \"#utility.yul\":17701:17702   */\n      0x00\n        /* \"#utility.yul\":17693:17699   */\n      dup3\n        /* \"#utility.yul\":17689:17703   */\n      add\n        /* \"#utility.yul\":17682:17721   */\n      mstore\n        /* \"#utility.yul\":17565:17728   */\n      pop\n      jump\t// out\n        /* \"#utility.yul\":17734:18100   */\n    tag_308:\n        /* \"#utility.yul\":17876:17879   */\n      0x00\n        /* \"#utility.yul\":17897:17964   */\n      tag_517\n        /* \"#utility.yul\":17961:17963   */\n      0x0d\n        /* \"#utility.yul\":17956:17959   */\n      dup4\n        /* \"#utility.yul\":17897:17964   */\n      tag_284\n      jump\t// in\n    tag_517:\n        /* \"#utility.yul\":17890:17964   */\n      swap2\n      pop\n        /* \"#utility.yul\":17973:18066   */\n      tag_518\n        /* \"#utility.yul\":18062:18065   */\n      dup3\n        /* \"#utility.yul\":17973:18066   */\n      tag_307\n      jump\t// in\n    tag_518:\n        /* \"#utility.yul\":18091:18093   */\n      0x20\n        /* \"#utility.yul\":18086:18089   */\n      dup3\n        /* \"#utility.yul\":18082:18094   */\n      add\n        /* \"#utility.yul\":18075:18094   */\n      swap1\n      pop\n        /* \"#utility.yul\":17734:18100   */\n      swap2\n      swap1\n      pop\n      jump\t// out\n        /* \"#utility.yul\":18106:18525   */\n    tag_98:\n        /* \"#utility.yul\":18272:18276   */\n      0x00\n        /* \"#utility.yul\":18310:18312   */\n      0x20\n        /* \"#utility.yul\":18299:18308   */\n      dup3\n        /* \"#utility.yul\":18295:18313   */\n      add\n        /* \"#utility.yul\":18287:18313   */\n      swap1\n      pop\n        /* \"#utility.yul\":18359:18368   */\n      dup2\n        /* \"#utility.yul\":18353:18357   */\n      dup2\n        /* \"#utility.yul\":18349:18369   */\n      sub\n        /* \"#utility.yul\":18345:18346   */\n      0x00\n        /* \"#utility.yul\":18334:18343   */\n      dup4\n        /* \"#utility.yul\":18330:18347   */\n      add\n        /* \"#utility.yul\":18323:18370   */\n      mstore\n        /* \"#utility.yul\":18387:18518   */\n      tag_520\n        /* \"#utility.yul\":18513:18517   */\n      dup2\n        /* \"#utility.yul\":18387:18518   */\n      tag_308\n      jump\t// in\n    tag_520:\n        /* \"#utility.yul\":18379:18518   */\n      swap1\n      pop\n        /* \"#utility.yul\":18106:18525   */\n      swap2\n      swap1\n      pop\n      jump\t// out\n        /* \"#utility.yul\":18531:18711   */\n    tag_102:\n        /* \"#utility.yul\":18579:18656   */\n      0x4e487b7100000000000000000000000000000000000000000000000000000000\n        /* \"#utility.yul\":18576:18577   */\n      0x00\n        /* \"#utility.yul\":18569:18657   */\n      mstore\n        /* \"#utility.yul\":18676:18680   */\n      0x32\n        /* \"#utility.yul\":18673:18674   */\n      0x04\n        /* \"#utility.yul\":18666:18681   */\n      mstore\n        /* \"#utility.yul\":18700:18704   */\n      0x24\n        /* \"#utility.yul\":18697:18698   */\n      0x00\n        /* \"#utility.yul\":18690:18705   */\n      revert\n        /* \"#utility.yul\":18717:18897   */\n    tag_309:\n        /* \"#utility.yul\":18765:18842   */\n      0x4e487b7100000000000000000000000000000000000000000000000000000000\n        /* \"#utility.yul\":18762:18763   */\n      0x00\n        /* \"#utility.yul\":18755:18843   */\n      mstore\n        /* \"#utility.yul\":18862:18866   */\n      0x22\n        /* \"#utility.yul\":18859:18860   */\n      0x04\n        /* \"#utility.yul\":18852:18867   */\n      mstore\n        /* \"#utility.yul\":18886:18890   */\n      0x24\n        /* \"#utility.yul\":18883:18884   */\n      0x00\n        /* \"#utility.yul\":18876:18891   */\n      revert\n        /* \"#utility.yul\":18903:19223   */\n    tag_105:\n        /* \"#utility.yul\":18947:18953   */\n      0x00\n        /* \"#utility.yul\":18984:18985   */\n      0x02\n        /* \"#utility.yul\":18978:18982   */\n      dup3\n        /* \"#utility.yul\":18974:18986   */\n      div\n        /* \"#utility.yul\":18964:18986   */\n      swap1\n      pop\n        /* \"#utility.yul\":19031:19032   */\n      0x01\n        /* \"#utility.yul\":19025:19029   */\n      dup3\n        /* \"#utility.yul\":19021:19033   */\n      and\n        /* \"#utility.yul\":19052:19070   */\n      dup1\n        /* \"#utility.yul\":19042:19123   */\n      tag_524\n      jumpi\n        /* \"#utility.yul\":19108:19112   */\n      0x7f\n        /* \"#utility.yul\":19100:19106   */\n      dup3\n        /* \"#utility.yul\":19096:19113   */\n      and\n        /* \"#utility.yul\":19086:19113   */\n      swap2\n      pop\n        /* \"#utility.yul\":19042:19123   */\n    tag_524:\n        /* \"#utility.yul\":19170:19172   */\n      0x20\n        /* \"#utility.yul\":19162:19168   */\n      dup3\n        /* \"#utility.yul\":19159:19173   */\n      lt\n        /* \"#utility.yul\":19139:19157   */\n      dup2\n        /* \"#utility.yul\":19136:19174   */\n      sub\n        /* \"#utility.yul\":19133:19217   */\n      tag_525\n      jumpi\n        /* \"#utility.yul\":19189:19207   */\n      tag_526\n      tag_309\n      jump\t// in\n    tag_526:\n        /* \"#utility.yul\":19133:19217   */\n    tag_525:\n        /* \"#utility.yul\":18954:19223   */\n      pop\n        /* \"#utility.yul\":18903:19223   */\n      swap2\n      swap1\n      pop\n      jump\t// out\n        /* \"#utility.yul\":19229:19390   */\n    tag_310:\n        /* \"#utility.yul\":19369:19382   */\n      0x446f63746f72206f6e6c79000000000000000000000000000000000000000000\n        /* \"#utility.yul\":19365:19366   */\n      0x00\n        /* \"#utility.yul\":19357:19363   */\n      dup3\n        /* \"#utility.yul\":19353:19367   */\n      add\n        /* \"#utility.yul\":19346:19383   */\n      mstore\n        /* \"#utility.yul\":19229:19390   */\n      pop\n      jump\t// out\n        /* \"#utility.yul\":19396:19762   */\n    tag_311:\n        /* \"#utility.yul\":19538:19541   */\n      0x00\n        /* \"#utility.yul\":19559:19626   */\n      tag_529\n        /* \"#utility.yul\":19623:19625   */\n      0x0b\n        /* \"#utility.yul\":19618:19621   */\n      dup4\n        /* \"#utility.yul\":19559:19626   */\n      tag_284\n      jump\t// in\n    tag_529:\n        /* \"#utility.yul\":19552:19626   */\n      swap2\n      pop\n        /* \"#utility.yul\":19635:19728   */\n      tag_530\n        /* \"#utility.yul\":19724:19727   */\n      dup3\n        /* \"#utility.yul\":19635:19728   */\n      tag_310\n      jump\t// in\n    tag_530:\n        /* \"#utility.yul\":19753:19755   */\n      0x20\n        /* \"#utility.yul\":19748:19751   */\n      dup3\n        /* \"#utility.yul\":19744:19756   */\n      add\n        /* \"#utility.yul\":19737:19756   */\n      swap1\n      pop\n        /* \"#utility.yul\":19396:19762   */\n      swap2\n      swap1\n      pop\n      jump\t// out\n        /* \"#utility.yul\":19768:20187   */\n    tag_144:\n        /* \"#utility.yul\":19934:19938   */\n      0x00\n        /* \"#utility.yul\":19972:19974   */\n      0x20\n        /* \"#utility.yul\":19961:19970   */\n      dup3\n        /* \"#utility.yul\":19957:19975   */\n      add\n        /* \"#utility.yul\":19949:19975   */\n      swap1\n      pop\n        /* \"#utility.yul\":20021:20030   */\n      dup2\n        /* \"#utility.yul\":20015:20019   */\n      dup2\n        /* \"#utility.yul\":20011:20031   */\n      sub\n        /* \"#utility.yul\":20007:20008   */\n      0x00\n        /* \"#utility.yul\":19996:20005   */\n      dup4\n        /* \"#utility.yul\":19992:20009   */\n      add\n        /* \"#utility.yul\":19985:20032   */\n      mstore\n        /* \"#utility.yul\":20049:20180   */\n      tag_532\n        /* \"#utility.yul\":20175:20179   */\n      dup2\n        /* \"#utility.yul\":20049:20180   */\n      tag_311\n      jump\t// in\n    tag_532:\n        /* \"#utility.yul\":20041:20180   */\n      swap1\n      pop\n        /* \"#utility.yul\":19768:20187   */\n      swap2\n      swap1\n      pop\n      jump\t// out\n        /* \"#utility.yul\":20193:20418   */\n    tag_312:\n        /* \"#utility.yul\":20333:20367   */\n      0x596f7520686176656e2774206265656e2061737369676e656420746869732070\n        /* \"#utility.yul\":20329:20330   */\n      0x00\n        /* \"#utility.yul\":20321:20327   */\n      dup3\n        /* \"#utility.yul\":20317:20331   */\n      add\n        /* \"#utility.yul\":20310:20368   */\n      mstore\n        /* \"#utility.yul\":20402:20410   */\n      0x617469656e740000000000000000000000000000000000000000000000000000\n        /* \"#utility.yul\":20397:20399   */\n      0x20\n        /* \"#utility.yul\":20389:20395   */\n      dup3\n        /* \"#utility.yul\":20385:20400   */\n      add\n        /* \"#utility.yul\":20378:20411   */\n      mstore\n        /* \"#utility.yul\":20193:20418   */\n      pop\n      jump\t// out\n        /* \"#utility.yul\":20424:20790   */\n    tag_313:\n        /* \"#utility.yul\":20566:20569   */\n      0x00\n        /* \"#utility.yul\":20587:20654   */\n      tag_535\n        /* \"#utility.yul\":20651:20653   */\n      0x26\n        /* \"#utility.yul\":20646:20649   */\n      dup4\n        /* \"#utility.yul\":20587:20654   */\n      tag_284\n      jump\t// in\n    tag_535:\n        /* \"#utility.yul\":20580:20654   */\n      swap2\n      pop\n        /* \"#utility.yul\":20663:20756   */\n      tag_536\n        /* \"#utility.yul\":20752:20755   */\n      dup3\n        /* \"#utility.yul\":20663:20756   */\n      tag_312\n      jump\t// in\n    tag_536:\n        /* \"#utility.yul\":20781:20783   */\n      0x40\n        /* \"#utility.yul\":20776:20779   */\n      dup3\n        /* \"#utility.yul\":20772:20784   */\n      add\n        /* \"#utility.yul\":20765:20784   */\n      swap1\n      pop\n        /* \"#utility.yul\":20424:20790   */\n      swap2\n      swap1\n      pop\n      jump\t// out\n        /* \"#utility.yul\":20796:21215   */\n    tag_148:\n        /* \"#utility.yul\":20962:20966   */\n      0x00\n        /* \"#utility.yul\":21000:21002   */\n      0x20\n        /* \"#utility.yul\":20989:20998   */\n      dup3\n        /* \"#utility.yul\":20985:21003   */\n      add\n        /* \"#utility.yul\":20977:21003   */\n      swap1\n      pop\n        /* \"#utility.yul\":21049:21058   */\n      dup2\n        /* \"#utility.yul\":21043:21047   */\n      dup2\n        /* \"#utility.yul\":21039:21059   */\n      sub\n        /* \"#utility.yul\":21035:21036   */\n      0x00\n        /* \"#utility.yul\":21024:21033   */\n      dup4\n        /* \"#utility.yul\":21020:21037   */\n      add\n        /* \"#utility.yul\":21013:21060   */\n      mstore\n        /* \"#utility.yul\":21077:21208   */\n      tag_538\n        /* \"#utility.yul\":21203:21207   */\n      dup2\n        /* \"#utility.yul\":21077:21208   */\n      tag_313\n      jump\t// in\n    tag_538:\n        /* \"#utility.yul\":21069:21208   */\n      swap1\n      pop\n        /* \"#utility.yul\":20796:21215   */\n      swap2\n      swap1\n      pop\n      jump\t// out\n        /* \"#utility.yul\":21221:21362   */\n    tag_314:\n        /* \"#utility.yul\":21270:21274   */\n      0x00\n        /* \"#utility.yul\":21293:21296   */\n      dup2\n        /* \"#utility.yul\":21285:21296   */\n      swap1\n      pop\n        /* \"#utility.yul\":21316:21319   */\n      dup2\n        /* \"#utility.yul\":21313:21314   */\n      0x00\n        /* \"#utility.yul\":21306:21320   */\n      mstore\n        /* \"#utility.yul\":21350:21354   */\n      0x20\n        /* \"#utility.yul\":21347:21348   */\n      0x00\n        /* \"#utility.yul\":21337:21355   */\n      keccak256\n        /* \"#utility.yul\":21329:21355   */\n      swap1\n      pop\n        /* \"#utility.yul\":21221:21362   */\n      swap2\n      swap1\n      pop\n      jump\t// out\n        /* \"#utility.yul\":21368:21461   */\n    tag_315:\n        /* \"#utility.yul\":21405:21411   */\n      0x00\n        /* \"#utility.yul\":21452:21454   */\n      0x20\n        /* \"#utility.yul\":21447:21449   */\n      0x1f\n        /* \"#utility.yul\":21440:21445   */\n      dup4\n        /* \"#utility.yul\":21436:21450   */\n      add\n        /* \"#utility.yul\":21432:21455   */\n      div\n        /* \"#utility.yul\":21422:21455   */\n      swap1\n      pop\n        /* \"#utility.yul\":21368:21461   */\n      swap2\n      swap1\n      pop\n      jump\t// out\n        /* \"#utility.yul\":21467:21574   */\n    tag_316:\n        /* \"#utility.yul\":21511:21519   */\n      0x00\n        /* \"#utility.yul\":21561:21566   */\n      dup3\n        /* \"#utility.yul\":21555:21559   */\n      dup3\n        /* \"#utility.yul\":21551:21567   */\n      shl\n        /* \"#utility.yul\":21530:21567   */\n      swap1\n      pop\n        /* \"#utility.yul\":21467:21574   */\n      swap3\n      swap2\n      pop\n      pop\n      jump\t// out\n        /* \"#utility.yul\":21580:21973   */\n    tag_317:\n        /* \"#utility.yul\":21649:21655   */\n      0x00\n        /* \"#utility.yul\":21699:21700   */\n      0x08\n        /* \"#utility.yul\":21687:21697   */\n      dup4\n        /* \"#utility.yul\":21683:21701   */\n      mul\n        /* \"#utility.yul\":21722:21819   */\n      tag_543\n        /* \"#utility.yul\":21752:21818   */\n      0xffffffffffffffffffffffffffffffffffffffffffffffffffffffffffffffff\n        /* \"#utility.yul\":21741:21750   */\n      dup3\n        /* \"#utility.yul\":21722:21819   */\n      tag_316\n      jump\t// in\n    tag_543:\n        /* \"#utility.yul\":21840:21879   */\n      tag_544\n        /* \"#utility.yul\":21870:21878   */\n      dup7\n        /* \"#utility.yul\":21859:21868   */\n      dup4\n        /* \"#utility.yul\":21840:21879   */\n      tag_316\n      jump\t// in\n    tag_544:\n        /* \"#utility.yul\":21828:21879   */\n      swap6\n      pop\n        /* \"#utility.yul\":21912:21916   */\n      dup1\n        /* \"#utility.yul\":21908:21917   */\n      not\n        /* \"#utility.yul\":21901:21906   */\n      dup5\n        /* \"#utility.yul\":21897:21918   */\n      and\n        /* \"#utility.yul\":21888:21918   */\n      swap4\n      pop\n        /* \"#utility.yul\":21961:21965   */\n      dup1\n        /* \"#utility.yul\":21951:21959   */\n      dup7\n        /* \"#utility.yul\":21947:21966   */\n      and\n        /* \"#utility.yul\":21940:21945   */\n      dup5\n        /* \"#utility.yul\":21937:21967   */\n      or\n        /* \"#utility.yul\":21927:21967   */\n      swap3\n      pop\n        /* \"#utility.yul\":21656:21973   */\n      pop\n      pop\n        /* \"#utility.yul\":21580:21973   */\n      swap4\n      swap3\n      pop\n      pop\n      pop\n      jump\t// out\n        /* \"#utility.yul\":21979:22039   */\n    tag_318:\n        /* \"#utility.yul\":22007:22010   */\n      0x00\n        /* \"#utility.yul\":22028:22033   */\n      dup2\n        /* \"#utility.yul\":22021:22033   */\n      swap1\n      pop\n        /* \"#utility.yul\":21979:22039   */\n      swap2\n      swap1\n      pop\n      jump\t// out\n        /* \"#utility.yul\":22045:22187   */\n    tag_319:\n        /* \"#utility.yul\":22095:22104   */\n      0x00\n        /* \"#utility.yul\":22128:22181   */\n      tag_547\n        /* \"#utility.yul\":22146:22180   */\n      tag_548\n        /* \"#utility.yul\":22155:22179   */\n      tag_549\n        /* \"#utility.yul\":22173:22178   */\n      dup5\n        /* \"#utility.yul\":22155:22179   */\n      tag_263\n      jump\t// in\n    tag_549:\n        /* \"#utility.yul\":22146:22180   */\n      tag_318\n      jump\t// in\n    tag_548:\n        /* \"#utility.yul\":22128:22181   */\n      tag_263\n      jump\t// in\n    tag_547:\n        /* \"#utility.yul\":22115:22181   */\n      swap1\n      pop\n        /* \"#utility.yul\":22045:22187   */\n      swap2\n      swap1\n      pop\n      jump\t// out\n        /* \"#utility.yul\":22193:22268   */\n    tag_320:\n        /* \"#utility.yul\":22236:22239   */\n      0x00\n        /* \"#utility.yul\":22257:22262   */\n      dup2\n        /* \"#utility.yul\":22250:22262   */\n      swap1\n      pop\n        /* \"#utility.yul\":22193:22268   */\n      swap2\n      swap1\n      pop\n      jump\t// out\n        /* \"#utility.yul\":22274:22543   */\n    tag_321:\n        /* \"#utility.yul\":22384:22423   */\n      tag_552\n        /* \"#utility.yul\":22415:22422   */\n      dup4\n        /* \"#utility.yul\":22384:22423   */\n      tag_319\n      jump\t// in\n    tag_552:\n        /* \"#utility.yul\":22445:22536   */\n      tag_553\n        /* \"#utility.yul\":22494:22535   */\n      tag_554\n        /* \"#utility.yul\":22518:22534   */\n      dup3\n        /* \"#utility.yul\":22494:22535   */\n      tag_320\n      jump\t// in\n    tag_554:\n        /* \"#utility.yul\":22486:22492   */\n      dup5\n        /* \"#utility.yul\":22479:22483   */\n      dup5\n        /* \"#utility.yul\":22473:22484   */\n      sload\n        /* \"#utility.yul\":22445:22536   */\n      tag_317\n      jump\t// in\n    tag_553:\n        /* \"#utility.yul\":22439:22443   */\n      dup3\n        /* \"#utility.yul\":22432:22537   */\n      sstore\n        /* \"#utility.yul\":22350:22543   */\n      pop\n        /* \"#utility.yul\":22274:22543   */\n      pop\n      pop\n      pop\n      jump\t// out\n        /* \"#utility.yul\":22549:22622   */\n    tag_322:\n        /* \"#utility.yul\":22594:22597   */\n      0x00\n        /* \"#utility.yul\":22549:22622   */\n      swap1\n      jump\t// out\n        /* \"#utility.yul\":22628:22817   */\n    tag_323:\n        /* \"#utility.yul\":22705:22737   */\n      tag_557\n      tag_322\n      jump\t// in\n    tag_557:\n        /* \"#utility.yul\":22746:22811   */\n      tag_558\n        /* \"#utility.yul\":22804:22810   */\n      dup2\n        /* \"#utility.yul\":22796:22802   */\n      dup5\n        /* \"#utility.yul\":22790:22794   */\n      dup5\n        /* \"#utility.yul\":22746:22811   */\n      tag_321\n      jump\t// in\n    tag_558:\n        /* \"#utility.yul\":22681:22817   */\n      pop\n        /* \"#utility.yul\":22628:22817   */\n      pop\n      pop\n      jump\t// out\n        /* \"#utility.yul\":22823:23009   */\n    tag_324:\n        /* \"#utility.yul\":22883:23003   */\n    tag_560:\n        /* \"#utility.yul\":22900:22903   */\n      dup2\n        /* \"#utility.yul\":22893:22898   */\n      dup2\n        /* \"#utility.yul\":22890:22904   */\n      lt\n        /* \"#utility.yul\":22883:23003   */\n      iszero\n      tag_562\n      jumpi\n        /* \"#utility.yul\":22954:22993   */\n      tag_563\n        /* \"#utility.yul\":22991:22992   */\n      0x00\n        /* \"#utility.yul\":22984:22989   */\n      dup3\n        /* \"#utility.yul\":22954:22993   */\n      tag_323\n      jump\t// in\n    tag_563:\n        /* \"#utility.yul\":22927:22928   */\n      0x01\n        /* \"#utility.yul\":22920:22925   */\n      dup2\n        /* \"#utility.yul\":22916:22929   */\n      add\n        /* \"#utility.yul\":22907:22929   */\n      swap1\n      pop\n        /* \"#utility.yul\":22883:23003   */\n      jump(tag_560)\n    tag_562:\n        /* \"#utility.yul\":22823:23009   */\n      pop\n      pop\n      jump\t// out\n        /* \"#utility.yul\":23015:23558   */\n    tag_325:\n        /* \"#utility.yul\":23116:23118   */\n      0x1f\n        /* \"#utility.yul\":23111:23114   */\n      dup3\n        /* \"#utility.yul\":23108:23119   */\n      gt\n        /* \"#utility.yul\":23105:23551   */\n      iszero\n      tag_565\n      jumpi\n        /* \"#utility.yul\":23150:23188   */\n      tag_566\n        /* \"#utility.yul\":23182:23187   */\n      dup2\n        /* \"#utility.yul\":23150:23188   */\n      tag_314\n      jump\t// in\n    tag_566:\n        /* \"#utility.yul\":23234:23263   */\n      tag_567\n        /* \"#utility.yul\":23252:23262   */\n      dup5\n        /* \"#utility.yul\":23234:23263   */\n      tag_315\n      jump\t// in\n    tag_567:\n        /* \"#utility.yul\":23224:23232   */\n      dup2\n        /* \"#utility.yul\":23220:23264   */\n      add\n        /* \"#utility.yul\":23417:23419   */\n      0x20\n        /* \"#utility.yul\":23405:23415   */\n      dup6\n        /* \"#utility.yul\":23402:23420   */\n      lt\n        /* \"#utility.yul\":23399:23448   */\n      iszero\n      tag_568\n      jumpi\n        /* \"#utility.yul\":23438:23446   */\n      dup2\n        /* \"#utility.yul\":23423:23446   */\n      swap1\n      pop\n        /* \"#utility.yul\":23399:23448   */\n    tag_568:\n        /* \"#utility.yul\":23461:23541   */\n      tag_569\n        /* \"#utility.yul\":23517:23539   */\n      tag_570\n        /* \"#utility.yul\":23535:23538   */\n      dup6\n        /* \"#utility.yul\":23517:23539   */\n      tag_315\n      jump\t// in\n    tag_570:\n        /* \"#utility.yul\":23507:23515   */\n      dup4\n        /* \"#utility.yul\":23503:23540   */\n      add\n        /* \"#utility.yul\":23490:23501   */\n      dup3\n        /* \"#utility.yul\":23461:23541   */\n      tag_324\n      jump\t// in\n    tag_569:\n        /* \"#utility.yul\":23120:23551   */\n      pop\n      pop\n        /* \"#utility.yul\":23105:23551   */\n    tag_565:\n        /* \"#utility.yul\":23015:23558   */\n      pop\n      pop\n      pop\n      jump\t// out\n        /* \"#utility.yul\":23564:23681   */\n    tag_326:\n        /* \"#utility.yul\":23618:23626   */\n      0x00\n        /* \"#utility.yul\":23668:23673   */\n      dup3\n        /* \"#utility.yul\":23662:23666   */\n      dup3\n        /* \"#utility.yul\":23658:23674   */\n      shr\n        /* \"#utility.yul\":23637:23674   */\n      swap1\n      pop\n        /* \"#utility.yul\":23564:23681   */\n      swap3\n      swap2\n      pop\n      pop\n      jump\t// out\n        /* \"#utility.yul\":23687:23856   */\n    tag_327:\n        /* \"#utility.yul\":23731:23737   */\n      0x00\n        /* \"#utility.yul\":23764:23815   */\n      tag_573\n        /* \"#utility.yul\":23812:23813   */\n      0x00\n        /* \"#utility.yul\":23808:23814   */\n      not\n        /* \"#utility.yul\":23800:23805   */\n      dup5\n        /* \"#utility.yul\":23797:23798   */\n      0x08\n        /* \"#utility.yul\":23793:23806   */\n      mul\n        /* \"#utility.yul\":23764:23815   */\n      tag_326\n      jump\t// in\n    tag_573:\n        /* \"#utility.yul\":23760:23816   */\n      not\n        /* \"#utility.yul\":23845:23849   */\n      dup1\n        /* \"#utility.yul\":23839:23843   */\n      dup4\n        /* \"#utility.yul\":23835:23850   */\n      and\n        /* \"#utility.yul\":23825:23850   */\n      swap2\n      pop\n        /* \"#utility.yul\":23738:23856   */\n      pop\n        /* \"#utility.yul\":23687:23856   */\n      swap3\n      swap2\n      pop\n      pop\n      jump\t// out\n        /* \"#utility.yul\":23861:24156   */\n    tag_328:\n        /* \"#utility.yul\":23937:23941   */\n      0x00\n        /* \"#utility.yul\":24083:24112   */\n      tag_575\n        /* \"#utility.yul\":24108:24111   */\n      dup4\n        /* \"#utility.yul\":24102:24106   */\n      dup4\n        /* \"#utility.yul\":24083:24112   */\n      tag_327\n      jump\t// in\n    tag_575:\n        /* \"#utility.yul\":24075:24112   */\n      swap2\n      pop\n        /* \"#utility.yul\":24145:24148   */\n      dup3\n        /* \"#utility.yul\":24142:24143   */\n      0x02\n        /* \"#utility.yul\":24138:24149   */\n      mul\n        /* \"#utility.yul\":24132:24136   */\n      dup3\n        /* \"#utility.yul\":24129:24150   */\n      or\n        /* \"#utility.yul\":24121:24150   */\n      swap1\n      pop\n        /* \"#utility.yul\":23861:24156   */\n      swap3\n      swap2\n      pop\n      pop\n      jump\t// out\n        /* \"#utility.yul\":24161:25556   */\n    tag_159:\n        /* \"#utility.yul\":24278:24315   */\n      tag_577\n        /* \"#utility.yul\":24311:24314   */\n      dup3\n        /* \"#utility.yul\":24278:24315   */\n      tag_270\n      jump\t// in\n    tag_577:\n        /* \"#utility.yul\":24380:24398   */\n      0xffffffffffffffff\n        /* \"#utility.yul\":24372:24378   */\n      dup2\n        /* \"#utility.yul\":24369:24399   */\n      gt\n        /* \"#utility.yul\":24366:24422   */\n      iszero\n      tag_578\n      jumpi\n        /* \"#utility.yul\":24402:24420   */\n      tag_579\n      tag_292\n      jump\t// in\n    tag_579:\n        /* \"#utility.yul\":24366:24422   */\n    tag_578:\n        /* \"#utility.yul\":24446:24484   */\n      tag_580\n        /* \"#utility.yul\":24478:24482   */\n      dup3\n        /* \"#utility.yul\":24472:24483   */\n      sload\n        /* \"#utility.yul\":24446:24484   */\n      tag_105\n      jump\t// in\n    tag_580:\n        /* \"#utility.yul\":24531:24598   */\n      tag_581\n        /* \"#utility.yul\":24591:24597   */\n      dup3\n        /* \"#utility.yul\":24583:24589   */\n      dup3\n        /* \"#utility.yul\":24577:24581   */\n      dup6\n        /* \"#utility.yul\":24531:24598   */\n      tag_325\n      jump\t// in\n    tag_581:\n        /* \"#utility.yul\":24625:24626   */\n      0x00\n        /* \"#utility.yul\":24649:24653   */\n      0x20\n        /* \"#utility.yul\":24636:24653   */\n      swap1\n      pop\n        /* \"#utility.yul\":24681:24683   */\n      0x1f\n        /* \"#utility.yul\":24673:24679   */\n      dup4\n        /* \"#utility.yul\":24670:24684   */\n      gt\n        /* \"#utility.yul\":24698:24699   */\n      0x01\n        /* \"#utility.yul\":24693:25311   */\n      dup2\n      eq\n      tag_583\n      jumpi\n        /* \"#utility.yul\":25355:25356   */\n      0x00\n        /* \"#utility.yul\":25372:25378   */\n      dup5\n        /* \"#utility.yul\":25369:25446   */\n      iszero\n      tag_584\n      jumpi\n        /* \"#utility.yul\":25421:25430   */\n      dup3\n        /* \"#utility.yul\":25416:25419   */\n      dup8\n        /* \"#utility.yul\":25412:25431   */\n      add\n        /* \"#utility.yul\":25406:25432   */\n      mload\n        /* \"#utility.yul\":25397:25432   */\n      swap1\n      pop\n        /* \"#utility.yul\":25369:25446   */\n    tag_584:\n        /* \"#utility.yul\":25472:25539   */\n      tag_585\n        /* \"#utility.yul\":25532:25538   */\n      dup6\n        /* \"#utility.yul\":25525:25530   */\n      dup3\n        /* \"#utility.yul\":25472:25539   */\n      tag_328\n      jump\t// in\n    tag_585:\n        /* \"#utility.yul\":25466:25470   */\n      dup7\n        /* \"#utility.yul\":25459:25540   */\n      sstore\n        /* \"#utility.yul\":25328:25550   */\n      pop\n        /* \"#utility.yul\":24663:25550   */\n      jump(tag_582)\n        /* \"#utility.yul\":24693:25311   */\n    tag_583:\n        /* \"#utility.yul\":24745:24749   */\n      0x1f\n        /* \"#utility.yul\":24741:24750   */\n      not\n        /* \"#utility.yul\":24733:24739   */\n      dup5\n        /* \"#utility.yul\":24729:24751   */\n      and\n        /* \"#utility.yul\":24779:24816   */\n      tag_586\n        /* \"#utility.yul\":24811:24815   */\n      dup7\n        /* \"#utility.yul\":24779:24816   */\n      tag_314\n      jump\t// in\n    tag_586:\n        /* \"#utility.yul\":24838:24839   */\n      0x00\n        /* \"#utility.yul\":24852:25060   */\n    tag_587:\n        /* \"#utility.yul\":24866:24873   */\n      dup3\n        /* \"#utility.yul\":24863:24864   */\n      dup2\n        /* \"#utility.yul\":24860:24874   */\n      lt\n        /* \"#utility.yul\":24852:25060   */\n      iszero\n      tag_589\n      jumpi\n        /* \"#utility.yul\":24945:24954   */\n      dup5\n        /* \"#utility.yul\":24940:24943   */\n      dup10\n        /* \"#utility.yul\":24936:24955   */\n      add\n        /* \"#utility.yul\":24930:24956   */\n      mload\n        /* \"#utility.yul\":24922:24928   */\n      dup3\n        /* \"#utility.yul\":24915:24957   */\n      sstore\n        /* \"#utility.yul\":24996:24997   */\n      0x01\n        /* \"#utility.yul\":24988:24994   */\n      dup3\n        /* \"#utility.yul\":24984:24998   */\n      add\n        /* \"#utility.yul\":24974:24998   */\n      swap2\n      pop\n        /* \"#utility.yul\":25043:25045   */\n      0x20\n        /* \"#utility.yul\":25032:25041   */\n      dup6\n        /* \"#utility.yul\":25028:25046   */\n      add\n        /* \"#utility.yul\":25015:25046   */\n      swap5\n      pop\n        /* \"#utility.yul\":24889:24893   */\n      0x20\n        /* \"#utility.yul\":24886:24887   */\n      dup2\n        /* \"#utility.yul\":24882:24894   */\n      add\n        /* \"#utility.yul\":24877:24894   */\n      swap1\n      pop\n        /* \"#utility.yul\":24852:25060   */\n      jump(tag_587)\n    tag_589:\n        /* \"#utility.yul\":25088:25094   */\n      dup7\n        /* \"#utility.yul\":25079:25086   */\n      dup4\n        /* \"#utility.yul\":25076:25095   */\n      lt\n        /* \"#utility.yul\":25073:25252   */\n      iszero\n      tag_590\n      jumpi\n        /* \"#utility.yul\":25146:25155   */\n      dup5\n        /* \"#utility.yul\":25141:25144   */\n      dup10\n        /* \"#utility.yul\":25137:25156   */\n      add\n        /* \"#utility.yul\":25131:25157   */\n      mload\n        /* \"#utility.yul\":25189:25237   */\n      tag_591\n        /* \"#utility.yul\":25231:25235   */\n      0x1f\n        /* \"#utility.yul\":25223:25229   */\n      dup10\n        /* \"#utility.yul\":25219:25236   */\n      and\n        /* \"#utility.yul\":25208:25217   */\n      dup3\n        /* \"#utility.yul\":25189:25237   */\n      tag_327\n      jump\t// in\n    tag_591:\n        /* \"#utility.yul\":25181:25187   */\n      dup4\n        /* \"#utility.yul\":25174:25238   */\n      sstore\n        /* \"#utility.yul\":25096:25252   */\n      pop\n        /* \"#utility.yul\":25073:25252   */\n    tag_590:\n        /* \"#utility.yul\":25298:25299   */\n      0x01\n        /* \"#utility.yul\":25294:25295   */\n      0x02\n        /* \"#utility.yul\":25286:25292   */\n      dup9\n        /* \"#utility.yul\":25282:25296   */\n      mul\n        /* \"#utility.yul\":25278:25300   */\n      add\n        /* \"#utility.yul\":25272:25276   */\n      dup9\n        /* \"#utility.yul\":25265:25301   */\n      sstore\n        /* \"#utility.yul\":24700:25311   */\n      pop\n      pop\n      pop\n        /* \"#utility.yul\":24663:25550   */\n    tag_582:\n      pop\n        /* \"#utility.yul\":24253:25556   */\n      pop\n      pop\n      pop\n        /* \"#utility.yul\":24161:25556   */\n      pop\n      pop\n      jump\t// out\n        /* \"#utility.yul\":25562:25722   */\n    tag_329:\n        /* \"#utility.yul\":25702:25714   */\n      0x41646d696e206f6e6c7900000000000000000000000000000000000000000000\n        /* \"#utility.yul\":25698:25699   */\n      0x00\n        /* \"#utility.yul\":25690:25696   */\n      dup3\n        /* \"#utility.yul\":25686:25700   */\n      add\n        /* \"#utility.yul\":25679:25715   */\n      mstore\n        /* \"#utility.yul\":25562:25722   */\n      pop\n      jump\t// out\n        /* \"#utility.yul\":25728:26094   */\n    tag_330:\n        /* \"#utility.yul\":25870:25873   */\n      0x00\n        /* \"#utility.yul\":25891:25958   */\n      tag_594\n        /* \"#utility.yul\":25955:25957   */\n      0x0a\n        /* \"#utility.yul\":25950:25953   */\n      dup4\n        /* \"#utility.yul\":25891:25958   */\n      tag_284\n      jump\t// in\n    tag_594:\n        /* \"#utility.yul\":25884:25958   */\n      swap2\n      pop\n        /* \"#utility.yul\":25967:26060   */\n      tag_595\n        /* \"#utility.yul\":26056:26059   */\n      dup3\n        /* \"#utility.yul\":25967:26060   */\n      tag_329\n      jump\t// in\n    tag_595:\n        /* \"#utility.yul\":26085:26087   */\n      0x20\n        /* \"#utility.yul\":26080:26083   */\n      dup3\n        /* \"#utility.yul\":26076:26088   */\n      add\n        /* \"#utility.yul\":26069:26088   */\n      swap1\n      pop\n        /* \"#utility.yul\":25728:26094   */\n      swap2\n      swap1\n      pop\n      jump\t// out\n        /* \"#utility.yul\":26100:26519   */\n    tag_198:\n        /* \"#utility.yul\":26266:26270   */\n      0x00\n        /* \"#utility.yul\":26304:26306   */\n      0x20\n        /* \"#utility.yul\":26293:26302   */\n      dup3\n        /* \"#utility.yul\":26289:26307   */\n      add\n        /* \"#utility.yul\":26281:26307   */\n      swap1\n      pop\n        /* \"#utility.yul\":26353:26362   */\n      dup2\n        /* \"#utility.yul\":26347:26351   */\n      dup2\n        /* \"#utility.yul\":26343:26363   */\n      sub\n        /* \"#utility.yul\":26339:26340   */\n      0x00\n        /* \"#utility.yul\":26328:26337   */\n      dup4\n        /* \"#utility.yul\":26324:26341   */\n      add\n        /* \"#utility.yul\":26317:26364   */\n      mstore\n        /* \"#utility.yul\":26381:26512   */\n      tag_597\n        /* \"#utility.yul\":26507:26511   */\n      dup2\n        /* \"#utility.yul\":26381:26512   */\n      tag_330\n      jump\t// in\n    tag_597:\n        /* \"#utility.yul\":26373:26512   */\n      swap1\n      pop\n        /* \"#utility.yul\":26100:26519   */\n      swap2\n      swap1\n      pop\n      jump\t// out\n        /* \"#utility.yul\":26525:26746   */\n    tag_331:\n        /* \"#utility.yul\":26665:26699   */\n      0x596f7520617265206e6f7420656c696769626c6520666f72207468697320726f\n        /* \"#utility.yul\":26661:26662   */\n      0x00\n        /* \"#utility.yul\":26653:26659   */\n      dup3\n        /* \"#utility.yul\":26649:26663   */\n      add\n        /* \"#utility.yul\":26642:26700   */\n      mstore\n        /* \"#utility.yul\":26734:26738   */\n      0x6c65000000000000000000000000000000000000000000000000000000000000\n        /* \"#utility.yul\":26729:26731   */\n      0x20\n        /* \"#utility.yul\":26721:26727   */\n      dup3\n        /* \"#utility.yul\":26717:26732   */\n      add\n        /* \"#utility.yul\":26710:26739   */\n      mstore\n        /* \"#utility.yul\":26525:26746   */\n      pop\n      jump\t// out\n        /* \"#utility.yul\":26752:27118   */\n    tag_332:\n        /* \"#utility.yul\":26894:26897   */\n      0x00\n        /* \"#utility.yul\":26915:26982   */\n      tag_600\n        /* \"#utility.yul\":26979:26981   */\n      0x22\n        /* \"#utility.yul\":26974:26977   */\n      dup4\n        /* \"#utility.yul\":26915:26982   */\n      tag_284\n      jump\t// in\n    tag_600:\n        /* \"#utility.yul\":26908:26982   */\n      swap2\n      pop\n        /* \"#utility.yul\":26991:27084   */\n      tag_601\n        /* \"#utility.yul\":27080:27083   */\n      dup3\n        /* \"#utility.yul\":26991:27084   */\n      tag_331\n      jump\t// in\n    tag_601:\n        /* \"#utility.yul\":27109:27111   */\n      0x40\n        /* \"#utility.yul\":27104:27107   */\n      dup3\n        /* \"#utility.yul\":27100:27112   */\n      add\n        /* \"#utility.yul\":27093:27112   */\n      swap1\n      pop\n        /* \"#utility.yul\":26752:27118   */\n      swap2\n      swap1\n      pop\n      jump\t// out\n        /* \"#utility.yul\":27124:27543   */\n    tag_202:\n        /* \"#utility.yul\":27290:27294   */\n      0x00\n        /* \"#utility.yul\":27328:27330   */\n      0x20\n        /* \"#utility.yul\":27317:27326   */\n      dup3\n        /* \"#utility.yul\":27313:27331   */\n      add\n        /* \"#utility.yul\":27305:27331   */\n      swap1\n      pop\n        /* \"#utility.yul\":27377:27386   */\n      dup2\n        /* \"#utility.yul\":27371:27375   */\n      dup2\n        /* \"#utility.yul\":27367:27387   */\n      sub\n        /* \"#utility.yul\":27363:27364   */\n      0x00\n        /* \"#utility.yul\":27352:27361   */\n      dup4\n        /* \"#utility.yul\":27348:27365   */\n      add\n        /* \"#utility.yul\":27341:27388   */\n      mstore\n        /* \"#utility.yul\":27405:27536   */\n      tag_603\n        /* \"#utility.yul\":27531:27535   */\n      dup2\n        /* \"#utility.yul\":27405:27536   */\n      tag_332\n      jump\t// in\n    tag_603:\n        /* \"#utility.yul\":27397:27536   */\n      swap1\n      pop\n        /* \"#utility.yul\":27124:27543   */\n      swap2\n      swap1\n      pop\n      jump\t// out\n        /* \"#utility.yul\":27549:27730   */\n    tag_333:\n        /* \"#utility.yul\":27689:27722   */\n      0x526f6c65733a206163636f756e7420616c72656164792068617320726f6c6500\n        /* \"#utility.yul\":27685:27686   */\n      0x00\n        /* \"#utility.yul\":27677:27683   */\n      dup3\n        /* \"#utility.yul\":27673:27687   */\n      add\n        /* \"#utility.yul\":27666:27723   */\n      mstore\n        /* \"#utility.yul\":27549:27730   */\n      pop\n      jump\t// out\n        /* \"#utility.yul\":27736:28102   */\n    tag_334:\n        /* \"#utility.yul\":27878:27881   */\n      0x00\n        /* \"#utility.yul\":27899:27966   */\n      tag_606\n        /* \"#utility.yul\":27963:27965   */\n      0x1f\n        /* \"#utility.yul\":27958:27961   */\n      dup4\n        /* \"#utility.yul\":27899:27966   */\n      tag_284\n      jump\t// in\n    tag_606:\n        /* \"#utility.yul\":27892:27966   */\n      swap2\n      pop\n        /* \"#utility.yul\":27975:28068   */\n      tag_607\n        /* \"#utility.yul\":28064:28067   */\n      dup3\n        /* \"#utility.yul\":27975:28068   */\n      tag_333\n      jump\t// in\n    tag_607:\n        /* \"#utility.yul\":28093:28095   */\n      0x20\n        /* \"#utility.yul\":28088:28091   */\n      dup3\n        /* \"#utility.yul\":28084:28096   */\n      add\n        /* \"#utility.yul\":28077:28096   */\n      swap1\n      pop\n        /* \"#utility.yul\":27736:28102   */\n      swap2\n      swap1\n      pop\n      jump\t// out\n        /* \"#utility.yul\":28108:28527   */\n    tag_243:\n        /* \"#utility.yul\":28274:28278   */\n      0x00\n        /* \"#utility.yul\":28312:28314   */\n      0x20\n        /* \"#utility.yul\":28301:28310   */\n      dup3\n        /* \"#utility.yul\":28297:28315   */\n      add\n        /* \"#utility.yul\":28289:28315   */\n      swap1\n      pop\n        /* \"#utility.yul\":28361:28370   */\n      dup2\n        /* \"#utility.yul\":28355:28359   */\n      dup2\n        /* \"#utility.yul\":28351:28371   */\n      sub\n        /* \"#utility.yul\":28347:28348   */\n      0x00\n        /* \"#utility.yul\":28336:28345   */\n      dup4\n        /* \"#utility.yul\":28332:28349   */\n      add\n        /* \"#utility.yul\":28325:28372   */\n      mstore\n        /* \"#utility.yul\":28389:28520   */\n      tag_609\n        /* \"#utility.yul\":28515:28519   */\n      dup2\n        /* \"#utility.yul\":28389:28520   */\n      tag_334\n      jump\t// in\n    tag_609:\n        /* \"#utility.yul\":28381:28520   */\n      swap1\n      pop\n        /* \"#utility.yul\":28108:28527   */\n      swap2\n      swap1\n      pop\n      jump\t// out\n        /* \"#utility.yul\":28533:28754   */\n    tag_335:\n        /* \"#utility.yul\":28673:28707   */\n      0x526f6c65733a206163636f756e7420697320746865207a65726f206164647265\n        /* \"#utility.yul\":28669:28670   */\n      0x00\n        /* \"#utility.yul\":28661:28667   */\n      dup3\n        /* \"#utility.yul\":28657:28671   */\n      add\n        /* \"#utility.yul\":28650:28708   */\n      mstore\n        /* \"#utility.yul\":28742:28746   */\n      0x7373000000000000000000000000000000000000000000000000000000000000\n        /* \"#utility.yul\":28737:28739   */\n      0x20\n        /* \"#utility.yul\":28729:28735   */\n      dup3\n        /* \"#utility.yul\":28725:28740   */\n      add\n        /* \"#utility.yul\":28718:28747   */\n      mstore\n        /* \"#utility.yul\":28533:28754   */\n      pop\n      jump\t// out\n        /* \"#utility.yul\":28760:29126   */\n    tag_336:\n        /* \"#utility.yul\":28902:28905   */\n      0x00\n        /* \"#utility.yul\":28923:28990   */\n      tag_612\n        /* \"#utility.yul\":28987:28989   */\n      0x22\n        /* \"#utility.yul\":28982:28985   */\n      dup4\n        /* \"#utility.yul\":28923:28990   */\n      tag_284\n      jump\t// in\n    tag_612:\n        /* \"#utility.yul\":28916:28990   */\n      swap2\n      pop\n        /* \"#utility.yul\":28999:29092   */\n      tag_613\n        /* \"#utility.yul\":29088:29091   */\n      dup3\n        /* \"#utility.yul\":28999:29092   */\n      tag_335\n      jump\t// in\n    tag_613:\n        /* \"#utility.yul\":29117:29119   */\n      0x40\n        /* \"#utility.yul\":29112:29115   */\n      dup3\n        /* \"#utility.yul\":29108:29120   */\n      add\n        /* \"#utility.yul\":29101:29120   */\n      swap1\n      pop\n        /* \"#utility.yul\":28760:29126   */\n      swap2\n      swap1\n      pop\n      jump\t// out\n        /* \"#utility.yul\":29132:29551   */\n    tag_247:\n        /* \"#utility.yul\":29298:29302   */\n      0x00\n        /* \"#utility.yul\":29336:29338   */\n      0x20\n        /* \"#utility.yul\":29325:29334   */\n      dup3\n        /* \"#utility.yul\":29321:29339   */\n      add\n        /* \"#utility.yul\":29313:29339   */\n      swap1\n      pop\n        /* \"#utility.yul\":29385:29394   */\n      dup2\n        /* \"#utility.yul\":29379:29383   */\n      dup2\n        /* \"#utility.yul\":29375:29395   */\n      sub\n        /* \"#utility.yul\":29371:29372   */\n      0x00\n        /* \"#utility.yul\":29360:29369   */\n      dup4\n        /* \"#utility.yul\":29356:29373   */\n      add\n        /* \"#utility.yul\":29349:29396   */\n      mstore\n        /* \"#utility.yul\":29413:29544   */\n      tag_615\n        /* \"#utility.yul\":29539:29543   */\n      dup2\n        /* \"#utility.yul\":29413:29544   */\n      tag_336\n      jump\t// in\n    tag_615:\n        /* \"#utility.yul\":29405:29544   */\n      swap1\n      pop\n        /* \"#utility.yul\":29132:29551   */\n      swap2\n      swap1\n      pop\n      jump\t// out\n\n    auxdata: 0xa2646970667358221220e9e63cca29d790dc684eab0f35c83c849ae19f86bf14f4424a70572c6e2f9c5564736f6c634300080f0033\n}\n","bytecode":{"linkReferences":{},"object":"60806040523480156200001157600080fd5b5033600a60006101000a81548173ffffffffffffffffffffffffffffffffffffffff021916908373ffffffffffffffffffffffffffffffffffffffff16021790555062000090600a60009054906101000a900473ffffffffffffffffffffffffffffffffffffffff1660006200009660201b620018201790919060201c565b6200032e565b620000a882826200014960201b60201c565b15620000eb576040517f08c379a0000000000000000000000000000000000000000000000000000000008152600401620000e29062000274565b60405180910390fd5b60018260000160008373ffffffffffffffffffffffffffffffffffffffff1673ffffffffffffffffffffffffffffffffffffffff16815260200190815260200160002060006101000a81548160ff0219169083151502179055505050565b60008073ffffffffffffffffffffffffffffffffffffffff168273ffffffffffffffffffffffffffffffffffffffff1603620001bc576040517f08c379a0000000000000000000000000000000000000000000000000000000008152600401620001b3906200030c565b60405180910390fd5b8260000160008373ffffffffffffffffffffffffffffffffffffffff1673ffffffffffffffffffffffffffffffffffffffff16815260200190815260200160002060009054906101000a900460ff16905092915050565b600082825260208201905092915050565b7f526f6c65733a206163636f756e7420616c72656164792068617320726f6c6500600082015250565b60006200025c601f8362000213565b9150620002698262000224565b602082019050919050565b600060208201905081810360008301526200028f816200024d565b9050919050565b7f526f6c65733a206163636f756e7420697320746865207a65726f20616464726560008201527f7373000000000000000000000000000000000000000000000000000000000000602082015250565b6000620002f460228362000213565b9150620003018262000296565b604082019050919050565b600060208201905081810360008301526200032781620002e5565b9050919050565b612a90806200033e6000396000f3fe608060405234801561001057600080fd5b50600436106101005760003560e01c806337b16b5011610097578063996440c611610066578063996440c6146102c1578063a71aefc9146102f1578063babb1d411461030f578063f851a4401461033f57610100565b806337b16b501461023b5780636e9960c3146102575780638f9c79ed146102755780639429e171146102a557610100565b80631f21a79d116100d35780631f21a79d146101b65780632f04e064146101d257806334b3e4f11461020357806334b789981461021f57610100565b80630c38872214610105578063127ca4b41461013557806319da83a8146101655780631e175c4014610198575b600080fd5b61011f600480360381019061011a9190611b91565b61035d565b60405161012c9190611dd3565b60405180910390f35b61014f600480360381019061014a9190611b91565b610609565b60405161015c9190611e04565b60405180910390f35b61017f600480360381019061017a9190611b91565b610648565b60405161018f9493929190611e78565b60405180910390f35b6101a0610750565b6040516101ad9190611f33565b60405180910390f35b6101d060048036038101906101cb91906120b6565b610928565b005b6101ec60048036038101906101e79190612112565b610d19565b6040516101fa92919061213f565b60405180910390f35b61021d60048036038101906102189190612176565b610efa565b005b61023960048036038101906102349190612215565b611217565b005b61025560048036038101906102509190612215565b611402565b005b61025f6115ed565b60405161026c9190611e04565b60405180910390f35b61028f600480360381019061028a9190612112565b611617565b60405161029c91906122bb565b60405180910390f35b6102bf60048036038101906102ba91906122d6565b611634565b005b6102db60048036038101906102d69190612112565b611710565b6040516102e891906122bb565b60405180910390f35b6102f961172d565b60405161030691906123c5565b60405180910390f35b61032960048036038101906103249190611b91565b6117bb565b6040516103369190611e04565b60405180910390f35b6103476117fa565b6040516103549190611e04565b60405180910390f35b6103656119e5565b6103793360006118c890919063ffffffff16565b156103b9576040517f08c379a00000000000000000000000000000000000000000000000000000000081526004016103b090612433565b60405180910390fd5b6000600783815481106103cf576103ce612453565b5b90600052602060002090600502016040518060a0016040529081600082015481526020016001820160009054906101000a900473ffffffffffffffffffffffffffffffffffffffff1673ffffffffffffffffffffffffffffffffffffffff1673ffffffffffffffffffffffffffffffffffffffff1681526020016002820160009054906101000a900473ffffffffffffffffffffffffffffffffffffffff1673ffffffffffffffffffffffffffffffffffffffff1673ffffffffffffffffffffffffffffffffffffffff1681526020016003820180546104ae906124b1565b80601f01602080910402602001604051908101604052809291908181526020018280546104da906124b1565b80156105275780601f106104fc57610100808354040283529160200191610527565b820191906000526020600020905b81548152906001019060200180831161050a57829003601f168201915b505050505081526020016004820180548060200260200160405190810160405280929190818152602001828054801561057f57602002820191906000526020600020905b81548152602001906001019080831161056b575b50505050508152505090503373ffffffffffffffffffffffffffffffffffffffff16816040015173ffffffffffffffffffffffffffffffffffffffff1614806105f757503373ffffffffffffffffffffffffffffffffffffffff16816020015173ffffffffffffffffffffffffffffffffffffffff16145b61060057600080fd5b80915050919050565b6008818154811061061957600080fd5b906000526020600020016000915054906101000a900473ffffffffffffffffffffffffffffffffffffffff1681565b6007818154811061065857600080fd5b90600052602060002090600502016000915090508060000154908060010160009054906101000a900473ffffffffffffffffffffffffffffffffffffffff16908060020160009054906101000a900473ffffffffffffffffffffffffffffffffffffffff16908060030180546106cd906124b1565b80601f01602080910402602001604051908101604052809291908181526020018280546106f9906124b1565b80156107465780601f1061071b57610100808354040283529160200191610746565b820191906000526020600020905b81548152906001019060200180831161072957829003601f168201915b5050505050905084565b6060336107678160016118c890919063ffffffff16565b8061078257506107818160026118c890919063ffffffff16565b5b61078b57600080fd5b61079f3360006118c890919063ffffffff16565b156107df576040517f08c379a00000000000000000000000000000000000000000000000000000000081526004016107d690612433565b60405180910390fd5b6107f33360016118c890919063ffffffff16565b1561089057600360003373ffffffffffffffffffffffffffffffffffffffff1673ffffffffffffffffffffffffffffffffffffffff16815260200190815260200160002060020180548060200260200160405190810160405280929190818152602001828054801561088457602002820191906000526020600020905b815481526020019060010190808311610870575b50505050509150610924565b600460003373ffffffffffffffffffffffffffffffffffffffff1673ffffffffffffffffffffffffffffffffffffffff16815260200190815260200160002060020180548060200260200160405190810160405280929190818152602001828054801561091c57602002820191906000526020600020905b815481526020019060010190808311610908575b505050505091505b5090565b600115156109403360016118c890919063ffffffff16565b151514610982576040517f08c379a00000000000000000000000000000000000000000000000000000000081526004016109799061252e565b60405180910390fd5b818073ffffffffffffffffffffffffffffffffffffffff16600560003373ffffffffffffffffffffffffffffffffffffffff1673ffffffffffffffffffffffffffffffffffffffff16815260200190815260200160002060009054906101000a900473ffffffffffffffffffffffffffffffffffffffff1673ffffffffffffffffffffffffffffffffffffffff1614610a50576040517f08c379a0000000000000000000000000000000000000000000000000000000008152600401610a47906125c0565b60405180910390fd5b610a643360006118c890919063ffffffff16565b15610aa4576040517f08c379a0000000000000000000000000000000000000000000000000000000008152600401610a9b90612433565b60405180910390fd5b610aac6119e5565b60078054905081600001818152505033816020019073ffffffffffffffffffffffffffffffffffffffff16908173ffffffffffffffffffffffffffffffffffffffff168152505083816040019073ffffffffffffffffffffffffffffffffffffffff16908173ffffffffffffffffffffffffffffffffffffffff16815250508281606001819052506000600360003373ffffffffffffffffffffffffffffffffffffffff1673ffffffffffffffffffffffffffffffffffffffff16815260200190815260200160002090506000600460008773ffffffffffffffffffffffffffffffffffffffff1673ffffffffffffffffffffffffffffffffffffffff16815260200190815260200160002090508160020183600001519080600181540180825580915050600190039060005260206000200160009091909190915055806002018360000151908060018154018082558091505060019003906000526020600020016000909190919091505560078390806001815401808255809150506001900390600052602060002090600502016000909190919091506000820151816000015560208201518160010160006101000a81548173ffffffffffffffffffffffffffffffffffffffff021916908373ffffffffffffffffffffffffffffffffffffffff16021790555060408201518160020160006101000a81548173ffffffffffffffffffffffffffffffffffffffff021916908373ffffffffffffffffffffffffffffffffffffffff1602179055506060820151816003019081610cf1919061278c565b506080820151816004019080519060200190610d0e929190611a40565b505050505050505050565b6060806000600360008573ffffffffffffffffffffffffffffffffffffffff1673ffffffffffffffffffffffffffffffffffffffff168152602001908152602001600020604051806060016040529081600082018054610d78906124b1565b80601f0160208091040260200160405190810160405280929190818152602001828054610da4906124b1565b8015610df15780601f10610dc657610100808354040283529160200191610df1565b820191906000526020600020905b815481529060010190602001808311610dd457829003601f168201915b50505050508152602001600182018054610e0a906124b1565b80601f0160208091040260200160405190810160405280929190818152602001828054610e36906124b1565b8015610e835780601f10610e5857610100808354040283529160200191610e83565b820191906000526020600020905b815481529060010190602001808311610e6657829003601f168201915b5050505050815260200160028201805480602002602001604051908101604052809291908181526020018280548015610edb57602002820191906000526020600020905b815481526020019060010190808311610ec7575b5050505050815250509050806000015181602001519250925050915091565b60011515610f123360016118c890919063ffffffff16565b151514610f54576040517f08c379a0000000000000000000000000000000000000000000000000000000008152600401610f4b9061252e565b60405180910390fd5b838073ffffffffffffffffffffffffffffffffffffffff16600560003373ffffffffffffffffffffffffffffffffffffffff1673ffffffffffffffffffffffffffffffffffffffff16815260200190815260200160002060009054906101000a900473ffffffffffffffffffffffffffffffffffffffff1673ffffffffffffffffffffffffffffffffffffffff1614611022576040517f08c379a0000000000000000000000000000000000000000000000000000000008152600401611019906125c0565b60405180910390fd5b6110363360006118c890919063ffffffff16565b15611076576040517f08c379a000000000000000000000000000000000000000000000000000000000815260040161106d90612433565b60405180910390fd5b61107e611a8d565b60068054905081600001818152505085816020019073ffffffffffffffffffffffffffffffffffffffff16908173ffffffffffffffffffffffffffffffffffffffff168152505033816040019073ffffffffffffffffffffffffffffffffffffffff16908173ffffffffffffffffffffffffffffffffffffffff168152505084816060018190525083816080018190525060068190806001815401808255809150506001900390600052602060002090600502016000909190919091506000820151816000015560208201518160010160006101000a81548173ffffffffffffffffffffffffffffffffffffffff021916908373ffffffffffffffffffffffffffffffffffffffff16021790555060408201518160020160006101000a81548173ffffffffffffffffffffffffffffffffffffffff021916908373ffffffffffffffffffffffffffffffffffffffff16021790555060608201518160030190816111e8919061278c565b5060808201518160040190816111fe919061278c565b50505061120f83826000015161198f565b505050505050565b6001151561122f3360006118c890919063ffffffff16565b151514611271576040517f08c379a0000000000000000000000000000000000000000000000000000000008152600401611268906128aa565b60405180910390fd5b3373ffffffffffffffffffffffffffffffffffffffff168373ffffffffffffffffffffffffffffffffffffffff16036112df576040517f08c379a00000000000000000000000000000000000000000000000000000000081526004016112d69061293c565b60405180910390fd5b6112f383600161182090919063ffffffff16565b6112fb611ae8565b8281600001819052508181602001819052506008849080600181540180825580915050600190039060005260206000200160009091909190916101000a81548173ffffffffffffffffffffffffffffffffffffffff021916908373ffffffffffffffffffffffffffffffffffffffff16021790555080600360008673ffffffffffffffffffffffffffffffffffffffff1673ffffffffffffffffffffffffffffffffffffffff16815260200190815260200160002060008201518160000190816113c5919061278c565b5060208201518160010190816113db919061278c565b5060408201518160020190805190602001906113f8929190611a40565b5090505050505050565b6001151561141a3360006118c890919063ffffffff16565b15151461145c576040517f08c379a0000000000000000000000000000000000000000000000000000000008152600401611453906128aa565b60405180910390fd5b3373ffffffffffffffffffffffffffffffffffffffff168373ffffffffffffffffffffffffffffffffffffffff16036114ca576040517f08c379a00000000000000000000000000000000000000000000000000000000081526004016114c19061293c565b60405180910390fd5b6114de83600261182090919063ffffffff16565b6114e6611b09565b82816000018190525081816020018190525080600460008673ffffffffffffffffffffffffffffffffffffffff1673ffffffffffffffffffffffffffffffffffffffff168152602001908152602001600020600082015181600001908161154d919061278c565b506020820151816001019081611563919061278c565b506040820151816002019080519060200190611580929190611a40565b509050506009849080600181540180825580915050600190039060005260206000200160009091909190916101000a81548173ffffffffffffffffffffffffffffffffffffffff021916908373ffffffffffffffffffffffffffffffffffffffff16021790555050505050565b6000600a60009054906101000a900473ffffffffffffffffffffffffffffffffffffffff16905090565b600061162d8260026118c890919063ffffffff16565b9050919050565b6001151561164c3360006118c890919063ffffffff16565b15151461168e576040517f08c379a0000000000000000000000000000000000000000000000000000000008152600401611685906128aa565b60405180910390fd5b80600560008473ffffffffffffffffffffffffffffffffffffffff1673ffffffffffffffffffffffffffffffffffffffff16815260200190815260200160002060006101000a81548173ffffffffffffffffffffffffffffffffffffffff021916908373ffffffffffffffffffffffffffffffffffffffff1602179055505050565b60006117268260016118c890919063ffffffff16565b9050919050565b606060088054806020026020016040519081016040528092919081815260200182805480156117b157602002820191906000526020600020905b8160009054906101000a900473ffffffffffffffffffffffffffffffffffffffff1673ffffffffffffffffffffffffffffffffffffffff1681526020019060010190808311611767575b5050505050905090565b600981815481106117cb57600080fd5b906000526020600020016000915054906101000a900473ffffffffffffffffffffffffffffffffffffffff1681565b600a60009054906101000a900473ffffffffffffffffffffffffffffffffffffffff1681565b61182a82826118c8565b1561186a576040517f08c379a0000000000000000000000000000000000000000000000000000000008152600401611861906129a8565b60405180910390fd5b60018260000160008373ffffffffffffffffffffffffffffffffffffffff1673ffffffffffffffffffffffffffffffffffffffff16815260200190815260200160002060006101000a81548160ff0219169083151502179055505050565b60008073ffffffffffffffffffffffffffffffffffffffff168273ffffffffffffffffffffffffffffffffffffffff1603611938576040517f08c379a000000000000000000000000000000000000000000000000000000000815260040161192f90612a3a565b60405180910390fd5b8260000160008373ffffffffffffffffffffffffffffffffffffffff1673ffffffffffffffffffffffffffffffffffffffff16815260200190815260200160002060009054906101000a900460ff16905092915050565b6000600783815481106119a5576119a4612453565b5b9060005260206000209060050201905080600401829080600181540180825580915050600190039060005260206000200160009091909190915055505050565b6040518060a0016040528060008152602001600073ffffffffffffffffffffffffffffffffffffffff168152602001600073ffffffffffffffffffffffffffffffffffffffff16815260200160608152602001606081525090565b828054828255906000526020600020908101928215611a7c579160200282015b82811115611a7b578251825591602001919060010190611a60565b5b509050611a899190611b2a565b5090565b6040518060a0016040528060008152602001600073ffffffffffffffffffffffffffffffffffffffff168152602001600073ffffffffffffffffffffffffffffffffffffffff16815260200160608152602001606081525090565b60405180606001604052806060815260200160608152602001606081525090565b60405180606001604052806060815260200160608152602001606081525090565b5b80821115611b43576000816000905550600101611b2b565b5090565b6000604051905090565b600080fd5b600080fd5b6000819050919050565b611b6e81611b5b565b8114611b7957600080fd5b50565b600081359050611b8b81611b65565b92915050565b600060208284031215611ba757611ba6611b51565b5b6000611bb584828501611b7c565b91505092915050565b611bc781611b5b565b82525050565b600073ffffffffffffffffffffffffffffffffffffffff82169050919050565b6000611bf882611bcd565b9050919050565b611c0881611bed565b82525050565b600081519050919050565b600082825260208201905092915050565b60005b83811015611c48578082015181840152602081019050611c2d565b83811115611c57576000848401525b50505050565b6000601f19601f8301169050919050565b6000611c7982611c0e565b611c838185611c19565b9350611c93818560208601611c2a565b611c9c81611c5d565b840191505092915050565b600081519050919050565b600082825260208201905092915050565b6000819050602082019050919050565b6000611cdf8383611bbe565b60208301905092915050565b6000602082019050919050565b6000611d0382611ca7565b611d0d8185611cb2565b9350611d1883611cc3565b8060005b83811015611d49578151611d308882611cd3565b9750611d3b83611ceb565b925050600181019050611d1c565b5085935050505092915050565b600060a083016000830151611d6e6000860182611bbe565b506020830151611d816020860182611bff565b506040830151611d946040860182611bff565b5060608301518482036060860152611dac8282611c6e565b91505060808301518482036080860152611dc68282611cf8565b9150508091505092915050565b60006020820190508181036000830152611ded8184611d56565b905092915050565b611dfe81611bed565b82525050565b6000602082019050611e196000830184611df5565b92915050565b611e2881611b5b565b82525050565b600082825260208201905092915050565b6000611e4a82611c0e565b611e548185611e2e565b9350611e64818560208601611c2a565b611e6d81611c5d565b840191505092915050565b6000608082019050611e8d6000830187611e1f565b611e9a6020830186611df5565b611ea76040830185611df5565b8181036060830152611eb98184611e3f565b905095945050505050565b600082825260208201905092915050565b6000611ee082611ca7565b611eea8185611ec4565b9350611ef583611cc3565b8060005b83811015611f26578151611f0d8882611cd3565b9750611f1883611ceb565b925050600181019050611ef9565b5085935050505092915050565b60006020820190508181036000830152611f4d8184611ed5565b905092915050565b611f5e81611bed565b8114611f6957600080fd5b50565b600081359050611f7b81611f55565b92915050565b600080fd5b600080fd5b7f4e487b7100000000000000000000000000000000000000000000000000000000600052604160045260246000fd5b611fc382611c5d565b810181811067ffffffffffffffff82111715611fe257611fe1611f8b565b5b80604052505050565b6000611ff5611b47565b90506120018282611fba565b919050565b600067ffffffffffffffff82111561202157612020611f8b565b5b61202a82611c5d565b9050602081019050919050565b82818337600083830152505050565b600061205961205484612006565b611feb565b90508281526020810184848401111561207557612074611f86565b5b612080848285612037565b509392505050565b600082601f83011261209d5761209c611f81565b5b81356120ad848260208601612046565b91505092915050565b600080604083850312156120cd576120cc611b51565b5b60006120db85828601611f6c565b925050602083013567ffffffffffffffff8111156120fc576120fb611b56565b5b61210885828601612088565b9150509250929050565b60006020828403121561212857612127611b51565b5b600061213684828501611f6c565b91505092915050565b600060408201905081810360008301526121598185611e3f565b9050818103602083015261216d8184611e3f565b90509392505050565b600080600080608085870312156121905761218f611b51565b5b600061219e87828801611f6c565b945050602085013567ffffffffffffffff8111156121bf576121be611b56565b5b6121cb87828801612088565b935050604085013567ffffffffffffffff8111156121ec576121eb611b56565b5b6121f887828801612088565b925050606061220987828801611b7c565b91505092959194509250565b60008060006060848603121561222e5761222d611b51565b5b600061223c86828701611f6c565b935050602084013567ffffffffffffffff81111561225d5761225c611b56565b5b61226986828701612088565b925050604084013567ffffffffffffffff81111561228a57612289611b56565b5b61229686828701612088565b9150509250925092565b60008115159050919050565b6122b5816122a0565b82525050565b60006020820190506122d060008301846122ac565b92915050565b600080604083850312156122ed576122ec611b51565b5b60006122fb85828601611f6c565b925050602061230c85828601611f6c565b9150509250929050565b600081519050919050565b600082825260208201905092915050565b6000819050602082019050919050565b600061234e8383611bff565b60208301905092915050565b6000602082019050919050565b600061237282612316565b61237c8185612321565b935061238783612332565b8060005b838110156123b857815161239f8882612342565b97506123aa8361235a565b92505060018101905061238b565b5085935050505092915050565b600060208201905081810360008301526123df8184612367565b905092915050565b7f4e6f7420666f722061646d696e00000000000000000000000000000000000000600082015250565b600061241d600d83611e2e565b9150612428826123e7565b602082019050919050565b6000602082019050818103600083015261244c81612410565b9050919050565b7f4e487b7100000000000000000000000000000000000000000000000000000000600052603260045260246000fd5b7f4e487b7100000000000000000000000000000000000000000000000000000000600052602260045260246000fd5b600060028204905060018216806124c957607f821691505b6020821081036124dc576124db612482565b5b50919050565b7f446f63746f72206f6e6c79000000000000000000000000000000000000000000600082015250565b6000612518600b83611e2e565b9150612523826124e2565b602082019050919050565b600060208201905081810360008301526125478161250b565b9050919050565b7f596f7520686176656e2774206265656e2061737369676e65642074686973207060008201527f617469656e740000000000000000000000000000000000000000000000000000602082015250565b60006125aa602683611e2e565b91506125b58261254e565b604082019050919050565b600060208201905081810360008301526125d98161259d565b9050919050565b60008190508160005260206000209050919050565b60006020601f8301049050919050565b600082821b905092915050565b6000600883026126427fffffffffffffffffffffffffffffffffffffffffffffffffffffffffffffffff82612605565b61264c8683612605565b95508019841693508086168417925050509392505050565b6000819050919050565b600061268961268461267f84611b5b565b612664565b611b5b565b9050919050565b6000819050919050565b6126a38361266e565b6126b76126af82612690565b848454612612565b825550505050565b600090565b6126cc6126bf565b6126d781848461269a565b505050565b5b818110156126fb576126f06000826126c4565b6001810190506126dd565b5050565b601f82111561274057612711816125e0565b61271a846125f5565b81016020851015612729578190505b61273d612735856125f5565b8301826126dc565b50505b505050565b600082821c905092915050565b600061276360001984600802612745565b1980831691505092915050565b600061277c8383612752565b9150826002028217905092915050565b61279582611c0e565b67ffffffffffffffff8111156127ae576127ad611f8b565b5b6127b882546124b1565b6127c38282856126ff565b600060209050601f8311600181146127f657600084156127e4578287015190505b6127ee8582612770565b865550612856565b601f198416612804866125e0565b60005b8281101561282c57848901518255600182019150602085019450602081019050612807565b868310156128495784890151612845601f891682612752565b8355505b6001600288020188555050505b505050505050565b7f41646d696e206f6e6c7900000000000000000000000000000000000000000000600082015250565b6000612894600a83611e2e565b915061289f8261285e565b602082019050919050565b600060208201905081810360008301526128c381612887565b9050919050565b7f596f7520617265206e6f7420656c696769626c6520666f72207468697320726f60008201527f6c65000000000000000000000000000000000000000000000000000000000000602082015250565b6000612926602283611e2e565b9150612931826128ca565b604082019050919050565b6000602082019050818103600083015261295581612919565b9050919050565b7f526f6c65733a206163636f756e7420616c72656164792068617320726f6c6500600082015250565b6000612992601f83611e2e565b915061299d8261295c565b602082019050919050565b600060208201905081810360008301526129c181612985565b9050919050565b7f526f6c65733a206163636f756e7420697320746865207a65726f20616464726560008201527f7373000000000000000000000000000000000000000000000000000000000000602082015250565b6000612a24602283611e2e565b9150612a2f826129c8565b604082019050919050565b60006020820190508181036000830152612a5381612a17565b905091905056fea2646970667358221220e9e63cca29d790dc684eab0f35c83c849ae19f86bf14f4424a70572c6e2f9c5564736f6c634300080f0033","opcodes":"PUSH1 0x80 PUSH1 0x40 MSTORE CALLVALUE DUP1 ISZERO PUSH3 0x11 JUMPI PUSH1 0x0 DUP1 REVERT JUMPDEST POP CALLER PUSH1 0xA PUSH1 0x0 PUSH2 0x100 EXP DUP2 SLOAD DUP2 PUSH20 0xFFFFFFFFFFFFFFFFFFFFFFFFFFFFFFFFFFFFFFFF MUL NOT AND SWAP1 DUP4 PUSH20 0xFFFFFFFFFFFFFFFFFFFFFFFFFFFFFFFFFFFFFFFF AND MUL OR SWAP1 SSTORE POP PUSH3 0x90 PUSH1 0xA PUSH1 0x0 SWAP1 SLOAD SWAP1 PUSH2 0x100 EXP SWAP1 DIV PUSH20 0xFFFFFFFFFFFFFFFFFFFFFFFFFFFFFFFFFFFFFFFF AND PUSH1 0x0 PUSH3 0x96 PUSH1 0x20 SHL PUSH3 0x1820 OR SWAP1 SWAP2 SWAP1 PUSH1 0x20 SHR JUMP JUMPDEST PUSH3 0x32E JUMP JUMPDEST PUSH3 0xA8 DUP3 DUP3 PUSH3 0x149 PUSH1 0x20 SHL PUSH1 0x20 SHR JUMP JUMPDEST ISZERO PUSH3 0xEB JUMPI PUSH1 0x40 MLOAD PUSH32 0x8C379A000000000000000000000000000000000000000000000000000000000 DUP2 MSTORE PUSH1 0x4 ADD PUSH3 0xE2 SWAP1 PUSH3 0x274 JUMP JUMPDEST PUSH1 0x40 MLOAD DUP1 SWAP2 SUB SWAP1 REVERT JUMPDEST PUSH1 0x1 DUP3 PUSH1 0x0 ADD PUSH1 0x0 DUP4 PUSH20 0xFFFFFFFFFFFFFFFFFFFFFFFFFFFFFFFFFFFFFFFF AND PUSH20 0xFFFFFFFFFFFFFFFFFFFFFFFFFFFFFFFFFFFFFFFF AND DUP2 MSTORE PUSH1 0x20 ADD SWAP1 DUP2 MSTORE PUSH1 0x20 ADD PUSH1 0x0 KECCAK256 PUSH1 0x0 PUSH2 0x100 EXP DUP2 SLOAD DUP2 PUSH1 0xFF MUL NOT AND SWAP1 DUP4 ISZERO ISZERO MUL OR SWAP1 SSTORE POP POP POP JUMP JUMPDEST PUSH1 0x0 DUP1 PUSH20 0xFFFFFFFFFFFFFFFFFFFFFFFFFFFFFFFFFFFFFFFF AND DUP3 PUSH20 0xFFFFFFFFFFFFFFFFFFFFFFFFFFFFFFFFFFFFFFFF AND SUB PUSH3 0x1BC JUMPI PUSH1 0x40 MLOAD PUSH32 0x8C379A000000000000000000000000000000000000000000000000000000000 DUP2 MSTORE PUSH1 0x4 ADD PUSH3 0x1B3 SWAP1 PUSH3 0x30C JUMP JUMPDEST PUSH1 0x40 MLOAD DUP1 SWAP2 SUB SWAP1 REVERT JUMPDEST DUP3 PUSH1 0x0 ADD PUSH1 0x0 DUP4 PUSH20 0xFFFFFFFFFFFFFFFFFFFFFFFFFFFFFFFFFFFFFFFF AND PUSH20 0xFFFFFFFFFFFFFFFFFFFFFFFFFFFFFFFFFFFFFFFF AND DUP2 MSTORE PUSH1 0x20 ADD SWAP1 DUP2 MSTORE PUSH1 0x20 ADD PUSH1 0x0 KECCAK256 PUSH1 0x0 SWAP1 SLOAD SWAP1 PUSH2 0x100 EXP SWAP1 DIV PUSH1 0xFF AND SWAP1 POP SWAP3 SWAP2 POP POP JUMP JUMPDEST PUSH1 0x0 DUP3 DUP3 MSTORE PUSH1 0x20 DUP3 ADD SWAP1 POP SWAP3 SWAP2 POP POP JUMP JUMPDEST PUSH32 0x526F6C65733A206163636F756E7420616C72656164792068617320726F6C6500 PUSH1 0x0 DUP3 ADD MSTORE POP JUMP JUMPDEST PUSH1 0x0 PUSH3 0x25C PUSH1 0x1F DUP4 PUSH3 0x213 JUMP JUMPDEST SWAP2 POP PUSH3 0x269 DUP3 PUSH3 0x224 JUMP JUMPDEST PUSH1 0x20 DUP3 ADD SWAP1 POP SWAP2 SWAP1 POP JUMP JUMPDEST PUSH1 0x0 PUSH1 0x20 DUP3 ADD SWAP1 POP DUP2 DUP2 SUB PUSH1 0x0 DUP4 ADD MSTORE PUSH3 0x28F DUP2 PUSH3 0x24D JUMP JUMPDEST SWAP1 POP SWAP2 SWAP1 POP JUMP JUMPDEST PUSH32 0x526F6C65733A206163636F756E7420697320746865207A65726F206164647265 PUSH1 0x0 DUP3 ADD MSTORE PUSH32 0x7373000000000000000000000000000000000000000000000000000000000000 PUSH1 0x20 DUP3 ADD MSTORE POP JUMP JUMPDEST PUSH1 0x0 PUSH3 0x2F4 PUSH1 0x22 DUP4 PUSH3 0x213 JUMP JUMPDEST SWAP2 POP PUSH3 0x301 DUP3 PUSH3 0x296 JUMP JUMPDEST PUSH1 0x40 DUP3 ADD SWAP1 POP SWAP2 SWAP1 POP JUMP JUMPDEST PUSH1 0x0 PUSH1 0x20 DUP3 ADD SWAP1 POP DUP2 DUP2 SUB PUSH1 0x0 DUP4 ADD MSTORE PUSH3 0x327 DUP2 PUSH3 0x2E5 JUMP JUMPDEST SWAP1 POP SWAP2 SWAP1 POP JUMP JUMPDEST PUSH2 0x2A90 DUP1 PUSH3 0x33E PUSH1 0x0 CODECOPY PUSH1 0x0 RETURN INVALID PUSH1 0x80 PUSH1 0x40 MSTORE CALLVALUE DUP1 ISZERO PUSH2 0x10 JUMPI PUSH1 0x0 DUP1 REVERT JUMPDEST POP PUSH1 0x4 CALLDATASIZE LT PUSH2 0x100 JUMPI PUSH1 0x0 CALLDATALOAD PUSH1 0xE0 SHR DUP1 PUSH4 0x37B16B50 GT PUSH2 0x97 JUMPI DUP1 PUSH4 0x996440C6 GT PUSH2 0x66 JUMPI DUP1 PUSH4 0x996440C6 EQ PUSH2 0x2C1 JUMPI DUP1 PUSH4 0xA71AEFC9 EQ PUSH2 0x2F1 JUMPI DUP1 PUSH4 0xBABB1D41 EQ PUSH2 0x30F JUMPI DUP1 PUSH4 0xF851A440 EQ PUSH2 0x33F JUMPI PUSH2 0x100 JUMP JUMPDEST DUP1 PUSH4 0x37B16B50 EQ PUSH2 0x23B JUMPI DUP1 PUSH4 0x6E9960C3 EQ PUSH2 0x257 JUMPI DUP1 PUSH4 0x8F9C79ED EQ PUSH2 0x275 JUMPI DUP1 PUSH4 0x9429E171 EQ PUSH2 0x2A5 JUMPI PUSH2 0x100 JUMP JUMPDEST DUP1 PUSH4 0x1F21A79D GT PUSH2 0xD3 JUMPI DUP1 PUSH4 0x1F21A79D EQ PUSH2 0x1B6 JUMPI DUP1 PUSH4 0x2F04E064 EQ PUSH2 0x1D2 JUMPI DUP1 PUSH4 0x34B3E4F1 EQ PUSH2 0x203 JUMPI DUP1 PUSH4 0x34B78998 EQ PUSH2 0x21F JUMPI PUSH2 0x100 JUMP JUMPDEST DUP1 PUSH4 0xC388722 EQ PUSH2 0x105 JUMPI DUP1 PUSH4 0x127CA4B4 EQ PUSH2 0x135 JUMPI DUP1 PUSH4 0x19DA83A8 EQ PUSH2 0x165 JUMPI DUP1 PUSH4 0x1E175C40 EQ PUSH2 0x198 JUMPI JUMPDEST PUSH1 0x0 DUP1 REVERT JUMPDEST PUSH2 0x11F PUSH1 0x4 DUP1 CALLDATASIZE SUB DUP2 ADD SWAP1 PUSH2 0x11A SWAP2 SWAP1 PUSH2 0x1B91 JUMP JUMPDEST PUSH2 0x35D JUMP JUMPDEST PUSH1 0x40 MLOAD PUSH2 0x12C SWAP2 SWAP1 PUSH2 0x1DD3 JUMP JUMPDEST PUSH1 0x40 MLOAD DUP1 SWAP2 SUB SWAP1 RETURN JUMPDEST PUSH2 0x14F PUSH1 0x4 DUP1 CALLDATASIZE SUB DUP2 ADD SWAP1 PUSH2 0x14A SWAP2 SWAP1 PUSH2 0x1B91 JUMP JUMPDEST PUSH2 0x609 JUMP JUMPDEST PUSH1 0x40 MLOAD PUSH2 0x15C SWAP2 SWAP1 PUSH2 0x1E04 JUMP JUMPDEST PUSH1 0x40 MLOAD DUP1 SWAP2 SUB SWAP1 RETURN JUMPDEST PUSH2 0x17F PUSH1 0x4 DUP1 CALLDATASIZE SUB DUP2 ADD SWAP1 PUSH2 0x17A SWAP2 SWAP1 PUSH2 0x1B91 JUMP JUMPDEST PUSH2 0x648 JUMP JUMPDEST PUSH1 0x40 MLOAD PUSH2 0x18F SWAP5 SWAP4 SWAP3 SWAP2 SWAP1 PUSH2 0x1E78 JUMP JUMPDEST PUSH1 0x40 MLOAD DUP1 SWAP2 SUB SWAP1 RETURN JUMPDEST PUSH2 0x1A0 PUSH2 0x750 JUMP JUMPDEST PUSH1 0x40 MLOAD PUSH2 0x1AD SWAP2 SWAP1 PUSH2 0x1F33 JUMP JUMPDEST PUSH1 0x40 MLOAD DUP1 SWAP2 SUB SWAP1 RETURN JUMPDEST PUSH2 0x1D0 PUSH1 0x4 DUP1 CALLDATASIZE SUB DUP2 ADD SWAP1 PUSH2 0x1CB SWAP2 SWAP1 PUSH2 0x20B6 JUMP JUMPDEST PUSH2 0x928 JUMP JUMPDEST STOP JUMPDEST PUSH2 0x1EC PUSH1 0x4 DUP1 CALLDATASIZE SUB DUP2 ADD SWAP1 PUSH2 0x1E7 SWAP2 SWAP1 PUSH2 0x2112 JUMP JUMPDEST PUSH2 0xD19 JUMP JUMPDEST PUSH1 0x40 MLOAD PUSH2 0x1FA SWAP3 SWAP2 SWAP1 PUSH2 0x213F JUMP JUMPDEST PUSH1 0x40 MLOAD DUP1 SWAP2 SUB SWAP1 RETURN JUMPDEST PUSH2 0x21D PUSH1 0x4 DUP1 CALLDATASIZE SUB DUP2 ADD SWAP1 PUSH2 0x218 SWAP2 SWAP1 PUSH2 0x2176 JUMP JUMPDEST PUSH2 0xEFA JUMP JUMPDEST STOP JUMPDEST PUSH2 0x239 PUSH1 0x4 DUP1 CALLDATASIZE SUB DUP2 ADD SWAP1 PUSH2 0x234 SWAP2 SWAP1 PUSH2 0x2215 JUMP JUMPDEST PUSH2 0x1217 JUMP JUMPDEST STOP JUMPDEST PUSH2 0x255 PUSH1 0x4 DUP1 CALLDATASIZE SUB DUP2 ADD SWAP1 PUSH2 0x250 SWAP2 SWAP1 PUSH2 0x2215 JUMP JUMPDEST PUSH2 0x1402 JUMP JUMPDEST STOP JUMPDEST PUSH2 0x25F PUSH2 0x15ED JUMP JUMPDEST PUSH1 0x40 MLOAD PUSH2 0x26C SWAP2 SWAP1 PUSH2 0x1E04 JUMP JUMPDEST PUSH1 0x40 MLOAD DUP1 SWAP2 SUB SWAP1 RETURN JUMPDEST PUSH2 0x28F PUSH1 0x4 DUP1 CALLDATASIZE SUB DUP2 ADD SWAP1 PUSH2 0x28A SWAP2 SWAP1 PUSH2 0x2112 JUMP JUMPDEST PUSH2 0x1617 JUMP JUMPDEST PUSH1 0x40 MLOAD PUSH2 0x29C SWAP2 SWAP1 PUSH2 0x22BB JUMP JUMPDEST PUSH1 0x40 MLOAD DUP1 SWAP2 SUB SWAP1 RETURN JUMPDEST PUSH2 0x2BF PUSH1 0x4 DUP1 CALLDATASIZE SUB DUP2 ADD SWAP1 PUSH2 0x2BA SWAP2 SWAP1 PUSH2 0x22D6 JUMP JUMPDEST PUSH2 0x1634 JUMP JUMPDEST STOP JUMPDEST PUSH2 0x2DB PUSH1 0x4 DUP1 CALLDATASIZE SUB DUP2 ADD SWAP1 PUSH2 0x2D6 SWAP2 SWAP1 PUSH2 0x2112 JUMP JUMPDEST PUSH2 0x1710 JUMP JUMPDEST PUSH1 0x40 MLOAD PUSH2 0x2E8 SWAP2 SWAP1 PUSH2 0x22BB JUMP JUMPDEST PUSH1 0x40 MLOAD DUP1 SWAP2 SUB SWAP1 RETURN JUMPDEST PUSH2 0x2F9 PUSH2 0x172D JUMP JUMPDEST PUSH1 0x40 MLOAD PUSH2 0x306 SWAP2 SWAP1 PUSH2 0x23C5 JUMP JUMPDEST PUSH1 0x40 MLOAD DUP1 SWAP2 SUB SWAP1 RETURN JUMPDEST PUSH2 0x329 PUSH1 0x4 DUP1 CALLDATASIZE SUB DUP2 ADD SWAP1 PUSH2 0x324 SWAP2 SWAP1 PUSH2 0x1B91 JUMP JUMPDEST PUSH2 0x17BB JUMP JUMPDEST PUSH1 0x40 MLOAD PUSH2 0x336 SWAP2 SWAP1 PUSH2 0x1E04 JUMP JUMPDEST PUSH1 0x40 MLOAD DUP1 SWAP2 SUB SWAP1 RETURN JUMPDEST PUSH2 0x347 PUSH2 0x17FA JUMP JUMPDEST PUSH1 0x40 MLOAD PUSH2 0x354 SWAP2 SWAP1 PUSH2 0x1E04 JUMP JUMPDEST PUSH1 0x40 MLOAD DUP1 SWAP2 SUB SWAP1 RETURN JUMPDEST PUSH2 0x365 PUSH2 0x19E5 JUMP JUMPDEST PUSH2 0x379 CALLER PUSH1 0x0 PUSH2 0x18C8 SWAP1 SWAP2 SWAP1 PUSH4 0xFFFFFFFF AND JUMP JUMPDEST ISZERO PUSH2 0x3B9 JUMPI PUSH1 0x40 MLOAD PUSH32 0x8C379A000000000000000000000000000000000000000000000000000000000 DUP2 MSTORE PUSH1 0x4 ADD PUSH2 0x3B0 SWAP1 PUSH2 0x2433 JUMP JUMPDEST PUSH1 0x40 MLOAD DUP1 SWAP2 SUB SWAP1 REVERT JUMPDEST PUSH1 0x0 PUSH1 0x7 DUP4 DUP2 SLOAD DUP2 LT PUSH2 0x3CF JUMPI PUSH2 0x3CE PUSH2 0x2453 JUMP JUMPDEST JUMPDEST SWAP1 PUSH1 0x0 MSTORE PUSH1 0x20 PUSH1 0x0 KECCAK256 SWAP1 PUSH1 0x5 MUL ADD PUSH1 0x40 MLOAD DUP1 PUSH1 0xA0 ADD PUSH1 0x40 MSTORE SWAP1 DUP2 PUSH1 0x0 DUP3 ADD SLOAD DUP2 MSTORE PUSH1 0x20 ADD PUSH1 0x1 DUP3 ADD PUSH1 0x0 SWAP1 SLOAD SWAP1 PUSH2 0x100 EXP SWAP1 DIV PUSH20 0xFFFFFFFFFFFFFFFFFFFFFFFFFFFFFFFFFFFFFFFF AND PUSH20 0xFFFFFFFFFFFFFFFFFFFFFFFFFFFFFFFFFFFFFFFF AND PUSH20 0xFFFFFFFFFFFFFFFFFFFFFFFFFFFFFFFFFFFFFFFF AND DUP2 MSTORE PUSH1 0x20 ADD PUSH1 0x2 DUP3 ADD PUSH1 0x0 SWAP1 SLOAD SWAP1 PUSH2 0x100 EXP SWAP1 DIV PUSH20 0xFFFFFFFFFFFFFFFFFFFFFFFFFFFFFFFFFFFFFFFF AND PUSH20 0xFFFFFFFFFFFFFFFFFFFFFFFFFFFFFFFFFFFFFFFF AND PUSH20 0xFFFFFFFFFFFFFFFFFFFFFFFFFFFFFFFFFFFFFFFF AND DUP2 MSTORE PUSH1 0x20 ADD PUSH1 0x3 DUP3 ADD DUP1 SLOAD PUSH2 0x4AE SWAP1 PUSH2 0x24B1 JUMP JUMPDEST DUP1 PUSH1 0x1F ADD PUSH1 0x20 DUP1 SWAP2 DIV MUL PUSH1 0x20 ADD PUSH1 0x40 MLOAD SWAP1 DUP2 ADD PUSH1 0x40 MSTORE DUP1 SWAP3 SWAP2 SWAP1 DUP2 DUP2 MSTORE PUSH1 0x20 ADD DUP3 DUP1 SLOAD PUSH2 0x4DA SWAP1 PUSH2 0x24B1 JUMP JUMPDEST DUP1 ISZERO PUSH2 0x527 JUMPI DUP1 PUSH1 0x1F LT PUSH2 0x4FC JUMPI PUSH2 0x100 DUP1 DUP4 SLOAD DIV MUL DUP4 MSTORE SWAP2 PUSH1 0x20 ADD SWAP2 PUSH2 0x527 JUMP JUMPDEST DUP3 ADD SWAP2 SWAP1 PUSH1 0x0 MSTORE PUSH1 0x20 PUSH1 0x0 KECCAK256 SWAP1 JUMPDEST DUP2 SLOAD DUP2 MSTORE SWAP1 PUSH1 0x1 ADD SWAP1 PUSH1 0x20 ADD DUP1 DUP4 GT PUSH2 0x50A JUMPI DUP3 SWAP1 SUB PUSH1 0x1F AND DUP3 ADD SWAP2 JUMPDEST POP POP POP POP POP DUP2 MSTORE PUSH1 0x20 ADD PUSH1 0x4 DUP3 ADD DUP1 SLOAD DUP1 PUSH1 0x20 MUL PUSH1 0x20 ADD PUSH1 0x40 MLOAD SWAP1 DUP2 ADD PUSH1 0x40 MSTORE DUP1 SWAP3 SWAP2 SWAP1 DUP2 DUP2 MSTORE PUSH1 0x20 ADD DUP3 DUP1 SLOAD DUP1 ISZERO PUSH2 0x57F JUMPI PUSH1 0x20 MUL DUP3 ADD SWAP2 SWAP1 PUSH1 0x0 MSTORE PUSH1 0x20 PUSH1 0x0 KECCAK256 SWAP1 JUMPDEST DUP2 SLOAD DUP2 MSTORE PUSH1 0x20 ADD SWAP1 PUSH1 0x1 ADD SWAP1 DUP1 DUP4 GT PUSH2 0x56B JUMPI JUMPDEST POP POP POP POP POP DUP2 MSTORE POP POP SWAP1 POP CALLER PUSH20 0xFFFFFFFFFFFFFFFFFFFFFFFFFFFFFFFFFFFFFFFF AND DUP2 PUSH1 0x40 ADD MLOAD PUSH20 0xFFFFFFFFFFFFFFFFFFFFFFFFFFFFFFFFFFFFFFFF AND EQ DUP1 PUSH2 0x5F7 JUMPI POP CALLER PUSH20 0xFFFFFFFFFFFFFFFFFFFFFFFFFFFFFFFFFFFFFFFF AND DUP2 PUSH1 0x20 ADD MLOAD PUSH20 0xFFFFFFFFFFFFFFFFFFFFFFFFFFFFFFFFFFFFFFFF AND EQ JUMPDEST PUSH2 0x600 JUMPI PUSH1 0x0 DUP1 REVERT JUMPDEST DUP1 SWAP2 POP POP SWAP2 SWAP1 POP JUMP JUMPDEST PUSH1 0x8 DUP2 DUP2 SLOAD DUP2 LT PUSH2 0x619 JUMPI PUSH1 0x0 DUP1 REVERT JUMPDEST SWAP1 PUSH1 0x0 MSTORE PUSH1 0x20 PUSH1 0x0 KECCAK256 ADD PUSH1 0x0 SWAP2 POP SLOAD SWAP1 PUSH2 0x100 EXP SWAP1 DIV PUSH20 0xFFFFFFFFFFFFFFFFFFFFFFFFFFFFFFFFFFFFFFFF AND DUP2 JUMP JUMPDEST PUSH1 0x7 DUP2 DUP2 SLOAD DUP2 LT PUSH2 0x658 JUMPI PUSH1 0x0 DUP1 REVERT JUMPDEST SWAP1 PUSH1 0x0 MSTORE PUSH1 0x20 PUSH1 0x0 KECCAK256 SWAP1 PUSH1 0x5 MUL ADD PUSH1 0x0 SWAP2 POP SWAP1 POP DUP1 PUSH1 0x0 ADD SLOAD SWAP1 DUP1 PUSH1 0x1 ADD PUSH1 0x0 SWAP1 SLOAD SWAP1 PUSH2 0x100 EXP SWAP1 DIV PUSH20 0xFFFFFFFFFFFFFFFFFFFFFFFFFFFFFFFFFFFFFFFF AND SWAP1 DUP1 PUSH1 0x2 ADD PUSH1 0x0 SWAP1 SLOAD SWAP1 PUSH2 0x100 EXP SWAP1 DIV PUSH20 0xFFFFFFFFFFFFFFFFFFFFFFFFFFFFFFFFFFFFFFFF AND SWAP1 DUP1 PUSH1 0x3 ADD DUP1 SLOAD PUSH2 0x6CD SWAP1 PUSH2 0x24B1 JUMP JUMPDEST DUP1 PUSH1 0x1F ADD PUSH1 0x20 DUP1 SWAP2 DIV MUL PUSH1 0x20 ADD PUSH1 0x40 MLOAD SWAP1 DUP2 ADD PUSH1 0x40 MSTORE DUP1 SWAP3 SWAP2 SWAP1 DUP2 DUP2 MSTORE PUSH1 0x20 ADD DUP3 DUP1 SLOAD PUSH2 0x6F9 SWAP1 PUSH2 0x24B1 JUMP JUMPDEST DUP1 ISZERO PUSH2 0x746 JUMPI DUP1 PUSH1 0x1F LT PUSH2 0x71B JUMPI PUSH2 0x100 DUP1 DUP4 SLOAD DIV MUL DUP4 MSTORE SWAP2 PUSH1 0x20 ADD SWAP2 PUSH2 0x746 JUMP JUMPDEST DUP3 ADD SWAP2 SWAP1 PUSH1 0x0 MSTORE PUSH1 0x20 PUSH1 0x0 KECCAK256 SWAP1 JUMPDEST DUP2 SLOAD DUP2 MSTORE SWAP1 PUSH1 0x1 ADD SWAP1 PUSH1 0x20 ADD DUP1 DUP4 GT PUSH2 0x729 JUMPI DUP3 SWAP1 SUB PUSH1 0x1F AND DUP3 ADD SWAP2 JUMPDEST POP POP POP POP POP SWAP1 POP DUP5 JUMP JUMPDEST PUSH1 0x60 CALLER PUSH2 0x767 DUP2 PUSH1 0x1 PUSH2 0x18C8 SWAP1 SWAP2 SWAP1 PUSH4 0xFFFFFFFF AND JUMP JUMPDEST DUP1 PUSH2 0x782 JUMPI POP PUSH2 0x781 DUP2 PUSH1 0x2 PUSH2 0x18C8 SWAP1 SWAP2 SWAP1 PUSH4 0xFFFFFFFF AND JUMP JUMPDEST JUMPDEST PUSH2 0x78B JUMPI PUSH1 0x0 DUP1 REVERT JUMPDEST PUSH2 0x79F CALLER PUSH1 0x0 PUSH2 0x18C8 SWAP1 SWAP2 SWAP1 PUSH4 0xFFFFFFFF AND JUMP JUMPDEST ISZERO PUSH2 0x7DF JUMPI PUSH1 0x40 MLOAD PUSH32 0x8C379A000000000000000000000000000000000000000000000000000000000 DUP2 MSTORE PUSH1 0x4 ADD PUSH2 0x7D6 SWAP1 PUSH2 0x2433 JUMP JUMPDEST PUSH1 0x40 MLOAD DUP1 SWAP2 SUB SWAP1 REVERT JUMPDEST PUSH2 0x7F3 CALLER PUSH1 0x1 PUSH2 0x18C8 SWAP1 SWAP2 SWAP1 PUSH4 0xFFFFFFFF AND JUMP JUMPDEST ISZERO PUSH2 0x890 JUMPI PUSH1 0x3 PUSH1 0x0 CALLER PUSH20 0xFFFFFFFFFFFFFFFFFFFFFFFFFFFFFFFFFFFFFFFF AND PUSH20 0xFFFFFFFFFFFFFFFFFFFFFFFFFFFFFFFFFFFFFFFF AND DUP2 MSTORE PUSH1 0x20 ADD SWAP1 DUP2 MSTORE PUSH1 0x20 ADD PUSH1 0x0 KECCAK256 PUSH1 0x2 ADD DUP1 SLOAD DUP1 PUSH1 0x20 MUL PUSH1 0x20 ADD PUSH1 0x40 MLOAD SWAP1 DUP2 ADD PUSH1 0x40 MSTORE DUP1 SWAP3 SWAP2 SWAP1 DUP2 DUP2 MSTORE PUSH1 0x20 ADD DUP3 DUP1 SLOAD DUP1 ISZERO PUSH2 0x884 JUMPI PUSH1 0x20 MUL DUP3 ADD SWAP2 SWAP1 PUSH1 0x0 MSTORE PUSH1 0x20 PUSH1 0x0 KECCAK256 SWAP1 JUMPDEST DUP2 SLOAD DUP2 MSTORE PUSH1 0x20 ADD SWAP1 PUSH1 0x1 ADD SWAP1 DUP1 DUP4 GT PUSH2 0x870 JUMPI JUMPDEST POP POP POP POP POP SWAP2 POP PUSH2 0x924 JUMP JUMPDEST PUSH1 0x4 PUSH1 0x0 CALLER PUSH20 0xFFFFFFFFFFFFFFFFFFFFFFFFFFFFFFFFFFFFFFFF AND PUSH20 0xFFFFFFFFFFFFFFFFFFFFFFFFFFFFFFFFFFFFFFFF AND DUP2 MSTORE PUSH1 0x20 ADD SWAP1 DUP2 MSTORE PUSH1 0x20 ADD PUSH1 0x0 KECCAK256 PUSH1 0x2 ADD DUP1 SLOAD DUP1 PUSH1 0x20 MUL PUSH1 0x20 ADD PUSH1 0x40 MLOAD SWAP1 DUP2 ADD PUSH1 0x40 MSTORE DUP1 SWAP3 SWAP2 SWAP1 DUP2 DUP2 MSTORE PUSH1 0x20 ADD DUP3 DUP1 SLOAD DUP1 ISZERO PUSH2 0x91C JUMPI PUSH1 0x20 MUL DUP3 ADD SWAP2 SWAP1 PUSH1 0x0 MSTORE PUSH1 0x20 PUSH1 0x0 KECCAK256 SWAP1 JUMPDEST DUP2 SLOAD DUP2 MSTORE PUSH1 0x20 ADD SWAP1 PUSH1 0x1 ADD SWAP1 DUP1 DUP4 GT PUSH2 0x908 JUMPI JUMPDEST POP POP POP POP POP SWAP2 POP JUMPDEST POP SWAP1 JUMP JUMPDEST PUSH1 0x1 ISZERO ISZERO PUSH2 0x940 CALLER PUSH1 0x1 PUSH2 0x18C8 SWAP1 SWAP2 SWAP1 PUSH4 0xFFFFFFFF AND JUMP JUMPDEST ISZERO ISZERO EQ PUSH2 0x982 JUMPI PUSH1 0x40 MLOAD PUSH32 0x8C379A000000000000000000000000000000000000000000000000000000000 DUP2 MSTORE PUSH1 0x4 ADD PUSH2 0x979 SWAP1 PUSH2 0x252E JUMP JUMPDEST PUSH1 0x40 MLOAD DUP1 SWAP2 SUB SWAP1 REVERT JUMPDEST DUP2 DUP1 PUSH20 0xFFFFFFFFFFFFFFFFFFFFFFFFFFFFFFFFFFFFFFFF AND PUSH1 0x5 PUSH1 0x0 CALLER PUSH20 0xFFFFFFFFFFFFFFFFFFFFFFFFFFFFFFFFFFFFFFFF AND PUSH20 0xFFFFFFFFFFFFFFFFFFFFFFFFFFFFFFFFFFFFFFFF AND DUP2 MSTORE PUSH1 0x20 ADD SWAP1 DUP2 MSTORE PUSH1 0x20 ADD PUSH1 0x0 KECCAK256 PUSH1 0x0 SWAP1 SLOAD SWAP1 PUSH2 0x100 EXP SWAP1 DIV PUSH20 0xFFFFFFFFFFFFFFFFFFFFFFFFFFFFFFFFFFFFFFFF AND PUSH20 0xFFFFFFFFFFFFFFFFFFFFFFFFFFFFFFFFFFFFFFFF AND EQ PUSH2 0xA50 JUMPI PUSH1 0x40 MLOAD PUSH32 0x8C379A000000000000000000000000000000000000000000000000000000000 DUP2 MSTORE PUSH1 0x4 ADD PUSH2 0xA47 SWAP1 PUSH2 0x25C0 JUMP JUMPDEST PUSH1 0x40 MLOAD DUP1 SWAP2 SUB SWAP1 REVERT JUMPDEST PUSH2 0xA64 CALLER PUSH1 0x0 PUSH2 0x18C8 SWAP1 SWAP2 SWAP1 PUSH4 0xFFFFFFFF AND JUMP JUMPDEST ISZERO PUSH2 0xAA4 JUMPI PUSH1 0x40 MLOAD PUSH32 0x8C379A000000000000000000000000000000000000000000000000000000000 DUP2 MSTORE PUSH1 0x4 ADD PUSH2 0xA9B SWAP1 PUSH2 0x2433 JUMP JUMPDEST PUSH1 0x40 MLOAD DUP1 SWAP2 SUB SWAP1 REVERT JUMPDEST PUSH2 0xAAC PUSH2 0x19E5 JUMP JUMPDEST PUSH1 0x7 DUP1 SLOAD SWAP1 POP DUP2 PUSH1 0x0 ADD DUP2 DUP2 MSTORE POP POP CALLER DUP2 PUSH1 0x20 ADD SWAP1 PUSH20 0xFFFFFFFFFFFFFFFFFFFFFFFFFFFFFFFFFFFFFFFF AND SWAP1 DUP2 PUSH20 0xFFFFFFFFFFFFFFFFFFFFFFFFFFFFFFFFFFFFFFFF AND DUP2 MSTORE POP POP DUP4 DUP2 PUSH1 0x40 ADD SWAP1 PUSH20 0xFFFFFFFFFFFFFFFFFFFFFFFFFFFFFFFFFFFFFFFF AND SWAP1 DUP2 PUSH20 0xFFFFFFFFFFFFFFFFFFFFFFFFFFFFFFFFFFFFFFFF AND DUP2 MSTORE POP POP DUP3 DUP2 PUSH1 0x60 ADD DUP2 SWAP1 MSTORE POP PUSH1 0x0 PUSH1 0x3 PUSH1 0x0 CALLER PUSH20 0xFFFFFFFFFFFFFFFFFFFFFFFFFFFFFFFFFFFFFFFF AND PUSH20 0xFFFFFFFFFFFFFFFFFFFFFFFFFFFFFFFFFFFFFFFF AND DUP2 MSTORE PUSH1 0x20 ADD SWAP1 DUP2 MSTORE PUSH1 0x20 ADD PUSH1 0x0 KECCAK256 SWAP1 POP PUSH1 0x0 PUSH1 0x4 PUSH1 0x0 DUP8 PUSH20 0xFFFFFFFFFFFFFFFFFFFFFFFFFFFFFFFFFFFFFFFF AND PUSH20 0xFFFFFFFFFFFFFFFFFFFFFFFFFFFFFFFFFFFFFFFF AND DUP2 MSTORE PUSH1 0x20 ADD SWAP1 DUP2 MSTORE PUSH1 0x20 ADD PUSH1 0x0 KECCAK256 SWAP1 POP DUP2 PUSH1 0x2 ADD DUP4 PUSH1 0x0 ADD MLOAD SWAP1 DUP1 PUSH1 0x1 DUP2 SLOAD ADD DUP1 DUP3 SSTORE DUP1 SWAP2 POP POP PUSH1 0x1 SWAP1 SUB SWAP1 PUSH1 0x0 MSTORE PUSH1 0x20 PUSH1 0x0 KECCAK256 ADD PUSH1 0x0 SWAP1 SWAP2 SWAP1 SWAP2 SWAP1 SWAP2 POP SSTORE DUP1 PUSH1 0x2 ADD DUP4 PUSH1 0x0 ADD MLOAD SWAP1 DUP1 PUSH1 0x1 DUP2 SLOAD ADD DUP1 DUP3 SSTORE DUP1 SWAP2 POP POP PUSH1 0x1 SWAP1 SUB SWAP1 PUSH1 0x0 MSTORE PUSH1 0x20 PUSH1 0x0 KECCAK256 ADD PUSH1 0x0 SWAP1 SWAP2 SWAP1 SWAP2 SWAP1 SWAP2 POP SSTORE PUSH1 0x7 DUP4 SWAP1 DUP1 PUSH1 0x1 DUP2 SLOAD ADD DUP1 DUP3 SSTORE DUP1 SWAP2 POP POP PUSH1 0x1 SWAP1 SUB SWAP1 PUSH1 0x0 MSTORE PUSH1 0x20 PUSH1 0x0 KECCAK256 SWAP1 PUSH1 0x5 MUL ADD PUSH1 0x0 SWAP1 SWAP2 SWAP1 SWAP2 SWAP1 SWAP2 POP PUSH1 0x0 DUP3 ADD MLOAD DUP2 PUSH1 0x0 ADD SSTORE PUSH1 0x20 DUP3 ADD MLOAD DUP2 PUSH1 0x1 ADD PUSH1 0x0 PUSH2 0x100 EXP DUP2 SLOAD DUP2 PUSH20 0xFFFFFFFFFFFFFFFFFFFFFFFFFFFFFFFFFFFFFFFF MUL NOT AND SWAP1 DUP4 PUSH20 0xFFFFFFFFFFFFFFFFFFFFFFFFFFFFFFFFFFFFFFFF AND MUL OR SWAP1 SSTORE POP PUSH1 0x40 DUP3 ADD MLOAD DUP2 PUSH1 0x2 ADD PUSH1 0x0 PUSH2 0x100 EXP DUP2 SLOAD DUP2 PUSH20 0xFFFFFFFFFFFFFFFFFFFFFFFFFFFFFFFFFFFFFFFF MUL NOT AND SWAP1 DUP4 PUSH20 0xFFFFFFFFFFFFFFFFFFFFFFFFFFFFFFFFFFFFFFFF AND MUL OR SWAP1 SSTORE POP PUSH1 0x60 DUP3 ADD MLOAD DUP2 PUSH1 0x3 ADD SWAP1 DUP2 PUSH2 0xCF1 SWAP2 SWAP1 PUSH2 0x278C JUMP JUMPDEST POP PUSH1 0x80 DUP3 ADD MLOAD DUP2 PUSH1 0x4 ADD SWAP1 DUP1 MLOAD SWAP1 PUSH1 0x20 ADD SWAP1 PUSH2 0xD0E SWAP3 SWAP2 SWAP1 PUSH2 0x1A40 JUMP JUMPDEST POP POP POP POP POP POP POP POP POP JUMP JUMPDEST PUSH1 0x60 DUP1 PUSH1 0x0 PUSH1 0x3 PUSH1 0x0 DUP6 PUSH20 0xFFFFFFFFFFFFFFFFFFFFFFFFFFFFFFFFFFFFFFFF AND PUSH20 0xFFFFFFFFFFFFFFFFFFFFFFFFFFFFFFFFFFFFFFFF AND DUP2 MSTORE PUSH1 0x20 ADD SWAP1 DUP2 MSTORE PUSH1 0x20 ADD PUSH1 0x0 KECCAK256 PUSH1 0x40 MLOAD DUP1 PUSH1 0x60 ADD PUSH1 0x40 MSTORE SWAP1 DUP2 PUSH1 0x0 DUP3 ADD DUP1 SLOAD PUSH2 0xD78 SWAP1 PUSH2 0x24B1 JUMP JUMPDEST DUP1 PUSH1 0x1F ADD PUSH1 0x20 DUP1 SWAP2 DIV MUL PUSH1 0x20 ADD PUSH1 0x40 MLOAD SWAP1 DUP2 ADD PUSH1 0x40 MSTORE DUP1 SWAP3 SWAP2 SWAP1 DUP2 DUP2 MSTORE PUSH1 0x20 ADD DUP3 DUP1 SLOAD PUSH2 0xDA4 SWAP1 PUSH2 0x24B1 JUMP JUMPDEST DUP1 ISZERO PUSH2 0xDF1 JUMPI DUP1 PUSH1 0x1F LT PUSH2 0xDC6 JUMPI PUSH2 0x100 DUP1 DUP4 SLOAD DIV MUL DUP4 MSTORE SWAP2 PUSH1 0x20 ADD SWAP2 PUSH2 0xDF1 JUMP JUMPDEST DUP3 ADD SWAP2 SWAP1 PUSH1 0x0 MSTORE PUSH1 0x20 PUSH1 0x0 KECCAK256 SWAP1 JUMPDEST DUP2 SLOAD DUP2 MSTORE SWAP1 PUSH1 0x1 ADD SWAP1 PUSH1 0x20 ADD DUP1 DUP4 GT PUSH2 0xDD4 JUMPI DUP3 SWAP1 SUB PUSH1 0x1F AND DUP3 ADD SWAP2 JUMPDEST POP POP POP POP POP DUP2 MSTORE PUSH1 0x20 ADD PUSH1 0x1 DUP3 ADD DUP1 SLOAD PUSH2 0xE0A SWAP1 PUSH2 0x24B1 JUMP JUMPDEST DUP1 PUSH1 0x1F ADD PUSH1 0x20 DUP1 SWAP2 DIV MUL PUSH1 0x20 ADD PUSH1 0x40 MLOAD SWAP1 DUP2 ADD PUSH1 0x40 MSTORE DUP1 SWAP3 SWAP2 SWAP1 DUP2 DUP2 MSTORE PUSH1 0x20 ADD DUP3 DUP1 SLOAD PUSH2 0xE36 SWAP1 PUSH2 0x24B1 JUMP JUMPDEST DUP1 ISZERO PUSH2 0xE83 JUMPI DUP1 PUSH1 0x1F LT PUSH2 0xE58 JUMPI PUSH2 0x100 DUP1 DUP4 SLOAD DIV MUL DUP4 MSTORE SWAP2 PUSH1 0x20 ADD SWAP2 PUSH2 0xE83 JUMP JUMPDEST DUP3 ADD SWAP2 SWAP1 PUSH1 0x0 MSTORE PUSH1 0x20 PUSH1 0x0 KECCAK256 SWAP1 JUMPDEST DUP2 SLOAD DUP2 MSTORE SWAP1 PUSH1 0x1 ADD SWAP1 PUSH1 0x20 ADD DUP1 DUP4 GT PUSH2 0xE66 JUMPI DUP3 SWAP1 SUB PUSH1 0x1F AND DUP3 ADD SWAP2 JUMPDEST POP POP POP POP POP DUP2 MSTORE PUSH1 0x20 ADD PUSH1 0x2 DUP3 ADD DUP1 SLOAD DUP1 PUSH1 0x20 MUL PUSH1 0x20 ADD PUSH1 0x40 MLOAD SWAP1 DUP2 ADD PUSH1 0x40 MSTORE DUP1 SWAP3 SWAP2 SWAP1 DUP2 DUP2 MSTORE PUSH1 0x20 ADD DUP3 DUP1 SLOAD DUP1 ISZERO PUSH2 0xEDB JUMPI PUSH1 0x20 MUL DUP3 ADD SWAP2 SWAP1 PUSH1 0x0 MSTORE PUSH1 0x20 PUSH1 0x0 KECCAK256 SWAP1 JUMPDEST DUP2 SLOAD DUP2 MSTORE PUSH1 0x20 ADD SWAP1 PUSH1 0x1 ADD SWAP1 DUP1 DUP4 GT PUSH2 0xEC7 JUMPI JUMPDEST POP POP POP POP POP DUP2 MSTORE POP POP SWAP1 POP DUP1 PUSH1 0x0 ADD MLOAD DUP2 PUSH1 0x20 ADD MLOAD SWAP3 POP SWAP3 POP POP SWAP2 POP SWAP2 JUMP JUMPDEST PUSH1 0x1 ISZERO ISZERO PUSH2 0xF12 CALLER PUSH1 0x1 PUSH2 0x18C8 SWAP1 SWAP2 SWAP1 PUSH4 0xFFFFFFFF AND JUMP JUMPDEST ISZERO ISZERO EQ PUSH2 0xF54 JUMPI PUSH1 0x40 MLOAD PUSH32 0x8C379A000000000000000000000000000000000000000000000000000000000 DUP2 MSTORE PUSH1 0x4 ADD PUSH2 0xF4B SWAP1 PUSH2 0x252E JUMP JUMPDEST PUSH1 0x40 MLOAD DUP1 SWAP2 SUB SWAP1 REVERT JUMPDEST DUP4 DUP1 PUSH20 0xFFFFFFFFFFFFFFFFFFFFFFFFFFFFFFFFFFFFFFFF AND PUSH1 0x5 PUSH1 0x0 CALLER PUSH20 0xFFFFFFFFFFFFFFFFFFFFFFFFFFFFFFFFFFFFFFFF AND PUSH20 0xFFFFFFFFFFFFFFFFFFFFFFFFFFFFFFFFFFFFFFFF AND DUP2 MSTORE PUSH1 0x20 ADD SWAP1 DUP2 MSTORE PUSH1 0x20 ADD PUSH1 0x0 KECCAK256 PUSH1 0x0 SWAP1 SLOAD SWAP1 PUSH2 0x100 EXP SWAP1 DIV PUSH20 0xFFFFFFFFFFFFFFFFFFFFFFFFFFFFFFFFFFFFFFFF AND PUSH20 0xFFFFFFFFFFFFFFFFFFFFFFFFFFFFFFFFFFFFFFFF AND EQ PUSH2 0x1022 JUMPI PUSH1 0x40 MLOAD PUSH32 0x8C379A000000000000000000000000000000000000000000000000000000000 DUP2 MSTORE PUSH1 0x4 ADD PUSH2 0x1019 SWAP1 PUSH2 0x25C0 JUMP JUMPDEST PUSH1 0x40 MLOAD DUP1 SWAP2 SUB SWAP1 REVERT JUMPDEST PUSH2 0x1036 CALLER PUSH1 0x0 PUSH2 0x18C8 SWAP1 SWAP2 SWAP1 PUSH4 0xFFFFFFFF AND JUMP JUMPDEST ISZERO PUSH2 0x1076 JUMPI PUSH1 0x40 MLOAD PUSH32 0x8C379A000000000000000000000000000000000000000000000000000000000 DUP2 MSTORE PUSH1 0x4 ADD PUSH2 0x106D SWAP1 PUSH2 0x2433 JUMP JUMPDEST PUSH1 0x40 MLOAD DUP1 SWAP2 SUB SWAP1 REVERT JUMPDEST PUSH2 0x107E PUSH2 0x1A8D JUMP JUMPDEST PUSH1 0x6 DUP1 SLOAD SWAP1 POP DUP2 PUSH1 0x0 ADD DUP2 DUP2 MSTORE POP POP DUP6 DUP2 PUSH1 0x20 ADD SWAP1 PUSH20 0xFFFFFFFFFFFFFFFFFFFFFFFFFFFFFFFFFFFFFFFF AND SWAP1 DUP2 PUSH20 0xFFFFFFFFFFFFFFFFFFFFFFFFFFFFFFFFFFFFFFFF AND DUP2 MSTORE POP POP CALLER DUP2 PUSH1 0x40 ADD SWAP1 PUSH20 0xFFFFFFFFFFFFFFFFFFFFFFFFFFFFFFFFFFFFFFFF AND SWAP1 DUP2 PUSH20 0xFFFFFFFFFFFFFFFFFFFFFFFFFFFFFFFFFFFFFFFF AND DUP2 MSTORE POP POP DUP5 DUP2 PUSH1 0x60 ADD DUP2 SWAP1 MSTORE POP DUP4 DUP2 PUSH1 0x80 ADD DUP2 SWAP1 MSTORE POP PUSH1 0x6 DUP2 SWAP1 DUP1 PUSH1 0x1 DUP2 SLOAD ADD DUP1 DUP3 SSTORE DUP1 SWAP2 POP POP PUSH1 0x1 SWAP1 SUB SWAP1 PUSH1 0x0 MSTORE PUSH1 0x20 PUSH1 0x0 KECCAK256 SWAP1 PUSH1 0x5 MUL ADD PUSH1 0x0 SWAP1 SWAP2 SWAP1 SWAP2 SWAP1 SWAP2 POP PUSH1 0x0 DUP3 ADD MLOAD DUP2 PUSH1 0x0 ADD SSTORE PUSH1 0x20 DUP3 ADD MLOAD DUP2 PUSH1 0x1 ADD PUSH1 0x0 PUSH2 0x100 EXP DUP2 SLOAD DUP2 PUSH20 0xFFFFFFFFFFFFFFFFFFFFFFFFFFFFFFFFFFFFFFFF MUL NOT AND SWAP1 DUP4 PUSH20 0xFFFFFFFFFFFFFFFFFFFFFFFFFFFFFFFFFFFFFFFF AND MUL OR SWAP1 SSTORE POP PUSH1 0x40 DUP3 ADD MLOAD DUP2 PUSH1 0x2 ADD PUSH1 0x0 PUSH2 0x100 EXP DUP2 SLOAD DUP2 PUSH20 0xFFFFFFFFFFFFFFFFFFFFFFFFFFFFFFFFFFFFFFFF MUL NOT AND SWAP1 DUP4 PUSH20 0xFFFFFFFFFFFFFFFFFFFFFFFFFFFFFFFFFFFFFFFF AND MUL OR SWAP1 SSTORE POP PUSH1 0x60 DUP3 ADD MLOAD DUP2 PUSH1 0x3 ADD SWAP1 DUP2 PUSH2 0x11E8 SWAP2 SWAP1 PUSH2 0x278C JUMP JUMPDEST POP PUSH1 0x80 DUP3 ADD MLOAD DUP2 PUSH1 0x4 ADD SWAP1 DUP2 PUSH2 0x11FE SWAP2 SWAP1 PUSH2 0x278C JUMP JUMPDEST POP POP POP PUSH2 0x120F DUP4 DUP3 PUSH1 0x0 ADD MLOAD PUSH2 0x198F JUMP JUMPDEST POP POP POP POP POP POP JUMP JUMPDEST PUSH1 0x1 ISZERO ISZERO PUSH2 0x122F CALLER PUSH1 0x0 PUSH2 0x18C8 SWAP1 SWAP2 SWAP1 PUSH4 0xFFFFFFFF AND JUMP JUMPDEST ISZERO ISZERO EQ PUSH2 0x1271 JUMPI PUSH1 0x40 MLOAD PUSH32 0x8C379A000000000000000000000000000000000000000000000000000000000 DUP2 MSTORE PUSH1 0x4 ADD PUSH2 0x1268 SWAP1 PUSH2 0x28AA JUMP JUMPDEST PUSH1 0x40 MLOAD DUP1 SWAP2 SUB SWAP1 REVERT JUMPDEST CALLER PUSH20 0xFFFFFFFFFFFFFFFFFFFFFFFFFFFFFFFFFFFFFFFF AND DUP4 PUSH20 0xFFFFFFFFFFFFFFFFFFFFFFFFFFFFFFFFFFFFFFFF AND SUB PUSH2 0x12DF JUMPI PUSH1 0x40 MLOAD PUSH32 0x8C379A000000000000000000000000000000000000000000000000000000000 DUP2 MSTORE PUSH1 0x4 ADD PUSH2 0x12D6 SWAP1 PUSH2 0x293C JUMP JUMPDEST PUSH1 0x40 MLOAD DUP1 SWAP2 SUB SWAP1 REVERT JUMPDEST PUSH2 0x12F3 DUP4 PUSH1 0x1 PUSH2 0x1820 SWAP1 SWAP2 SWAP1 PUSH4 0xFFFFFFFF AND JUMP JUMPDEST PUSH2 0x12FB PUSH2 0x1AE8 JUMP JUMPDEST DUP3 DUP2 PUSH1 0x0 ADD DUP2 SWAP1 MSTORE POP DUP2 DUP2 PUSH1 0x20 ADD DUP2 SWAP1 MSTORE POP PUSH1 0x8 DUP5 SWAP1 DUP1 PUSH1 0x1 DUP2 SLOAD ADD DUP1 DUP3 SSTORE DUP1 SWAP2 POP POP PUSH1 0x1 SWAP1 SUB SWAP1 PUSH1 0x0 MSTORE PUSH1 0x20 PUSH1 0x0 KECCAK256 ADD PUSH1 0x0 SWAP1 SWAP2 SWAP1 SWAP2 SWAP1 SWAP2 PUSH2 0x100 EXP DUP2 SLOAD DUP2 PUSH20 0xFFFFFFFFFFFFFFFFFFFFFFFFFFFFFFFFFFFFFFFF MUL NOT AND SWAP1 DUP4 PUSH20 0xFFFFFFFFFFFFFFFFFFFFFFFFFFFFFFFFFFFFFFFF AND MUL OR SWAP1 SSTORE POP DUP1 PUSH1 0x3 PUSH1 0x0 DUP7 PUSH20 0xFFFFFFFFFFFFFFFFFFFFFFFFFFFFFFFFFFFFFFFF AND PUSH20 0xFFFFFFFFFFFFFFFFFFFFFFFFFFFFFFFFFFFFFFFF AND DUP2 MSTORE PUSH1 0x20 ADD SWAP1 DUP2 MSTORE PUSH1 0x20 ADD PUSH1 0x0 KECCAK256 PUSH1 0x0 DUP3 ADD MLOAD DUP2 PUSH1 0x0 ADD SWAP1 DUP2 PUSH2 0x13C5 SWAP2 SWAP1 PUSH2 0x278C JUMP JUMPDEST POP PUSH1 0x20 DUP3 ADD MLOAD DUP2 PUSH1 0x1 ADD SWAP1 DUP2 PUSH2 0x13DB SWAP2 SWAP1 PUSH2 0x278C JUMP JUMPDEST POP PUSH1 0x40 DUP3 ADD MLOAD DUP2 PUSH1 0x2 ADD SWAP1 DUP1 MLOAD SWAP1 PUSH1 0x20 ADD SWAP1 PUSH2 0x13F8 SWAP3 SWAP2 SWAP1 PUSH2 0x1A40 JUMP JUMPDEST POP SWAP1 POP POP POP POP POP POP JUMP JUMPDEST PUSH1 0x1 ISZERO ISZERO PUSH2 0x141A CALLER PUSH1 0x0 PUSH2 0x18C8 SWAP1 SWAP2 SWAP1 PUSH4 0xFFFFFFFF AND JUMP JUMPDEST ISZERO ISZERO EQ PUSH2 0x145C JUMPI PUSH1 0x40 MLOAD PUSH32 0x8C379A000000000000000000000000000000000000000000000000000000000 DUP2 MSTORE PUSH1 0x4 ADD PUSH2 0x1453 SWAP1 PUSH2 0x28AA JUMP JUMPDEST PUSH1 0x40 MLOAD DUP1 SWAP2 SUB SWAP1 REVERT JUMPDEST CALLER PUSH20 0xFFFFFFFFFFFFFFFFFFFFFFFFFFFFFFFFFFFFFFFF AND DUP4 PUSH20 0xFFFFFFFFFFFFFFFFFFFFFFFFFFFFFFFFFFFFFFFF AND SUB PUSH2 0x14CA JUMPI PUSH1 0x40 MLOAD PUSH32 0x8C379A000000000000000000000000000000000000000000000000000000000 DUP2 MSTORE PUSH1 0x4 ADD PUSH2 0x14C1 SWAP1 PUSH2 0x293C JUMP JUMPDEST PUSH1 0x40 MLOAD DUP1 SWAP2 SUB SWAP1 REVERT JUMPDEST PUSH2 0x14DE DUP4 PUSH1 0x2 PUSH2 0x1820 SWAP1 SWAP2 SWAP1 PUSH4 0xFFFFFFFF AND JUMP JUMPDEST PUSH2 0x14E6 PUSH2 0x1B09 JUMP JUMPDEST DUP3 DUP2 PUSH1 0x0 ADD DUP2 SWAP1 MSTORE POP DUP2 DUP2 PUSH1 0x20 ADD DUP2 SWAP1 MSTORE POP DUP1 PUSH1 0x4 PUSH1 0x0 DUP7 PUSH20 0xFFFFFFFFFFFFFFFFFFFFFFFFFFFFFFFFFFFFFFFF AND PUSH20 0xFFFFFFFFFFFFFFFFFFFFFFFFFFFFFFFFFFFFFFFF AND DUP2 MSTORE PUSH1 0x20 ADD SWAP1 DUP2 MSTORE PUSH1 0x20 ADD PUSH1 0x0 KECCAK256 PUSH1 0x0 DUP3 ADD MLOAD DUP2 PUSH1 0x0 ADD SWAP1 DUP2 PUSH2 0x154D SWAP2 SWAP1 PUSH2 0x278C JUMP JUMPDEST POP PUSH1 0x20 DUP3 ADD MLOAD DUP2 PUSH1 0x1 ADD SWAP1 DUP2 PUSH2 0x1563 SWAP2 SWAP1 PUSH2 0x278C JUMP JUMPDEST POP PUSH1 0x40 DUP3 ADD MLOAD DUP2 PUSH1 0x2 ADD SWAP1 DUP1 MLOAD SWAP1 PUSH1 0x20 ADD SWAP1 PUSH2 0x1580 SWAP3 SWAP2 SWAP1 PUSH2 0x1A40 JUMP JUMPDEST POP SWAP1 POP POP PUSH1 0x9 DUP5 SWAP1 DUP1 PUSH1 0x1 DUP2 SLOAD ADD DUP1 DUP3 SSTORE DUP1 SWAP2 POP POP PUSH1 0x1 SWAP1 SUB SWAP1 PUSH1 0x0 MSTORE PUSH1 0x20 PUSH1 0x0 KECCAK256 ADD PUSH1 0x0 SWAP1 SWAP2 SWAP1 SWAP2 SWAP1 SWAP2 PUSH2 0x100 EXP DUP2 SLOAD DUP2 PUSH20 0xFFFFFFFFFFFFFFFFFFFFFFFFFFFFFFFFFFFFFFFF MUL NOT AND SWAP1 DUP4 PUSH20 0xFFFFFFFFFFFFFFFFFFFFFFFFFFFFFFFFFFFFFFFF AND MUL OR SWAP1 SSTORE POP POP POP POP POP JUMP JUMPDEST PUSH1 0x0 PUSH1 0xA PUSH1 0x0 SWAP1 SLOAD SWAP1 PUSH2 0x100 EXP SWAP1 DIV PUSH20 0xFFFFFFFFFFFFFFFFFFFFFFFFFFFFFFFFFFFFFFFF AND SWAP1 POP SWAP1 JUMP JUMPDEST PUSH1 0x0 PUSH2 0x162D DUP3 PUSH1 0x2 PUSH2 0x18C8 SWAP1 SWAP2 SWAP1 PUSH4 0xFFFFFFFF AND JUMP JUMPDEST SWAP1 POP SWAP2 SWAP1 POP JUMP JUMPDEST PUSH1 0x1 ISZERO ISZERO PUSH2 0x164C CALLER PUSH1 0x0 PUSH2 0x18C8 SWAP1 SWAP2 SWAP1 PUSH4 0xFFFFFFFF AND JUMP JUMPDEST ISZERO ISZERO EQ PUSH2 0x168E JUMPI PUSH1 0x40 MLOAD PUSH32 0x8C379A000000000000000000000000000000000000000000000000000000000 DUP2 MSTORE PUSH1 0x4 ADD PUSH2 0x1685 SWAP1 PUSH2 0x28AA JUMP JUMPDEST PUSH1 0x40 MLOAD DUP1 SWAP2 SUB SWAP1 REVERT JUMPDEST DUP1 PUSH1 0x5 PUSH1 0x0 DUP5 PUSH20 0xFFFFFFFFFFFFFFFFFFFFFFFFFFFFFFFFFFFFFFFF AND PUSH20 0xFFFFFFFFFFFFFFFFFFFFFFFFFFFFFFFFFFFFFFFF AND DUP2 MSTORE PUSH1 0x20 ADD SWAP1 DUP2 MSTORE PUSH1 0x20 ADD PUSH1 0x0 KECCAK256 PUSH1 0x0 PUSH2 0x100 EXP DUP2 SLOAD DUP2 PUSH20 0xFFFFFFFFFFFFFFFFFFFFFFFFFFFFFFFFFFFFFFFF MUL NOT AND SWAP1 DUP4 PUSH20 0xFFFFFFFFFFFFFFFFFFFFFFFFFFFFFFFFFFFFFFFF AND MUL OR SWAP1 SSTORE POP POP POP JUMP JUMPDEST PUSH1 0x0 PUSH2 0x1726 DUP3 PUSH1 0x1 PUSH2 0x18C8 SWAP1 SWAP2 SWAP1 PUSH4 0xFFFFFFFF AND JUMP JUMPDEST SWAP1 POP SWAP2 SWAP1 POP JUMP JUMPDEST PUSH1 0x60 PUSH1 0x8 DUP1 SLOAD DUP1 PUSH1 0x20 MUL PUSH1 0x20 ADD PUSH1 0x40 MLOAD SWAP1 DUP2 ADD PUSH1 0x40 MSTORE DUP1 SWAP3 SWAP2 SWAP1 DUP2 DUP2 MSTORE PUSH1 0x20 ADD DUP3 DUP1 SLOAD DUP1 ISZERO PUSH2 0x17B1 JUMPI PUSH1 0x20 MUL DUP3 ADD SWAP2 SWAP1 PUSH1 0x0 MSTORE PUSH1 0x20 PUSH1 0x0 KECCAK256 SWAP1 JUMPDEST DUP2 PUSH1 0x0 SWAP1 SLOAD SWAP1 PUSH2 0x100 EXP SWAP1 DIV PUSH20 0xFFFFFFFFFFFFFFFFFFFFFFFFFFFFFFFFFFFFFFFF AND PUSH20 0xFFFFFFFFFFFFFFFFFFFFFFFFFFFFFFFFFFFFFFFF AND DUP2 MSTORE PUSH1 0x20 ADD SWAP1 PUSH1 0x1 ADD SWAP1 DUP1 DUP4 GT PUSH2 0x1767 JUMPI JUMPDEST POP POP POP POP POP SWAP1 POP SWAP1 JUMP JUMPDEST PUSH1 0x9 DUP2 DUP2 SLOAD DUP2 LT PUSH2 0x17CB JUMPI PUSH1 0x0 DUP1 REVERT JUMPDEST SWAP1 PUSH1 0x0 MSTORE PUSH1 0x20 PUSH1 0x0 KECCAK256 ADD PUSH1 0x0 SWAP2 POP SLOAD SWAP1 PUSH2 0x100 EXP SWAP1 DIV PUSH20 0xFFFFFFFFFFFFFFFFFFFFFFFFFFFFFFFFFFFFFFFF AND DUP2 JUMP JUMPDEST PUSH1 0xA PUSH1 0x0 SWAP1 SLOAD SWAP1 PUSH2 0x100 EXP SWAP1 DIV PUSH20 0xFFFFFFFFFFFFFFFFFFFFFFFFFFFFFFFFFFFFFFFF AND DUP2 JUMP JUMPDEST PUSH2 0x182A DUP3 DUP3 PUSH2 0x18C8 JUMP JUMPDEST ISZERO PUSH2 0x186A JUMPI PUSH1 0x40 MLOAD PUSH32 0x8C379A000000000000000000000000000000000000000000000000000000000 DUP2 MSTORE PUSH1 0x4 ADD PUSH2 0x1861 SWAP1 PUSH2 0x29A8 JUMP JUMPDEST PUSH1 0x40 MLOAD DUP1 SWAP2 SUB SWAP1 REVERT JUMPDEST PUSH1 0x1 DUP3 PUSH1 0x0 ADD PUSH1 0x0 DUP4 PUSH20 0xFFFFFFFFFFFFFFFFFFFFFFFFFFFFFFFFFFFFFFFF AND PUSH20 0xFFFFFFFFFFFFFFFFFFFFFFFFFFFFFFFFFFFFFFFF AND DUP2 MSTORE PUSH1 0x20 ADD SWAP1 DUP2 MSTORE PUSH1 0x20 ADD PUSH1 0x0 KECCAK256 PUSH1 0x0 PUSH2 0x100 EXP DUP2 SLOAD DUP2 PUSH1 0xFF MUL NOT AND SWAP1 DUP4 ISZERO ISZERO MUL OR SWAP1 SSTORE POP POP POP JUMP JUMPDEST PUSH1 0x0 DUP1 PUSH20 0xFFFFFFFFFFFFFFFFFFFFFFFFFFFFFFFFFFFFFFFF AND DUP3 PUSH20 0xFFFFFFFFFFFFFFFFFFFFFFFFFFFFFFFFFFFFFFFF AND SUB PUSH2 0x1938 JUMPI PUSH1 0x40 MLOAD PUSH32 0x8C379A000000000000000000000000000000000000000000000000000000000 DUP2 MSTORE PUSH1 0x4 ADD PUSH2 0x192F SWAP1 PUSH2 0x2A3A JUMP JUMPDEST PUSH1 0x40 MLOAD DUP1 SWAP2 SUB SWAP1 REVERT JUMPDEST DUP3 PUSH1 0x0 ADD PUSH1 0x0 DUP4 PUSH20 0xFFFFFFFFFFFFFFFFFFFFFFFFFFFFFFFFFFFFFFFF AND PUSH20 0xFFFFFFFFFFFFFFFFFFFFFFFFFFFFFFFFFFFFFFFF AND DUP2 MSTORE PUSH1 0x20 ADD SWAP1 DUP2 MSTORE PUSH1 0x20 ADD PUSH1 0x0 KECCAK256 PUSH1 0x0 SWAP1 SLOAD SWAP1 PUSH2 0x100 EXP SWAP1 DIV PUSH1 0xFF AND SWAP1 POP SWAP3 SWAP2 POP POP JUMP JUMPDEST PUSH1 0x0 PUSH1 0x7 DUP4 DUP2 SLOAD DUP2 LT PUSH2 0x19A5 JUMPI PUSH2 0x19A4 PUSH2 0x2453 JUMP JUMPDEST JUMPDEST SWAP1 PUSH1 0x0 MSTORE PUSH1 0x20 PUSH1 0x0 KECCAK256 SWAP1 PUSH1 0x5 MUL ADD SWAP1 POP DUP1 PUSH1 0x4 ADD DUP3 SWAP1 DUP1 PUSH1 0x1 DUP2 SLOAD ADD DUP1 DUP3 SSTORE DUP1 SWAP2 POP POP PUSH1 0x1 SWAP1 SUB SWAP1 PUSH1 0x0 MSTORE PUSH1 0x20 PUSH1 0x0 KECCAK256 ADD PUSH1 0x0 SWAP1 SWAP2 SWAP1 SWAP2 SWAP1 SWAP2 POP SSTORE POP POP POP JUMP JUMPDEST PUSH1 0x40 MLOAD DUP1 PUSH1 0xA0 ADD PUSH1 0x40 MSTORE DUP1 PUSH1 0x0 DUP2 MSTORE PUSH1 0x20 ADD PUSH1 0x0 PUSH20 0xFFFFFFFFFFFFFFFFFFFFFFFFFFFFFFFFFFFFFFFF AND DUP2 MSTORE PUSH1 0x20 ADD PUSH1 0x0 PUSH20 0xFFFFFFFFFFFFFFFFFFFFFFFFFFFFFFFFFFFFFFFF AND DUP2 MSTORE PUSH1 0x20 ADD PUSH1 0x60 DUP2 MSTORE PUSH1 0x20 ADD PUSH1 0x60 DUP2 MSTORE POP SWAP1 JUMP JUMPDEST DUP3 DUP1 SLOAD DUP3 DUP3 SSTORE SWAP1 PUSH1 0x0 MSTORE PUSH1 0x20 PUSH1 0x0 KECCAK256 SWAP1 DUP2 ADD SWAP3 DUP3 ISZERO PUSH2 0x1A7C JUMPI SWAP2 PUSH1 0x20 MUL DUP3 ADD JUMPDEST DUP3 DUP2 GT ISZERO PUSH2 0x1A7B JUMPI DUP3 MLOAD DUP3 SSTORE SWAP2 PUSH1 0x20 ADD SWAP2 SWAP1 PUSH1 0x1 ADD SWAP1 PUSH2 0x1A60 JUMP JUMPDEST JUMPDEST POP SWAP1 POP PUSH2 0x1A89 SWAP2 SWAP1 PUSH2 0x1B2A JUMP JUMPDEST POP SWAP1 JUMP JUMPDEST PUSH1 0x40 MLOAD DUP1 PUSH1 0xA0 ADD PUSH1 0x40 MSTORE DUP1 PUSH1 0x0 DUP2 MSTORE PUSH1 0x20 ADD PUSH1 0x0 PUSH20 0xFFFFFFFFFFFFFFFFFFFFFFFFFFFFFFFFFFFFFFFF AND DUP2 MSTORE PUSH1 0x20 ADD PUSH1 0x0 PUSH20 0xFFFFFFFFFFFFFFFFFFFFFFFFFFFFFFFFFFFFFFFF AND DUP2 MSTORE PUSH1 0x20 ADD PUSH1 0x60 DUP2 MSTORE PUSH1 0x20 ADD PUSH1 0x60 DUP2 MSTORE POP SWAP1 JUMP JUMPDEST PUSH1 0x40 MLOAD DUP1 PUSH1 0x60 ADD PUSH1 0x40 MSTORE DUP1 PUSH1 0x60 DUP2 MSTORE PUSH1 0x20 ADD PUSH1 0x60 DUP2 MSTORE PUSH1 0x20 ADD PUSH1 0x60 DUP2 MSTORE POP SWAP1 JUMP JUMPDEST PUSH1 0x40 MLOAD DUP1 PUSH1 0x60 ADD PUSH1 0x40 MSTORE DUP1 PUSH1 0x60 DUP2 MSTORE PUSH1 0x20 ADD PUSH1 0x60 DUP2 MSTORE PUSH1 0x20 ADD PUSH1 0x60 DUP2 MSTORE POP SWAP1 JUMP JUMPDEST JUMPDEST DUP1 DUP3 GT ISZERO PUSH2 0x1B43 JUMPI PUSH1 0x0 DUP2 PUSH1 0x0 SWAP1 SSTORE POP PUSH1 0x1 ADD PUSH2 0x1B2B JUMP JUMPDEST POP SWAP1 JUMP JUMPDEST PUSH1 0x0 PUSH1 0x40 MLOAD SWAP1 POP SWAP1 JUMP JUMPDEST PUSH1 0x0 DUP1 REVERT JUMPDEST PUSH1 0x0 DUP1 REVERT JUMPDEST PUSH1 0x0 DUP2 SWAP1 POP SWAP2 SWAP1 POP JUMP JUMPDEST PUSH2 0x1B6E DUP2 PUSH2 0x1B5B JUMP JUMPDEST DUP2 EQ PUSH2 0x1B79 JUMPI PUSH1 0x0 DUP1 REVERT JUMPDEST POP JUMP JUMPDEST PUSH1 0x0 DUP2 CALLDATALOAD SWAP1 POP PUSH2 0x1B8B DUP2 PUSH2 0x1B65 JUMP JUMPDEST SWAP3 SWAP2 POP POP JUMP JUMPDEST PUSH1 0x0 PUSH1 0x20 DUP3 DUP5 SUB SLT ISZERO PUSH2 0x1BA7 JUMPI PUSH2 0x1BA6 PUSH2 0x1B51 JUMP JUMPDEST JUMPDEST PUSH1 0x0 PUSH2 0x1BB5 DUP5 DUP3 DUP6 ADD PUSH2 0x1B7C JUMP JUMPDEST SWAP2 POP POP SWAP3 SWAP2 POP POP JUMP JUMPDEST PUSH2 0x1BC7 DUP2 PUSH2 0x1B5B JUMP JUMPDEST DUP3 MSTORE POP POP JUMP JUMPDEST PUSH1 0x0 PUSH20 0xFFFFFFFFFFFFFFFFFFFFFFFFFFFFFFFFFFFFFFFF DUP3 AND SWAP1 POP SWAP2 SWAP1 POP JUMP JUMPDEST PUSH1 0x0 PUSH2 0x1BF8 DUP3 PUSH2 0x1BCD JUMP JUMPDEST SWAP1 POP SWAP2 SWAP1 POP JUMP JUMPDEST PUSH2 0x1C08 DUP2 PUSH2 0x1BED JUMP JUMPDEST DUP3 MSTORE POP POP JUMP JUMPDEST PUSH1 0x0 DUP2 MLOAD SWAP1 POP SWAP2 SWAP1 POP JUMP JUMPDEST PUSH1 0x0 DUP3 DUP3 MSTORE PUSH1 0x20 DUP3 ADD SWAP1 POP SWAP3 SWAP2 POP POP JUMP JUMPDEST PUSH1 0x0 JUMPDEST DUP4 DUP2 LT ISZERO PUSH2 0x1C48 JUMPI DUP1 DUP3 ADD MLOAD DUP2 DUP5 ADD MSTORE PUSH1 0x20 DUP2 ADD SWAP1 POP PUSH2 0x1C2D JUMP JUMPDEST DUP4 DUP2 GT ISZERO PUSH2 0x1C57 JUMPI PUSH1 0x0 DUP5 DUP5 ADD MSTORE JUMPDEST POP POP POP POP JUMP JUMPDEST PUSH1 0x0 PUSH1 0x1F NOT PUSH1 0x1F DUP4 ADD AND SWAP1 POP SWAP2 SWAP1 POP JUMP JUMPDEST PUSH1 0x0 PUSH2 0x1C79 DUP3 PUSH2 0x1C0E JUMP JUMPDEST PUSH2 0x1C83 DUP2 DUP6 PUSH2 0x1C19 JUMP JUMPDEST SWAP4 POP PUSH2 0x1C93 DUP2 DUP6 PUSH1 0x20 DUP7 ADD PUSH2 0x1C2A JUMP JUMPDEST PUSH2 0x1C9C DUP2 PUSH2 0x1C5D JUMP JUMPDEST DUP5 ADD SWAP2 POP POP SWAP3 SWAP2 POP POP JUMP JUMPDEST PUSH1 0x0 DUP2 MLOAD SWAP1 POP SWAP2 SWAP1 POP JUMP JUMPDEST PUSH1 0x0 DUP3 DUP3 MSTORE PUSH1 0x20 DUP3 ADD SWAP1 POP SWAP3 SWAP2 POP POP JUMP JUMPDEST PUSH1 0x0 DUP2 SWAP1 POP PUSH1 0x20 DUP3 ADD SWAP1 POP SWAP2 SWAP1 POP JUMP JUMPDEST PUSH1 0x0 PUSH2 0x1CDF DUP4 DUP4 PUSH2 0x1BBE JUMP JUMPDEST PUSH1 0x20 DUP4 ADD SWAP1 POP SWAP3 SWAP2 POP POP JUMP JUMPDEST PUSH1 0x0 PUSH1 0x20 DUP3 ADD SWAP1 POP SWAP2 SWAP1 POP JUMP JUMPDEST PUSH1 0x0 PUSH2 0x1D03 DUP3 PUSH2 0x1CA7 JUMP JUMPDEST PUSH2 0x1D0D DUP2 DUP6 PUSH2 0x1CB2 JUMP JUMPDEST SWAP4 POP PUSH2 0x1D18 DUP4 PUSH2 0x1CC3 JUMP JUMPDEST DUP1 PUSH1 0x0 JUMPDEST DUP4 DUP2 LT ISZERO PUSH2 0x1D49 JUMPI DUP2 MLOAD PUSH2 0x1D30 DUP9 DUP3 PUSH2 0x1CD3 JUMP JUMPDEST SWAP8 POP PUSH2 0x1D3B DUP4 PUSH2 0x1CEB JUMP JUMPDEST SWAP3 POP POP PUSH1 0x1 DUP2 ADD SWAP1 POP PUSH2 0x1D1C JUMP JUMPDEST POP DUP6 SWAP4 POP POP POP POP SWAP3 SWAP2 POP POP JUMP JUMPDEST PUSH1 0x0 PUSH1 0xA0 DUP4 ADD PUSH1 0x0 DUP4 ADD MLOAD PUSH2 0x1D6E PUSH1 0x0 DUP7 ADD DUP3 PUSH2 0x1BBE JUMP JUMPDEST POP PUSH1 0x20 DUP4 ADD MLOAD PUSH2 0x1D81 PUSH1 0x20 DUP7 ADD DUP3 PUSH2 0x1BFF JUMP JUMPDEST POP PUSH1 0x40 DUP4 ADD MLOAD PUSH2 0x1D94 PUSH1 0x40 DUP7 ADD DUP3 PUSH2 0x1BFF JUMP JUMPDEST POP PUSH1 0x60 DUP4 ADD MLOAD DUP5 DUP3 SUB PUSH1 0x60 DUP7 ADD MSTORE PUSH2 0x1DAC DUP3 DUP3 PUSH2 0x1C6E JUMP JUMPDEST SWAP2 POP POP PUSH1 0x80 DUP4 ADD MLOAD DUP5 DUP3 SUB PUSH1 0x80 DUP7 ADD MSTORE PUSH2 0x1DC6 DUP3 DUP3 PUSH2 0x1CF8 JUMP JUMPDEST SWAP2 POP POP DUP1 SWAP2 POP POP SWAP3 SWAP2 POP POP JUMP JUMPDEST PUSH1 0x0 PUSH1 0x20 DUP3 ADD SWAP1 POP DUP2 DUP2 SUB PUSH1 0x0 DUP4 ADD MSTORE PUSH2 0x1DED DUP2 DUP5 PUSH2 0x1D56 JUMP JUMPDEST SWAP1 POP SWAP3 SWAP2 POP POP JUMP JUMPDEST PUSH2 0x1DFE DUP2 PUSH2 0x1BED JUMP JUMPDEST DUP3 MSTORE POP POP JUMP JUMPDEST PUSH1 0x0 PUSH1 0x20 DUP3 ADD SWAP1 POP PUSH2 0x1E19 PUSH1 0x0 DUP4 ADD DUP5 PUSH2 0x1DF5 JUMP JUMPDEST SWAP3 SWAP2 POP POP JUMP JUMPDEST PUSH2 0x1E28 DUP2 PUSH2 0x1B5B JUMP JUMPDEST DUP3 MSTORE POP POP JUMP JUMPDEST PUSH1 0x0 DUP3 DUP3 MSTORE PUSH1 0x20 DUP3 ADD SWAP1 POP SWAP3 SWAP2 POP POP JUMP JUMPDEST PUSH1 0x0 PUSH2 0x1E4A DUP3 PUSH2 0x1C0E JUMP JUMPDEST PUSH2 0x1E54 DUP2 DUP6 PUSH2 0x1E2E JUMP JUMPDEST SWAP4 POP PUSH2 0x1E64 DUP2 DUP6 PUSH1 0x20 DUP7 ADD PUSH2 0x1C2A JUMP JUMPDEST PUSH2 0x1E6D DUP2 PUSH2 0x1C5D JUMP JUMPDEST DUP5 ADD SWAP2 POP POP SWAP3 SWAP2 POP POP JUMP JUMPDEST PUSH1 0x0 PUSH1 0x80 DUP3 ADD SWAP1 POP PUSH2 0x1E8D PUSH1 0x0 DUP4 ADD DUP8 PUSH2 0x1E1F JUMP JUMPDEST PUSH2 0x1E9A PUSH1 0x20 DUP4 ADD DUP7 PUSH2 0x1DF5 JUMP JUMPDEST PUSH2 0x1EA7 PUSH1 0x40 DUP4 ADD DUP6 PUSH2 0x1DF5 JUMP JUMPDEST DUP2 DUP2 SUB PUSH1 0x60 DUP4 ADD MSTORE PUSH2 0x1EB9 DUP2 DUP5 PUSH2 0x1E3F JUMP JUMPDEST SWAP1 POP SWAP6 SWAP5 POP POP POP POP POP JUMP JUMPDEST PUSH1 0x0 DUP3 DUP3 MSTORE PUSH1 0x20 DUP3 ADD SWAP1 POP SWAP3 SWAP2 POP POP JUMP JUMPDEST PUSH1 0x0 PUSH2 0x1EE0 DUP3 PUSH2 0x1CA7 JUMP JUMPDEST PUSH2 0x1EEA DUP2 DUP6 PUSH2 0x1EC4 JUMP JUMPDEST SWAP4 POP PUSH2 0x1EF5 DUP4 PUSH2 0x1CC3 JUMP JUMPDEST DUP1 PUSH1 0x0 JUMPDEST DUP4 DUP2 LT ISZERO PUSH2 0x1F26 JUMPI DUP2 MLOAD PUSH2 0x1F0D DUP9 DUP3 PUSH2 0x1CD3 JUMP JUMPDEST SWAP8 POP PUSH2 0x1F18 DUP4 PUSH2 0x1CEB JUMP JUMPDEST SWAP3 POP POP PUSH1 0x1 DUP2 ADD SWAP1 POP PUSH2 0x1EF9 JUMP JUMPDEST POP DUP6 SWAP4 POP POP POP POP SWAP3 SWAP2 POP POP JUMP JUMPDEST PUSH1 0x0 PUSH1 0x20 DUP3 ADD SWAP1 POP DUP2 DUP2 SUB PUSH1 0x0 DUP4 ADD MSTORE PUSH2 0x1F4D DUP2 DUP5 PUSH2 0x1ED5 JUMP JUMPDEST SWAP1 POP SWAP3 SWAP2 POP POP JUMP JUMPDEST PUSH2 0x1F5E DUP2 PUSH2 0x1BED JUMP JUMPDEST DUP2 EQ PUSH2 0x1F69 JUMPI PUSH1 0x0 DUP1 REVERT JUMPDEST POP JUMP JUMPDEST PUSH1 0x0 DUP2 CALLDATALOAD SWAP1 POP PUSH2 0x1F7B DUP2 PUSH2 0x1F55 JUMP JUMPDEST SWAP3 SWAP2 POP POP JUMP JUMPDEST PUSH1 0x0 DUP1 REVERT JUMPDEST PUSH1 0x0 DUP1 REVERT JUMPDEST PUSH32 0x4E487B7100000000000000000000000000000000000000000000000000000000 PUSH1 0x0 MSTORE PUSH1 0x41 PUSH1 0x4 MSTORE PUSH1 0x24 PUSH1 0x0 REVERT JUMPDEST PUSH2 0x1FC3 DUP3 PUSH2 0x1C5D JUMP JUMPDEST DUP2 ADD DUP2 DUP2 LT PUSH8 0xFFFFFFFFFFFFFFFF DUP3 GT OR ISZERO PUSH2 0x1FE2 JUMPI PUSH2 0x1FE1 PUSH2 0x1F8B JUMP JUMPDEST JUMPDEST DUP1 PUSH1 0x40 MSTORE POP POP POP JUMP JUMPDEST PUSH1 0x0 PUSH2 0x1FF5 PUSH2 0x1B47 JUMP JUMPDEST SWAP1 POP PUSH2 0x2001 DUP3 DUP3 PUSH2 0x1FBA JUMP JUMPDEST SWAP2 SWAP1 POP JUMP JUMPDEST PUSH1 0x0 PUSH8 0xFFFFFFFFFFFFFFFF DUP3 GT ISZERO PUSH2 0x2021 JUMPI PUSH2 0x2020 PUSH2 0x1F8B JUMP JUMPDEST JUMPDEST PUSH2 0x202A DUP3 PUSH2 0x1C5D JUMP JUMPDEST SWAP1 POP PUSH1 0x20 DUP2 ADD SWAP1 POP SWAP2 SWAP1 POP JUMP JUMPDEST DUP3 DUP2 DUP4 CALLDATACOPY PUSH1 0x0 DUP4 DUP4 ADD MSTORE POP POP POP JUMP JUMPDEST PUSH1 0x0 PUSH2 0x2059 PUSH2 0x2054 DUP5 PUSH2 0x2006 JUMP JUMPDEST PUSH2 0x1FEB JUMP JUMPDEST SWAP1 POP DUP3 DUP2 MSTORE PUSH1 0x20 DUP2 ADD DUP5 DUP5 DUP5 ADD GT ISZERO PUSH2 0x2075 JUMPI PUSH2 0x2074 PUSH2 0x1F86 JUMP JUMPDEST JUMPDEST PUSH2 0x2080 DUP5 DUP3 DUP6 PUSH2 0x2037 JUMP JUMPDEST POP SWAP4 SWAP3 POP POP POP JUMP JUMPDEST PUSH1 0x0 DUP3 PUSH1 0x1F DUP4 ADD SLT PUSH2 0x209D JUMPI PUSH2 0x209C PUSH2 0x1F81 JUMP JUMPDEST JUMPDEST DUP2 CALLDATALOAD PUSH2 0x20AD DUP5 DUP3 PUSH1 0x20 DUP7 ADD PUSH2 0x2046 JUMP JUMPDEST SWAP2 POP POP SWAP3 SWAP2 POP POP JUMP JUMPDEST PUSH1 0x0 DUP1 PUSH1 0x40 DUP4 DUP6 SUB SLT ISZERO PUSH2 0x20CD JUMPI PUSH2 0x20CC PUSH2 0x1B51 JUMP JUMPDEST JUMPDEST PUSH1 0x0 PUSH2 0x20DB DUP6 DUP3 DUP7 ADD PUSH2 0x1F6C JUMP JUMPDEST SWAP3 POP POP PUSH1 0x20 DUP4 ADD CALLDATALOAD PUSH8 0xFFFFFFFFFFFFFFFF DUP2 GT ISZERO PUSH2 0x20FC JUMPI PUSH2 0x20FB PUSH2 0x1B56 JUMP JUMPDEST JUMPDEST PUSH2 0x2108 DUP6 DUP3 DUP7 ADD PUSH2 0x2088 JUMP JUMPDEST SWAP2 POP POP SWAP3 POP SWAP3 SWAP1 POP JUMP JUMPDEST PUSH1 0x0 PUSH1 0x20 DUP3 DUP5 SUB SLT ISZERO PUSH2 0x2128 JUMPI PUSH2 0x2127 PUSH2 0x1B51 JUMP JUMPDEST JUMPDEST PUSH1 0x0 PUSH2 0x2136 DUP5 DUP3 DUP6 ADD PUSH2 0x1F6C JUMP JUMPDEST SWAP2 POP POP SWAP3 SWAP2 POP POP JUMP JUMPDEST PUSH1 0x0 PUSH1 0x40 DUP3 ADD SWAP1 POP DUP2 DUP2 SUB PUSH1 0x0 DUP4 ADD MSTORE PUSH2 0x2159 DUP2 DUP6 PUSH2 0x1E3F JUMP JUMPDEST SWAP1 POP DUP2 DUP2 SUB PUSH1 0x20 DUP4 ADD MSTORE PUSH2 0x216D DUP2 DUP5 PUSH2 0x1E3F JUMP JUMPDEST SWAP1 POP SWAP4 SWAP3 POP POP POP JUMP JUMPDEST PUSH1 0x0 DUP1 PUSH1 0x0 DUP1 PUSH1 0x80 DUP6 DUP8 SUB SLT ISZERO PUSH2 0x2190 JUMPI PUSH2 0x218F PUSH2 0x1B51 JUMP JUMPDEST JUMPDEST PUSH1 0x0 PUSH2 0x219E DUP8 DUP3 DUP9 ADD PUSH2 0x1F6C JUMP JUMPDEST SWAP5 POP POP PUSH1 0x20 DUP6 ADD CALLDATALOAD PUSH8 0xFFFFFFFFFFFFFFFF DUP2 GT ISZERO PUSH2 0x21BF JUMPI PUSH2 0x21BE PUSH2 0x1B56 JUMP JUMPDEST JUMPDEST PUSH2 0x21CB DUP8 DUP3 DUP9 ADD PUSH2 0x2088 JUMP JUMPDEST SWAP4 POP POP PUSH1 0x40 DUP6 ADD CALLDATALOAD PUSH8 0xFFFFFFFFFFFFFFFF DUP2 GT ISZERO PUSH2 0x21EC JUMPI PUSH2 0x21EB PUSH2 0x1B56 JUMP JUMPDEST JUMPDEST PUSH2 0x21F8 DUP8 DUP3 DUP9 ADD PUSH2 0x2088 JUMP JUMPDEST SWAP3 POP POP PUSH1 0x60 PUSH2 0x2209 DUP8 DUP3 DUP9 ADD PUSH2 0x1B7C JUMP JUMPDEST SWAP2 POP POP SWAP3 SWAP6 SWAP2 SWAP5 POP SWAP3 POP JUMP JUMPDEST PUSH1 0x0 DUP1 PUSH1 0x0 PUSH1 0x60 DUP5 DUP7 SUB SLT ISZERO PUSH2 0x222E JUMPI PUSH2 0x222D PUSH2 0x1B51 JUMP JUMPDEST JUMPDEST PUSH1 0x0 PUSH2 0x223C DUP7 DUP3 DUP8 ADD PUSH2 0x1F6C JUMP JUMPDEST SWAP4 POP POP PUSH1 0x20 DUP5 ADD CALLDATALOAD PUSH8 0xFFFFFFFFFFFFFFFF DUP2 GT ISZERO PUSH2 0x225D JUMPI PUSH2 0x225C PUSH2 0x1B56 JUMP JUMPDEST JUMPDEST PUSH2 0x2269 DUP7 DUP3 DUP8 ADD PUSH2 0x2088 JUMP JUMPDEST SWAP3 POP POP PUSH1 0x40 DUP5 ADD CALLDATALOAD PUSH8 0xFFFFFFFFFFFFFFFF DUP2 GT ISZERO PUSH2 0x228A JUMPI PUSH2 0x2289 PUSH2 0x1B56 JUMP JUMPDEST JUMPDEST PUSH2 0x2296 DUP7 DUP3 DUP8 ADD PUSH2 0x2088 JUMP JUMPDEST SWAP2 POP POP SWAP3 POP SWAP3 POP SWAP3 JUMP JUMPDEST PUSH1 0x0 DUP2 ISZERO ISZERO SWAP1 POP SWAP2 SWAP1 POP JUMP JUMPDEST PUSH2 0x22B5 DUP2 PUSH2 0x22A0 JUMP JUMPDEST DUP3 MSTORE POP POP JUMP JUMPDEST PUSH1 0x0 PUSH1 0x20 DUP3 ADD SWAP1 POP PUSH2 0x22D0 PUSH1 0x0 DUP4 ADD DUP5 PUSH2 0x22AC JUMP JUMPDEST SWAP3 SWAP2 POP POP JUMP JUMPDEST PUSH1 0x0 DUP1 PUSH1 0x40 DUP4 DUP6 SUB SLT ISZERO PUSH2 0x22ED JUMPI PUSH2 0x22EC PUSH2 0x1B51 JUMP JUMPDEST JUMPDEST PUSH1 0x0 PUSH2 0x22FB DUP6 DUP3 DUP7 ADD PUSH2 0x1F6C JUMP JUMPDEST SWAP3 POP POP PUSH1 0x20 PUSH2 0x230C DUP6 DUP3 DUP7 ADD PUSH2 0x1F6C JUMP JUMPDEST SWAP2 POP POP SWAP3 POP SWAP3 SWAP1 POP JUMP JUMPDEST PUSH1 0x0 DUP2 MLOAD SWAP1 POP SWAP2 SWAP1 POP JUMP JUMPDEST PUSH1 0x0 DUP3 DUP3 MSTORE PUSH1 0x20 DUP3 ADD SWAP1 POP SWAP3 SWAP2 POP POP JUMP JUMPDEST PUSH1 0x0 DUP2 SWAP1 POP PUSH1 0x20 DUP3 ADD SWAP1 POP SWAP2 SWAP1 POP JUMP JUMPDEST PUSH1 0x0 PUSH2 0x234E DUP4 DUP4 PUSH2 0x1BFF JUMP JUMPDEST PUSH1 0x20 DUP4 ADD SWAP1 POP SWAP3 SWAP2 POP POP JUMP JUMPDEST PUSH1 0x0 PUSH1 0x20 DUP3 ADD SWAP1 POP SWAP2 SWAP1 POP JUMP JUMPDEST PUSH1 0x0 PUSH2 0x2372 DUP3 PUSH2 0x2316 JUMP JUMPDEST PUSH2 0x237C DUP2 DUP6 PUSH2 0x2321 JUMP JUMPDEST SWAP4 POP PUSH2 0x2387 DUP4 PUSH2 0x2332 JUMP JUMPDEST DUP1 PUSH1 0x0 JUMPDEST DUP4 DUP2 LT ISZERO PUSH2 0x23B8 JUMPI DUP2 MLOAD PUSH2 0x239F DUP9 DUP3 PUSH2 0x2342 JUMP JUMPDEST SWAP8 POP PUSH2 0x23AA DUP4 PUSH2 0x235A JUMP JUMPDEST SWAP3 POP POP PUSH1 0x1 DUP2 ADD SWAP1 POP PUSH2 0x238B JUMP JUMPDEST POP DUP6 SWAP4 POP POP POP POP SWAP3 SWAP2 POP POP JUMP JUMPDEST PUSH1 0x0 PUSH1 0x20 DUP3 ADD SWAP1 POP DUP2 DUP2 SUB PUSH1 0x0 DUP4 ADD MSTORE PUSH2 0x23DF DUP2 DUP5 PUSH2 0x2367 JUMP JUMPDEST SWAP1 POP SWAP3 SWAP2 POP POP JUMP JUMPDEST PUSH32 0x4E6F7420666F722061646D696E00000000000000000000000000000000000000 PUSH1 0x0 DUP3 ADD MSTORE POP JUMP JUMPDEST PUSH1 0x0 PUSH2 0x241D PUSH1 0xD DUP4 PUSH2 0x1E2E JUMP JUMPDEST SWAP2 POP PUSH2 0x2428 DUP3 PUSH2 0x23E7 JUMP JUMPDEST PUSH1 0x20 DUP3 ADD SWAP1 POP SWAP2 SWAP1 POP JUMP JUMPDEST PUSH1 0x0 PUSH1 0x20 DUP3 ADD SWAP1 POP DUP2 DUP2 SUB PUSH1 0x0 DUP4 ADD MSTORE PUSH2 0x244C DUP2 PUSH2 0x2410 JUMP JUMPDEST SWAP1 POP SWAP2 SWAP1 POP JUMP JUMPDEST PUSH32 0x4E487B7100000000000000000000000000000000000000000000000000000000 PUSH1 0x0 MSTORE PUSH1 0x32 PUSH1 0x4 MSTORE PUSH1 0x24 PUSH1 0x0 REVERT JUMPDEST PUSH32 0x4E487B7100000000000000000000000000000000000000000000000000000000 PUSH1 0x0 MSTORE PUSH1 0x22 PUSH1 0x4 MSTORE PUSH1 0x24 PUSH1 0x0 REVERT JUMPDEST PUSH1 0x0 PUSH1 0x2 DUP3 DIV SWAP1 POP PUSH1 0x1 DUP3 AND DUP1 PUSH2 0x24C9 JUMPI PUSH1 0x7F DUP3 AND SWAP2 POP JUMPDEST PUSH1 0x20 DUP3 LT DUP2 SUB PUSH2 0x24DC JUMPI PUSH2 0x24DB PUSH2 0x2482 JUMP JUMPDEST JUMPDEST POP SWAP2 SWAP1 POP JUMP JUMPDEST PUSH32 0x446F63746F72206F6E6C79000000000000000000000000000000000000000000 PUSH1 0x0 DUP3 ADD MSTORE POP JUMP JUMPDEST PUSH1 0x0 PUSH2 0x2518 PUSH1 0xB DUP4 PUSH2 0x1E2E JUMP JUMPDEST SWAP2 POP PUSH2 0x2523 DUP3 PUSH2 0x24E2 JUMP JUMPDEST PUSH1 0x20 DUP3 ADD SWAP1 POP SWAP2 SWAP1 POP JUMP JUMPDEST PUSH1 0x0 PUSH1 0x20 DUP3 ADD SWAP1 POP DUP2 DUP2 SUB PUSH1 0x0 DUP4 ADD MSTORE PUSH2 0x2547 DUP2 PUSH2 0x250B JUMP JUMPDEST SWAP1 POP SWAP2 SWAP1 POP JUMP JUMPDEST PUSH32 0x596F7520686176656E2774206265656E2061737369676E656420746869732070 PUSH1 0x0 DUP3 ADD MSTORE PUSH32 0x617469656E740000000000000000000000000000000000000000000000000000 PUSH1 0x20 DUP3 ADD MSTORE POP JUMP JUMPDEST PUSH1 0x0 PUSH2 0x25AA PUSH1 0x26 DUP4 PUSH2 0x1E2E JUMP JUMPDEST SWAP2 POP PUSH2 0x25B5 DUP3 PUSH2 0x254E JUMP JUMPDEST PUSH1 0x40 DUP3 ADD SWAP1 POP SWAP2 SWAP1 POP JUMP JUMPDEST PUSH1 0x0 PUSH1 0x20 DUP3 ADD SWAP1 POP DUP2 DUP2 SUB PUSH1 0x0 DUP4 ADD MSTORE PUSH2 0x25D9 DUP2 PUSH2 0x259D JUMP JUMPDEST SWAP1 POP SWAP2 SWAP1 POP JUMP JUMPDEST PUSH1 0x0 DUP2 SWAP1 POP DUP2 PUSH1 0x0 MSTORE PUSH1 0x20 PUSH1 0x0 KECCAK256 SWAP1 POP SWAP2 SWAP1 POP JUMP JUMPDEST PUSH1 0x0 PUSH1 0x20 PUSH1 0x1F DUP4 ADD DIV SWAP1 POP SWAP2 SWAP1 POP JUMP JUMPDEST PUSH1 0x0 DUP3 DUP3 SHL SWAP1 POP SWAP3 SWAP2 POP POP JUMP JUMPDEST PUSH1 0x0 PUSH1 0x8 DUP4 MUL PUSH2 0x2642 PUSH32 0xFFFFFFFFFFFFFFFFFFFFFFFFFFFFFFFFFFFFFFFFFFFFFFFFFFFFFFFFFFFFFFFF DUP3 PUSH2 0x2605 JUMP JUMPDEST PUSH2 0x264C DUP7 DUP4 PUSH2 0x2605 JUMP JUMPDEST SWAP6 POP DUP1 NOT DUP5 AND SWAP4 POP DUP1 DUP7 AND DUP5 OR SWAP3 POP POP POP SWAP4 SWAP3 POP POP POP JUMP JUMPDEST PUSH1 0x0 DUP2 SWAP1 POP SWAP2 SWAP1 POP JUMP JUMPDEST PUSH1 0x0 PUSH2 0x2689 PUSH2 0x2684 PUSH2 0x267F DUP5 PUSH2 0x1B5B JUMP JUMPDEST PUSH2 0x2664 JUMP JUMPDEST PUSH2 0x1B5B JUMP JUMPDEST SWAP1 POP SWAP2 SWAP1 POP JUMP JUMPDEST PUSH1 0x0 DUP2 SWAP1 POP SWAP2 SWAP1 POP JUMP JUMPDEST PUSH2 0x26A3 DUP4 PUSH2 0x266E JUMP JUMPDEST PUSH2 0x26B7 PUSH2 0x26AF DUP3 PUSH2 0x2690 JUMP JUMPDEST DUP5 DUP5 SLOAD PUSH2 0x2612 JUMP JUMPDEST DUP3 SSTORE POP POP POP POP JUMP JUMPDEST PUSH1 0x0 SWAP1 JUMP JUMPDEST PUSH2 0x26CC PUSH2 0x26BF JUMP JUMPDEST PUSH2 0x26D7 DUP2 DUP5 DUP5 PUSH2 0x269A JUMP JUMPDEST POP POP POP JUMP JUMPDEST JUMPDEST DUP2 DUP2 LT ISZERO PUSH2 0x26FB JUMPI PUSH2 0x26F0 PUSH1 0x0 DUP3 PUSH2 0x26C4 JUMP JUMPDEST PUSH1 0x1 DUP2 ADD SWAP1 POP PUSH2 0x26DD JUMP JUMPDEST POP POP JUMP JUMPDEST PUSH1 0x1F DUP3 GT ISZERO PUSH2 0x2740 JUMPI PUSH2 0x2711 DUP2 PUSH2 0x25E0 JUMP JUMPDEST PUSH2 0x271A DUP5 PUSH2 0x25F5 JUMP JUMPDEST DUP2 ADD PUSH1 0x20 DUP6 LT ISZERO PUSH2 0x2729 JUMPI DUP2 SWAP1 POP JUMPDEST PUSH2 0x273D PUSH2 0x2735 DUP6 PUSH2 0x25F5 JUMP JUMPDEST DUP4 ADD DUP3 PUSH2 0x26DC JUMP JUMPDEST POP POP JUMPDEST POP POP POP JUMP JUMPDEST PUSH1 0x0 DUP3 DUP3 SHR SWAP1 POP SWAP3 SWAP2 POP POP JUMP JUMPDEST PUSH1 0x0 PUSH2 0x2763 PUSH1 0x0 NOT DUP5 PUSH1 0x8 MUL PUSH2 0x2745 JUMP JUMPDEST NOT DUP1 DUP4 AND SWAP2 POP POP SWAP3 SWAP2 POP POP JUMP JUMPDEST PUSH1 0x0 PUSH2 0x277C DUP4 DUP4 PUSH2 0x2752 JUMP JUMPDEST SWAP2 POP DUP3 PUSH1 0x2 MUL DUP3 OR SWAP1 POP SWAP3 SWAP2 POP POP JUMP JUMPDEST PUSH2 0x2795 DUP3 PUSH2 0x1C0E JUMP JUMPDEST PUSH8 0xFFFFFFFFFFFFFFFF DUP2 GT ISZERO PUSH2 0x27AE JUMPI PUSH2 0x27AD PUSH2 0x1F8B JUMP JUMPDEST JUMPDEST PUSH2 0x27B8 DUP3 SLOAD PUSH2 0x24B1 JUMP JUMPDEST PUSH2 0x27C3 DUP3 DUP3 DUP6 PUSH2 0x26FF JUMP JUMPDEST PUSH1 0x0 PUSH1 0x20 SWAP1 POP PUSH1 0x1F DUP4 GT PUSH1 0x1 DUP2 EQ PUSH2 0x27F6 JUMPI PUSH1 0x0 DUP5 ISZERO PUSH2 0x27E4 JUMPI DUP3 DUP8 ADD MLOAD SWAP1 POP JUMPDEST PUSH2 0x27EE DUP6 DUP3 PUSH2 0x2770 JUMP JUMPDEST DUP7 SSTORE POP PUSH2 0x2856 JUMP JUMPDEST PUSH1 0x1F NOT DUP5 AND PUSH2 0x2804 DUP7 PUSH2 0x25E0 JUMP JUMPDEST PUSH1 0x0 JUMPDEST DUP3 DUP2 LT ISZERO PUSH2 0x282C JUMPI DUP5 DUP10 ADD MLOAD DUP3 SSTORE PUSH1 0x1 DUP3 ADD SWAP2 POP PUSH1 0x20 DUP6 ADD SWAP5 POP PUSH1 0x20 DUP2 ADD SWAP1 POP PUSH2 0x2807 JUMP JUMPDEST DUP7 DUP4 LT ISZERO PUSH2 0x2849 JUMPI DUP5 DUP10 ADD MLOAD PUSH2 0x2845 PUSH1 0x1F DUP10 AND DUP3 PUSH2 0x2752 JUMP JUMPDEST DUP4 SSTORE POP JUMPDEST PUSH1 0x1 PUSH1 0x2 DUP9 MUL ADD DUP9 SSTORE POP POP POP JUMPDEST POP POP POP POP POP POP JUMP JUMPDEST PUSH32 0x41646D696E206F6E6C7900000000000000000000000000000000000000000000 PUSH1 0x0 DUP3 ADD MSTORE POP JUMP JUMPDEST PUSH1 0x0 PUSH2 0x2894 PUSH1 0xA DUP4 PUSH2 0x1E2E JUMP JUMPDEST SWAP2 POP PUSH2 0x289F DUP3 PUSH2 0x285E JUMP JUMPDEST PUSH1 0x20 DUP3 ADD SWAP1 POP SWAP2 SWAP1 POP JUMP JUMPDEST PUSH1 0x0 PUSH1 0x20 DUP3 ADD SWAP1 POP DUP2 DUP2 SUB PUSH1 0x0 DUP4 ADD MSTORE PUSH2 0x28C3 DUP2 PUSH2 0x2887 JUMP JUMPDEST SWAP1 POP SWAP2 SWAP1 POP JUMP JUMPDEST PUSH32 0x596F7520617265206E6F7420656C696769626C6520666F72207468697320726F PUSH1 0x0 DUP3 ADD MSTORE PUSH32 0x6C65000000000000000000000000000000000000000000000000000000000000 PUSH1 0x20 DUP3 ADD MSTORE POP JUMP JUMPDEST PUSH1 0x0 PUSH2 0x2926 PUSH1 0x22 DUP4 PUSH2 0x1E2E JUMP JUMPDEST SWAP2 POP PUSH2 0x2931 DUP3 PUSH2 0x28CA JUMP JUMPDEST PUSH1 0x40 DUP3 ADD SWAP1 POP SWAP2 SWAP1 POP JUMP JUMPDEST PUSH1 0x0 PUSH1 0x20 DUP3 ADD SWAP1 POP DUP2 DUP2 SUB PUSH1 0x0 DUP4 ADD MSTORE PUSH2 0x2955 DUP2 PUSH2 0x2919 JUMP JUMPDEST SWAP1 POP SWAP2 SWAP1 POP JUMP JUMPDEST PUSH32 0x526F6C65733A206163636F756E7420616C72656164792068617320726F6C6500 PUSH1 0x0 DUP3 ADD MSTORE POP JUMP JUMPDEST PUSH1 0x0 PUSH2 0x2992 PUSH1 0x1F DUP4 PUSH2 0x1E2E JUMP JUMPDEST SWAP2 POP PUSH2 0x299D DUP3 PUSH2 0x295C JUMP JUMPDEST PUSH1 0x20 DUP3 ADD SWAP1 POP SWAP2 SWAP1 POP JUMP JUMPDEST PUSH1 0x0 PUSH1 0x20 DUP3 ADD SWAP1 POP DUP2 DUP2 SUB PUSH1 0x0 DUP4 ADD MSTORE PUSH2 0x29C1 DUP2 PUSH2 0x2985 JUMP JUMPDEST SWAP1 POP SWAP2 SWAP1 POP JUMP JUMPDEST PUSH32 0x526F6C65733A206163636F756E7420697320746865207A65726F206164647265 PUSH1 0x0 DUP3 ADD MSTORE PUSH32 0x7373000000000000000000000000000000000000000000000000000000000000 PUSH1 0x20 DUP3 ADD MSTORE POP JUMP JUMPDEST PUSH1 0x0 PUSH2 0x2A24 PUSH1 0x22 DUP4 PUSH2 0x1E2E JUMP JUMPDEST SWAP2 POP PUSH2 0x2A2F DUP3 PUSH2 0x29C8 JUMP JUMPDEST PUSH1 0x40 DUP3 ADD SWAP1 POP SWAP2 SWAP1 POP JUMP JUMPDEST PUSH1 0x0 PUSH1 0x20 DUP3 ADD SWAP1 POP DUP2 DUP2 SUB PUSH1 0x0 DUP4 ADD MSTORE PUSH2 0x2A53 DUP2 PUSH2 0x2A17 JUMP JUMPDEST SWAP1 POP SWAP2 SWAP1 POP JUMP INVALID LOG2 PUSH5 0x6970667358 0x22 SLT KECCAK256 0xE9 0xE6 EXTCODECOPY 0xCA 0x29 0xD7 SWAP1 0xDC PUSH9 0x4EAB0F35C83C849AE1 SWAP16 DUP7 0xBF EQ DELEGATECALL TIMESTAMP 0x4A PUSH17 0x572C6E2F9C5564736F6C634300080F0033 "},"gasEstimates":{"creation":{"codeDepositCost":"2179200","executionCost":"infinite","totalCost":"infinite"},"external":{"addDoctor(address,string,string)":"infinite","addPatient(address,string,string)":"infinite","admin()":"2602","assign(address,address)":"infinite","createAppointment(address,string,string,uint256)":"infinite","createRecord(address,string)":"infinite","doctorList(uint256)":"5002","getAdmin()":"2567","getDoctor(address)":"infinite","getDoctorList()":"infinite","getMedicalRecord(uint256)":"infinite","getRecordNumbers()":"infinite","isDoctor(address)":"infinite","isPatient(address)":"infinite","patientList(uint256)":"5022","recordList(uint256)":"infinite"},"internal":{"addAppointmentToRecord(uint256,uint256)":"48649"}},"methodIdentifiers":{"addDoctor(address,string,string)":"34b78998","addPatient(address,string,string)":"37b16b50","admin()":"f851a440","assign(address,address)":"9429e171","createAppointment(address,string,string,uint256)":"34b3e4f1","createRecord(address,string)":"1f21a79d","doctorList(uint256)":"127ca4b4","getAdmin()":"6e9960c3","getDoctor(address)":"2f04e064","getDoctorList()":"a71aefc9","getMedicalRecord(uint256)":"0c388722","getRecordNumbers()":"1e175c40","isDoctor(address)":"996440c6","isPatient(address)":"8f9c79ed","patientList(uint256)":"babb1d41","recordList(uint256)":"19da83a8"}},"storageLayout":{"storage":[{"astId":95,"contract":"Contract.sol:Contract","label":"adminRole","offset":0,"slot":"0","type":"t_struct(Role)7_storage"},{"astId":98,"contract":"Contract.sol:Contract","label":"doctorRole","offset":0,"slot":"1","type":"t_struct(Role)7_storage"},{"astId":101,"contract":"Contract.sol:Contract","label":"patientRole","offset":0,"slot":"2","type":"t_struct(Role)7_storage"},{"astId":145,"contract":"Contract.sol:Contract","label":"addressToDoctorMapping","offset":0,"slot":"3","type":"t_mapping(t_address,t_struct(Doctor)109_storage)"},{"astId":150,"contract":"Contract.sol:Contract","label":"addressToPatientMapping","offset":0,"slot":"4","type":"t_mapping(t_address,t_struct(Patient)117_storage)"},{"astId":154,"contract":"Contract.sol:Contract","label":"doctorToPatientMapping","offset":0,"slot":"5","type":"t_mapping(t_address,t_address)"},{"astId":158,"contract":"Contract.sol:Contract","label":"appointmentList","offset":0,"slot":"6","type":"t_array(t_struct(Appointment)140_storage)dyn_storage"},{"astId":162,"contract":"Contract.sol:Contract","label":"recordList","offset":0,"slot":"7","type":"t_array(t_struct(Record)129_storage)dyn_storage"},{"astId":165,"contract":"Contract.sol:Contract","label":"doctorList","offset":0,"slot":"8","type":"t_array(t_address)dyn_storage"},{"astId":168,"contract":"Contract.sol:Contract","label":"patientList","offset":0,"slot":"9","type":"t_array(t_address)dyn_storage"},{"astId":170,"contract":"Contract.sol:Contract","label":"admin","offset":0,"slot":"10","type":"t_address"}],"types":{"t_address":{"encoding":"inplace","label":"address","numberOfBytes":"20"},"t_array(t_address)dyn_storage":{"base":"t_address","encoding":"dynamic_array","label":"address[]","numberOfBytes":"32"},"t_array(t_struct(Appointment)140_storage)dyn_storage":{"base":"t_struct(Appointment)140_storage","encoding":"dynamic_array","label":"struct Contract.Appointment[]","numberOfBytes":"32"},"t_array(t_struct(Record)129_storage)dyn_storage":{"base":"t_struct(Record)129_storage","encoding":"dynamic_array","label":"struct Contract.Record[]","numberOfBytes":"32"},"t_array(t_uint256)dyn_storage":{"base":"t_uint256","encoding":"dynamic_array","label":"uint256[]","numberOfBytes":"32"},"t_bool":{"encoding":"inplace","label":"bool","numberOfBytes":"1"},"t_mapping(t_address,t_address)":{"encoding":"mapping","key":"t_address","label":"mapping(address => address)","numberOfBytes":"32","value":"t_address"},"t_mapping(t_address,t_bool)":{"encoding":"mapping","key":"t_address","label":"mapping(address => bool)","numberOfBytes":"32","value":"t_bool"},"t_mapping(t_address,t_struct(Doctor)109_storage)":{"encoding":"mapping","key":"t_address","label":"mapping(address => struct Contract.Doctor)","numberOfBytes":"32","value":"t_struct(Doctor)109_storage"},"t_mapping(t_address,t_struct(Patient)117_storage)":{"encoding":"mapping","key":"t_address","label":"mapping(address => struct Contract.Patient)","numberOfBytes":"32","value":"t_struct(Patient)117_storage"},"t_string_storage":{"encoding":"bytes","label":"string","numberOfBytes":"32"},"t_struct(Appointment)140_storage":{"encoding":"inplace","label":"struct Contract.Appointment","members":[{"astId":131,"contract":"Contract.sol:Contract","label":"number","offset":0,"slot":"0","type":"t_uint256"},{"astId":133,"contract":"Contract.sol:Contract","label":"patientAddress","offset":0,"slot":"1","type":"t_address"},{"astId":135,"contract":"Contract.sol:Contract","label":"doctorAddress","offset":0,"slot":"2","type":"t_address"},{"astId":137,"contract":"Contract.sol:Contract","label":"diagnosis","offset":0,"slot":"3","type":"t_string_storage"},{"astId":139,"contract":"Contract.sol:Contract","label":"treatmentPrescribed","offset":0,"slot":"4","type":"t_string_storage"}],"numberOfBytes":"160"},"t_struct(Doctor)109_storage":{"encoding":"inplace","label":"struct Contract.Doctor","members":[{"astId":103,"contract":"Contract.sol:Contract","label":"name","offset":0,"slot":"0","type":"t_string_storage"},{"astId":105,"contract":"Contract.sol:Contract","label":"phoneNumber","offset":0,"slot":"1","type":"t_string_storage"},{"astId":108,"contract":"Contract.sol:Contract","label":"recordNumberList","offset":0,"slot":"2","type":"t_array(t_uint256)dyn_storage"}],"numberOfBytes":"96"},"t_struct(Patient)117_storage":{"encoding":"inplace","label":"struct Contract.Patient","members":[{"astId":111,"contract":"Contract.sol:Contract","label":"name","offset":0,"slot":"0","type":"t_string_storage"},{"astId":113,"contract":"Contract.sol:Contract","label":"phoneNumber","offset":0,"slot":"1","type":"t_string_storage"},{"astId":116,"contract":"Contract.sol:Contract","label":"recordNumberList","offset":0,"slot":"2","type":"t_array(t_uint256)dyn_storage"}],"numberOfBytes":"96"},"t_struct(Record)129_storage":{"encoding":"inplace","label":"struct Contract.Record","members":[{"astId":119,"contract":"Contract.sol:Contract","label":"recordNumber","offset":0,"slot":"0","type":"t_uint256"},{"astId":121,"contract":"Contract.sol:Contract","label":"doctorAddress","offset":0,"slot":"1","type":"t_address"},{"astId":123,"contract":"Contract.sol:Contract","label":"patientAddress","offset":0,"slot":"2","type":"t_address"},{"astId":125,"contract":"Contract.sol:Contract","label":"patientHistoryDescription","offset":0,"slot":"3","type":"t_string_storage"},{"astId":128,"contract":"Contract.sol:Contract","label":"appointmentNumberList","offset":0,"slot":"4","type":"t_array(t_uint256)dyn_storage"}],"numberOfBytes":"160"},"t_struct(Role)7_storage":{"encoding":"inplace","label":"struct Roles.Role","members":[{"astId":6,"contract":"Contract.sol:Contract","label":"bearer","offset":0,"slot":"0","type":"t_mapping(t_address,t_bool)"}],"numberOfBytes":"32"},"t_uint256":{"encoding":"inplace","label":"uint256","numberOfBytes":"32"}}},"userdoc":{"kind":"user","methods":{},"version":1}}